:1000000062C0000087C0000085C0000083C00000FF
:1000100081C000007FC000007DC000007BC00000E8
:1000200079C000000C94930B75C0000073C00000F1
:1000300071C000000C943A086DC000006BC0000055
:1000400069C0000067C0000065C0000063C0000018
:1000500061C000005FC000005DC000005BC0000028
:1000600059C0000057C000009D05A305A605A905BD
:10007000AC05AF05B205B505B805BB05BE05C105A4
:1000800020506F6C6F6C750033F720526F626F7485
:1000900000477269640073696D706C65003E673378
:1000A000323E3E633332004C313620636465677202
:1000B00065673400000000000000001F1F1F1F1FA5
:1000C0001F1F220C230C11241FBECFEFD8E0DEBF70
:1000D000CDBF11E0A0E0B1E0ECE0F5E202C0059098
:1000E0000D92A23CB107D9F712E0A2ECB1E001C039
:1000F0001D92AA33B107E1F710E0C4ECD0E004C0D0
:100100002297FE010E947612C23CD107C9F7B0D0F7
:100110000C947A1275CFAAE0B0E0E1E9F0E00C941B
:10012000471280ED97E00E94600CC4D080E890E018
:100130000E944A0A80E061E00E94900988E890E00D
:100140000E944A0A8DE990E086D788EE93E00E94EB
:10015000CD0B0E94BE0981E990E00E944A0A80E02E
:1001600061E00E94900986E990E00E944A0A88EEC8
:1001700093E01AC0E0D37C010E94BE090027F7FC7F
:100180000095102FC801B7010E943B0A80E091E062
:100190000E94580A80E061E00E94900983E091E0AB
:1001A0000E94580A84E690E00E94CD0B80E10E94F4
:1001B000450B8823F9F280E10E94910B88EE93E0D1
:1001C0000E94CD0B0CEE1FEF0832110528F088E2DB
:1001D00090E068ED7FEF04C088ED9FEF68E270E08B
:1001E0000E94430B81E00E942D0C84E190E00E946C
:1001F000CD0B0F5F1F4F0C33110531F780E090E0FE
:1002000060E070E00E94430B6E010894C11CD11C99
:1002100017C0C60161E00E94260C7C010E94BE0945
:1002200000E010E0C801B7010E943B0A80E061E0F5
:100230000E949009C6011FD084E690E00E94CD0B79
:1002400080E10E94450B882321F380E10E94910BFD
:100250000E94BE098BE091E00E94580A87EA90E074
:10026000FAD66BD38823E9F72A96E8E00C94631258
:1002700052DF63D0FFCF0F931F93CF93DF938C0197
:10028000C0E0D0E0F801EC0FFD1F8081918165E6B0
:1002900070E00E94D911FB01E15FFE4F80810E9456
:1002A0005A0A2296CA30D10569F7DF91CF911F9182
:1002B0000F9108950F931F9304EB10E0C80160E0C5
:1002C0000E947F0AC801019661E00E947F0AC8016E
:1002D000029662E00E947F0AC801039663E00E94D2
:1002E0007F0AC801049664E00E947F0AC80105964F
:1002F00065E00E947F0AC801069666E00E947F0AB8
:100300000E94BE091F910F910895E091C201F0E093
:10031000E05CFE4F10820E94BE0980E491E00E94E2
:10032000580A8091C201893038F080E061E0F8D746
:1003300088E491E00C94580A0895CF92DF92EF92EE
:10034000FF921F93DF93CF93CDB7DEB72F970FB6F2
:10035000F894DEBF0FBECDBFDE011196E4EAF1E0F6
:1003600085E001900D928150E1F786E0C82ED12CF6
:10037000CC0EDD1E7E010894E11CF11CFFD789E143
:1003800091E00E94580A66D0F9D780E291E00E947D
:10039000580A82E390E062E370E00E94430B82E33C
:1003A00090E00E94CD0BC60161E00E94260C88E21D
:1003B00090E068E270E00E94430B88EC90E00E94BD
:1003C000CD0B89819A81892B49F0D8D789E291E0B8
:1003D0000E94580AC701DDD015E4D0CF8B819C81E3
:1003E000892B41F0CBD78EE291E00E94580AC701D9
:1003F000E2D01EE489819A81892B01F58B819C8151
:10040000892BE1F4BBD784E391E00E94580A80E095
:1004100090E060E070E00E94430B8AE391E028D610
:100420002F960FB6F894DEBF0FBECDBFCF91DF91F0
:100430001F91FF90EF90DF90CF9008958091C201BF
:10044000E82FF0E0E05CFE4F10838F5F8093C201E5
:100450005CDF94CFAAE0B0E0E0E3F2E00C943D1260
:1004600066247724AA24BB2465011E010894211C5C
:10047000311C6CE3462E512CC10161E00E94260C18
:1004800050E3852E58EF952E880E991EC401AA2799
:1004900097FDA095BA2FA80EB91ECA1EDB1EC60175
:1004A000B50120E137E240E050E00E9422127901DC
:1004B0008A01940126193709C901880F991F820FF3
:1004C000931F62E070E00E94ED119B012E0D3F1D15
:1004D000C40164E170E00E94ED11260F371F2D3337
:1004E000310574F48FEF243C38071CF424EC3FEF03
:1004F00002C037FF07C0C901CC966CE370E007C0AB
:100500002CE330E0B201621B730B8CE390E00E949D
:10051000430B8B819C818436910550F48D819E81A3
:100520008436910528F48F8198858436910560F092
:1005300089819A81893C910538F4340189859A85AD
:10054000893C910508F498CF2A96E2E10C9459125F
:100550008C3429F0823541F08234D1F40FC080EB25
:100560009FEF60E570E004C080E590E060EB7FEF16
:100570000E94430B88EC90E00C94CD0B80E590E05A
:1005800060EB7FEF0E94430B82EC91E00C94CD0B6B
:100590000895CF93DF93EC018C818E3421F482E5B2
:1005A000D7DF85E48C83888199810197998388833B
:1005B000DF91CF910895CF93DF93EC018C81853447
:1005C00021F48CE4C5DF8EE48C838A819B810197C2
:1005D0009B838A83DF91CF910895CF93DF93BC01F2
:1005E0008230910510F462E070E0A0913802B09181
:1005F0003902ED01E0E0F0E040E050E021C0888108
:1006000099818617970769F48A819B81309719F041
:100610009383828304C09093390280933802FE0151
:1006200034C06817790738F44115510519F084175B
:10063000950708F4AC01FE018A819B819C01E901C8
:100640002097E9F641155105A9F1CA01861B970BC0
:10065000049708F4BA01E0E0F0E02AC08D919C9183
:10066000119784179507F9F46417750781F41296AA
:100670008D919C911397309719F09383828304C0D6
:100680009093390280933802FD0132964CC0CA0122
:10069000861B970BFD01E80FF91F61937193029779
:1006A0008D939C9340C0FD01828193819C01D9016F
:1006B0001097A1F68091360290913702892B41F470
:1006C0008091BE019091BF019093370280933602D2
:1006D0004091C0015091C1014115510541F44DB700
:1006E0005EB78091BC019091BD01481B590B2091D0
:1006F000360230913702CA01821B930B8617970787
:1007000080F0AB014E5F5F4F8417950750F0420FAA
:10071000531F5093370240933602F901619371934E
:1007200002C0E0E0F0E0CF01DF91CF910895CF93D8
:10073000DF93009709F450C0EC0122971B821A82C4
:10074000A0913802B0913902109709F140E050E0D1
:10075000AC17BD0708F1BB83AA83FE01219131913B
:10076000E20FF31FAE17BF0779F48D919C9111979B
:10077000280F391F2E5F3F4F3983288312968D91A2
:100780009C9113979B838A834115510571F4D093F3
:100790003902C093380220C012968D919C91139714
:1007A000AD01009711F0DC01D3CFFA01D383C283EE
:1007B00021913191E20FF31FCE17DF0769F4888191
:1007C0009981280F391F2E5F3F4FFA013183208313
:1007D0008A819B8193838283DF91CF910895EF92E9
:1007E000FF920F931F93982F803278F487E88093BD
:1007F0007A0080917C0080648076892B80937C00D5
:1008000080917A00806480937A0080917A0086FDDE
:10081000FCCFFB01EE24FF24870180917A008064E5
:1008200080937A0080917A0086FDFCCF80917C00D5
:1008300085FF04C08091790090E004C08091780029
:1008400090917900A0E0B0E0E80EF91E0A1F1B1F8E
:10085000319719F7CB01969587956034710538F477
:100860008E0D9F1D70E00E94D9119B010DC0A0E06C
:10087000B0E0E80EF91E0A1F1B1F9B0140E050E08C
:10088000C801B7010E940012C9011F910F91FF908A
:10089000EF900895A0E0B0E02091A9013091AA0165
:1008A00040E050E0BC01CD010E94AE119B01AC01C3
:1008B00080917C0085FF0BC0B901CA0161587F4F50
:1008C0008F4F9F4F2FEF30E040E050E00AC0B9015A
:1008D000CA0161507E4F8F4F9F4F2FEF33E040E0B2
:1008E00050E00E940012C901089579DFD3CF1F9311
:1008F00010917C0080917C008F7D80937C0086E04D
:100900006AE070E0F2DFAC0115FD04C080917C006C
:100910008F7D03C080917C00806280937C009A016F
:10092000220F331F240F351F2F5F3F4F369527951A
:10093000C9011F910895DBCF08958091B6018823E6
:1009400039F020E08091E1019091E201892B09F0DA
:1009500021E0822F0895A0E0B0E0E1EBF4E00C94F8
:100960004512FC015B01C42E8091E0018823C9F48B
:1009700081E08093E00110926F0083E28093800019
:1009800081E1809381001092820080E197E2909350
:1009900089008093880010928B0010928A00229A1E
:1009A00078941092B601F7FD03C0DD24D39403C000
:1009B000FF772AE0D22E80918100082F10E0087F77
:1009C000107088ECD89EC00111248E179F07C0F4C8
:1009D000EF0187E2E131F80710F0C0E1D7E2BE0194
:1009E0007695679580E090E06058794687469F4FFE
:1009F0009E0140E050E00E9400127901016024C095
:100A000088E2D89E802D1124C82FD0E0CE17DF07B2
:100A100008F4EF01BE01769567959E0140E050E035
:100A20008AE0D81639F480E090E0605E7344814437
:100A30009F4F06C080E090E060537D4E8C4E9F4FEC
:100A40000E940012790102608AE0D81639F4CE01C2
:100A500005966AE070E00E94D911EB0183E0C83E80
:100A6000D80711F4B5010FC0BE0180E090E09501F8
:100A700040E050E00E94AE1128EE33E040E050E04C
:100A80000E942212B90110926F0000938100F0922F
:100A90008900E0928800E0918800F0918900AC2DF7
:100AA000A03108F0AFE080E190E08A1B910902C01C
:100AB000F695E7958A95E2F7F0938B00E0938A002C
:100AC0007093C8016093C70186B38FEF86BB81E046
:100AD00080936F00CDB7DEB7EAE00C946112CF933C
:100AE000DF93EB018F3F11F0442329F488EE93E06C
:100AF000BE0140E067C0813110F420E005C0282F1E
:100B00002051203608F02FE5822F6CE00E94CD1195
:100B1000382F682F70E084EF9FEF689FF001699F86
:100B2000F00D789FF00D1124E20FF11DEC30F1056E
:100B300038F4EC5CFF4F0C9474128CE991E023C004
:100B400080E090E020C085EB91E01DC08FEC91E04B
:100B50001AC08AEE91E017C087E092E014C086E2E6
:100B600092E011C087E492E00EC089E692E00BC0EB
:100B70008EE892E008C085EB92E005C08EED92E031
:100B800002C08AE093E0373071F002C0880F991FED
:100B90006A95E2F7323020F005966AE070E00BC00B
:100BA000805090480BC036E0880F991F3A95E1F7C6
:100BB000029665E070E00E94D911CB01403108F047
:100BC0004FE0BE01C8DEDF91CF9108953091C5019D
:100BD000E091E101F091E201332311F0249101C091
:100BE0002081822F81548A3108F4205E203259F40A
:100BF0008091E1019091E20101969093E20180934E
:100C0000E101019729F7822F0895CF93DF93DEDF6B
:100C1000282FC0E0D0E01CC0CE0153E0880F991F00
:100C20005A95E1F7CC0FDD1FC80FD91F822F9927E6
:100C300087FD9095C80FD91FE0978091E1019091B1
:100C4000E20101969093E2018093E101BFDF282F3A
:100C5000822F80538A3000F3CE01DF91CF91089527
:100C6000A0E0B0E0E6E3F6E00C9443128090AB0124
:100C7000B090C301BB2021F06091C401662399F4B8
:100C8000A090C4010091B0011091B101E090AC01BD
:100C9000F090AD01C091AE01D091AF01C090B20112
:100CA000D090B30103C18FEF70E040E018DF1092E5
:100CB000C401C0C194E0892EBB2404EF11E084E09C
:100CC000E82EF12CC0EDD7E0B4E09B2EAFE0CA2EA9
:100CD000D12C7CDF282F8091E1019091E2010196D7
:100CE0009093E2018093E101263609F498C02736FB
:100CF000CCF42236A1F1233674F42E3361F12F3374
:100D000034F42132B9F22C3309F006C126C0213661
:100D100009F002C11CC1243609F451C025360CF07B
:100D200066C035C02F3609F4BFC0203754F42C36C6
:100D300009F4A5C02D3609F4A5C0273609F0ECC08A
:100D400086C0243709F4CEC0263709F4E2C0223722
:100D500009F0E2C0ADC08394BCCF8A94BACFA09210
:100D6000C401B092C3011093B1010093B001F0929D
:100D7000AD01E092AC01D093AF01C093AE0190926F
:100D8000AB01D092B301C092B2012BE0F7C0A092A8
:100D9000C401B092C3011093B1010093B001F0926D
:100DA000AD01E092AC01D093AF01C093AE0190923F
:100DB000AB01D092B301C092B20120E0DFC0A0929B
:100DC000C401B092C3011093B1010093B001F0923D
:100DD000AD01E092AC01D093AF01C093AE0190920F
:100DE000AB01D092B301C092B20122E0C7C0A09281
:100DF000C401B092C3011093B1010093B001F0920D
:100E0000AD01E092AC01D093AF01C093AE019092DE
:100E1000AB01D092B301C092B20124E0AFC0A09266
:100E2000C401B092C3011093B1010093B001F092DC
:100E3000AD01E092AC01D093AF01C093AE019092AE
:100E4000AB01D092B301C092B20125E097C0A0924D
:100E5000C401B092C3011093B1010093B001F092AC
:100E6000AD01E092AC01D093AF01C093AE0190927E
:100E7000AB01D092B301C092B20127E07FC0C5DEC2
:100E80007C0141C0A3DE8C3611F4BB2403C0AA242C
:100E9000BB24B3948091E1019091E201019690937B
:100EA000E2018093E10115CFB0DE882E982C11CF9E
:100EB000A092C401B092C3011093B1010093B0019C
:100EC000F092AD01E092AC01D093AF01C093AE01BE
:100ED0009092AB01D092B301C092B20120E0FF2406
:100EE000F3944DC092DEBC0180EC9DE50E94D911C7
:100EF000CB01EB01F3E0CC0FDD1FFA95E1F7880F92
:100F0000991FC80FD91FCE01B7010E94D9118B01BB
:100F1000E0CE7BDE6C01DDCEA092C401B092C301B5
:100F20001093B1010093B001F092AD01E092AC01D9
:100F3000D093AF01C093AE019092AB01D092B301B8
:100F4000C092B2011092E2011092E10173C0A0922E
:100F5000C401B092C3011093B1010093B001F092AB
:100F6000AD01E092AC01D093AF01C093AE0190927D
:100F7000AB01D092B301C092B20129E0FF248CE012
:100F8000889EC0011124E22EE80E0AC08091E10182
:100F90009091E20101969093E2018093E101E39444
:100FA00015DE8B3299F3833289F30BC08091E10116
:100FB0009091E20101969093E2018093E101EA941D
:100FC00005DE8D3299F3C091B001D091B10181530A
:100FD000883050F40091AE011091AF0116DEBC01D3
:100FE000C8010E94D911EB018E010BC08091E10173
:100FF0009091E20101969093E2018093E101C00F8C
:10100000D11F16950795E2DD8E3281F38091C301E1
:10101000882339F0CE01969587958093C401C81B2B
:10102000D109FF2011F0EE24EA948E2DBE014091EB
:10103000B20155DDCDB7DEB7ECE00C945F12109233
:101040006F009093E2018093E10181E08093C501FC
:101050001092C40105CEF3CF089510926F009093C3
:10106000E2018093E1011092C5011092C401F8CD14
:10107000F4CF08951F920F920FB60F9211242F9361
:101080003F934F935F936F937F938F939F93AF9310
:10109000BF93EF93FF938091C7019091C80101978F
:1010A0009093C8018093C701019609F510926F00D3
:1010B000789480918100887F81608093810080E1B5
:1010C00097E2909389008093880010928B00109291
:1010D0008A0081E08093B6018091E1019091E20164
:1010E000892B29F08091C601882309F4B9DDFF918D
:1010F000EF91BF91AF919F918F917F916F915F9190
:101100004F913F912F910F900FBE0F901F90189508
:10111000EF92FF920F931F936AB157985A98289AAB
:10112000E090CD01F090CE010091CF011091D0015F
:1011300020E030E041E050E0CA016F9364E06A953E
:10114000F1F76F910197C9F75C9ACA016F9364E058
:101150006A95F1F76F910197C9F789B15C98FA0127
:101160006F9364E06A95F1F76F913197C9F75C9AD4
:10117000FA016F9364E06A95F1F76F913197C9F7BF
:101180005C9887FF0BC02C5F3F4FC901A0E0B0E027
:101190008E159F05A007B10708F4CECF6AB91F913D
:1011A0000F91FF90EF90089565B190E0AC01417010
:1011B0005070440F551F9C012670307053E0220F71
:1011C000331F5A95E1F7422B6D7C462B45B92BB165
:1011D0008870907034E0880F991F3A95E1F72F7767
:1011E000282B2BB95C9A81E090E0FC016F9364E0BE
:1011F0006A95F1F76F913197C9F75C986F9364E046
:101200006A95F1F76F910197C9F7089580E197E228
:10121000A0E0B0E08093CD019093CE01A093CF01E8
:10122000B093D001529A209A549A8EE190E0C4D2A1
:1012300083E067D186E090E0BFD283E062D182E0B4
:1012400090E0BAD283E05DD182E090E0B5D282E056
:1012500058D182E090E0B0D288E241D088E03FD01F
:1012600081E03DD086E03BD08CE039C08091D10157
:10127000882321F481E08093D101C8CF0895BF92E3
:10128000CF92DF92EF92FF920F931F93082F162FAA
:10129000F42EECDF3DDFB4B0C5B0DAB0EBB0289887
:1012A000112311F05A9A01C05A9884B1826384B90B
:1012B000579A81E0F81621F0802F82958F7074DFA5
:1012C000802F8F7071DFDAB8EBB8B4B8C5B81F9152
:1012D0000F91FF90EF90DF90CF90BF90089560E066
:1012E00042E0CDCFA4E0B0E0E8E7F9E00C944B1287
:1012F000182F062F80E8898380EC8A8384E98B830A
:1013000084ED8C83FE01E60FF11D8181810FE7DF03
:101310001093CC010093CB012496E4E00C94671267
:10132000E1CF089581E0DBDF8091C9019091CA018E
:10133000892B19F160E070E208C0E091C901F091D9
:10134000CA01E40FF51F70836F5F462F50E0809154
:10135000B40190E001972091B50130E0FC01E29FDB
:10136000C001E39F900DF29F900D1124481759077B
:1013700024F31092CC011092CB010895D3CF08959D
:1013800061E042E07CCF6F927F928F929F92AF920A
:10139000BF92CF92DF92FF920F93DF93CF93CDB79F
:1013A000DEB72A970FB6F894DEBF0FBECDBF5B0144
:1013B0006C010AE03E010894611C711CFA2CC60104
:1013C000B5012AE030E040E050E00E940012C9017F
:1013D000DA015C016D0101504301800E911C80E334
:1013E000F80EC601B5012AE030E040E050E0B6D783
:1013F000F61AF401F082A114B104C104D104F1F68B
:1014000007C0F601E00FF11D8081BADF0F5F04C055
:101410006E010894C11CD11C0A3098F32A960FB6AD
:10142000F894DEBF0FBECDBFCF91DF910F91FF903B
:10143000DF90CF90BF90AF909F908F907F906F90F4
:101440000895EF92FF920F931F937B018C0197FFFA
:101450000AC010950095F094E094E11CF11C011D68
:10146000111D8DE28DDFC801B7018DDF1F910F9136
:10147000FF90EF900895E5CF0895CF93DF93EC01AF
:1014800002C07EDF2196FE0184918823D1F7DF918F
:10149000CF910895F2CF0895CF93DF93EC0102C06E
:1014A00021966EDF88818823D9F7DF91CF91089547
:1014B000F3CF089565CF0895EF92FF920F931F9396
:1014C000CF93DF937C01062F10E0F3E0000F111F94
:1014D000FA95E1F7C0E0D0E09E01200F822F8064F2
:1014E000FEDEF701EC0FFD1FE4918E2F49DF219600
:1014F000C830D10589F7CDB7DEB7E6E0E6C7DCCF67
:10150000089560E041E0BBCE282F883068F481E088
:1015100090E002C0880F991F2A95E2F7282FAAE2CF
:10152000B0E0EBE2F0E029C08E3080F430E02850EB
:10153000304081E090E002C0880F991F2A95E2F7C1
:10154000282FA4E2B0E0E5E2F0E017C0853130F0EA
:1015500020E0A0E0B0E0E0E0F0E00FC030E02E508E
:10156000304081E090E002C0880F991F2A95E2F791
:10157000282FA7E2B0E0E8E2F0E06F3F19F48081A5
:10158000822709C0662319F08081822B04C09081D4
:10159000822F8095892380838C91822B8C93089550
:1015A000E0EBF0E083EF8083808184BDE1EBF0E04D
:1015B00082E08083808185BDE4EBF0E01082808151
:1015C000E3EBF0E08083808188BD88B587BD86E04D
:1015D00060E09ADF85E060E097DF8BE060E094DF19
:1015E00083E060E091CF8091D201882321F481E0F3
:1015F0008093D201D5CF0895CF93DF93EC01F3DF31
:10160000D7FD02C020E004C0D095C195DF4F21E096
:10161000CE01CF3FD10519F014F08FEF90E02223D7
:1016200019F018BC87BD02C088BD17BCDF91CF91EF
:101630000895CF93DF93EC01D6DFD7FD02C020E001
:1016400004C0D095C195DF4F21E0CE01CF3FD10539
:1016500019F014F08FEF90E0222329F01092B400DB
:101660008093B30004C08093B4001092B300DF9164
:10167000CF9108950F931F938B01BEDFC801D9DF6F
:101680001F910F910895F6CF0895282F8091D301CF
:10169000882391F481E08093D30184B18D7C84B957
:1016A00085B1826385B985E090E06F9364E06A95C7
:1016B000F1F76F910197C9F783B18095822308955F
:1016C0001F93CF93DF93182F8091D301882391F438
:1016D00081E08093D30184B18D7C84B985B182632C
:1016E00085B985E090E06F9364E06A95F1F76F91BA
:1016F0000197C9F7C12FD0E083B190E08C239D23DF
:10170000892BD1F38AE090E057D083B190E08C230D
:101710009D23892B89F383B18123DF91CF911F9181
:101720000895CECF08952F928F939F932FB68091D7
:10173000E4019091E50101968093E4019093E50125
:1017400090E08091E601891F8093E6019091EC0181
:101750009C5F9093EC018091EB0180519742C0F027
:101760009093EC018093EB018091E7019091E80167
:1017700001968093E7019093E80190E08091E90160
:10178000891F8093E9018091EA01891F8093EA0112
:101790002FBE9F918F912F90189528EE33E009C0AE
:1017A000F9016F9364E06A95F1F76F913197C9F78A
:1017B00001970097A9F7089528EE33E009C0F901D1
:1017C0006F9364E06A95F1F76F913197C9F70197CC
:1017D0000097A9F70895A0E7B0E08C918E7F8C93D5
:1017E000E0EBF0E0808183608083E1EBF0E08081DA
:1017F000807F8083808182608083B89A8C918160B1
:101800008C93789408958091ED01882321F481E0F0
:101810008093ED01E0CF0895F6DFE0E7F0E080810E
:101820008E7F80831092E7011092E8011092E90107
:101830001092EA011092EC011092EB01808181601C
:101840008083089508958EEE91E04BC49C01462F4D
:101850008EEE91E0B90120E0B8C3682F8EEE91E0E2
:101860005DC50F93DF93CF9300D000D00F92CDB71B
:10187000DEB79C01962FDE011196E7EBF1E085E0E3
:1018800001900D928150E1F7BE016F5F7F4F992368
:1018900029F08EEE91E045E00FEF04C08EEE91E06E
:1018A00045E003E179D08EEE91E05ED0B5DF0F9098
:1018B0000F900F900F900F90CF91DF910F9108959F
:1018C00060E0CFCFFC011182108213821282158258
:1018D000148217821682613118F080E1808701C07E
:1018E0006087208B483078F481E090E002C0880F58
:1018F000991F4A95E2F781878BE290E09387828770
:101900008AE290E029C04E3098F4242F30E028502D
:10191000304081E090E002C0880F991F2A95E2F7DD
:10192000818785E290E09387828784E290E014C00B
:101930004431A8F4242F30E02E50304081E090E074
:1019400002C0880F991F2A95E2F7818788E290E00C
:101950009387828787E290E095878487089515862C
:101960001486138612860895DC011C96ED91FC9175
:101970001D97309781F0808119969C911997892B3A
:1019800080831A96ED91FC911B97908119968C910A
:101990008095892380830895A0E0B0E0E1EDFCE02C
:1019A00070C5EC016B01642F7901402F20E08ADFC4
:1019B000CE018F5B9F4FFC011082FE01EE5BFF4F5B
:1019C0001082DE01AD5BBF4F1C92FF86EE8630E0D9
:1019D00041E050E07F0166E2662E712C8C0123E22B
:1019E000822E912CBD0199E2A92EB12C58C0A32FB3
:1019F000B0E0F601EA0FFB1F80818830C0F4FA01E5
:101A000002C0EE0FFF1F8A95E2F7CF01FE01EA0F39
:101A1000FB1F818BFB012081282B2083AA0FBB1F7A
:101A2000AC0FBD1F9296BC92AE92919737C08E308C
:101A3000D0F490E00897FA0102C0EE0FFF1F8A95DC
:101A4000E2F7CF01FE01EA0FFB1F818BF801208135
:101A5000282B2083AA0FBB1FAC0FBD1F92969C9210
:101A60008E9291971BC08431C8F490E00E97FA01D2
:101A700002C0EE0FFF1F8A95E2F7CF01FE01EA0FC9
:101A8000FB1F818BF7012081282B2083AA0FBB1F0E
:101A9000AC0FBD1F92967C926E9291973F5F8885A6
:101AA000381708F4A4CFCDB7DEB7EEE006C5A0E046
:101AB000B0E0ECE5FDE0E7C4EC015B01CF5BDF4F9C
:101AC0004991A9918880C354D04090E009C0E92F82
:101AD000F0E0EE0FFF1FEA0DFB1D118210829F5FE9
:101AE00088859817A0F384B1CF5BDF4F3991832BA2
:101AF00084B987B12991822B87B98AB19881C3545F
:101B0000D040892B8AB985B1832B85B988B1822BC6
:101B100088B98BB1892B8BB9EAE0F0E06F9364E070
:101B20006A95F1F76F913197C9F784B130958323A6
:101B300084B987B12095822387B98AB1909589238A
:101B40008AB985B1382335B988B1282328B98BB132
:101B500098239BB99090B000C090B1008091B000E4
:101B600083608093B00082E08093B100D090B20097
:101B700060E070E03AC05091B2005D19650F711DD0
:101B8000E3B0E41609F04FC0F6B0FA1609F04BC006
:101B900089B1881509F047C025C0A42FB0E09D0188
:101BA000220F331F8501020F131FF80180819181DD
:101BB000892BA1F42C0F3D1FF90181A192A1FC01F9
:101BC000208130E0AC0FBD1F51968C9190E028230E
:101BD0003923232B19F4F801718360834F5F8885C3
:101BE0004817D8F2D50E4E2DAF2D8E859F856817DC
:101BF000790708F29092B000C092B10020E00FC0C7
:101C0000E22FF0E0EE0FFF1FEA0DFB1D80819181B6
:101C1000892B21F48E859F85918380832F5F888512
:101C2000281770F305C0E3B0F6B089B040E0D7CF15
:101C3000CDB7DEB7ECE043C4A0E0B0E0E1E2FEE007
:101C400026C4EC018B01D0907C00E0907A00C7B0F4
:101C5000F8B080917A0086FDFCCF90E009C0E92FB2
:101C6000F0E0EE0FFF1FE00FF11F118210829F5F67
:101C700088859817A0F397B18AA18095982397B982
:101C800098B1892388B987E880937A0050E024C00E
:101C9000FE01E40FF11D818980937C0080917A0020
:101CA000806480937A0080917A0086FDFCCFE42FD7
:101CB000F0E0EE0FFF1FE00FF11F20917800309150
:101CC000790080819181820F931F918380834F5F80
:101CD00088854817E8F25F5F89A1581710F040E047
:101CE00016C040E0F5CFE42FF0E0EE0FFF1FE00F4D
:101CF000F11F69A1862F90E095958795208131810C
:101D0000820F931F70E055D3718360834F5F888586
:101D1000481748F3D0927C00E0927A00F8B8C7B830
:101D2000CDB7DEB7E8E0CFC3A0E2B0E0E9E9FEE07E
:101D3000ADC38C017B01D42E842F81508230B0F44E
:101D4000D8011C96ED91FC911D97309779F0808118
:101D500019969C911997892B80831A96ED91FC9185
:101D60001B97808119969C91892B8083F80180892B
:101D7000882339F5C02EB12EC801B70198DED801ED
:101D80001C96ED91FC911D97309781F080811996FA
:101D90009C911997892B80831A96ED91FC911B9742
:101DA000908119968C91809589238083B2E0DB160F
:101DB00009F050C08C2D9B2DBE016F5F7F4F77DEE9
:101DC00025C0C02EB12EC801B70136DFD8011C9640
:101DD000ED91FC911D97309781F0808119969C912F
:101DE0001997892B80831A96ED91FC911B9790810E
:101DF00019968C91809589238083B2E0DB1651F58A
:101E00008C2D9B2DBE016F5F7F4F16DF40E0BE0122
:101E10006F5F7F4F1AC0E42FF0E0EE0FFF1F6701E6
:101E2000CE0EDF1EE60FF71FD8011E962D913C91B6
:101E30001F9780819181281B390BF6018081918148
:101E4000820F931F918380834F5FD80118968C91E6
:101E5000481708F3A096E9E035C3A0E0B0E0E2E35C
:101E6000FFE012C3EC01162F072F942E22E0421739
:101E700011F0442351F48C819D81892B09F4A1C078
:101E80008E819F81892B09F49CC0892D81508230DD
:101E900050F488819981892B09F493C08A819B81B0
:101EA000892B09F48EC0CE01612F702F492D3CDFA4
:101EB000812F902F9C015901CC24DD2400E010E0FB
:101EC0007AC081E0981669F4EA81FB81E00FF11F86
:101ED00020813181E881F981E00FF11F408151813A
:101EE0003DC0AC81BD81992059F4EE81FF81E00FA6
:101EF000F11F20813181A00FB11F4D915C912EC047
:101F0000A00FB11F8D919C91E881F981E00FF11F25
:101F100020813181EE85FF858217930710F4AF0190
:101F200005C0A9014E0F5F1F481B590BEE81FF81B1
:101F3000E00FF11F60817181EA81FB81E00FF11FE9
:101F400080819181EE85FF856817790710F49F01E4
:101F500005C09C012E0F3F1F261B370B7901E41A89
:101F6000F50AF1F0F5016081718180E090E09A015D
:101F700040E050E0621B730B840B950B28EE33E0BE
:101F800040E050E0EBD1970140E050E05BD2C90166
:101F9000F3E0293E3F0714F088EE93E097FF02C07C
:101FA00080E090E0F501819391935F010894C11C5A
:101FB000D11C0E5F1F4F888590E0C816D9060CF41F
:101FC00080CFCDB7DEB7EBE07BC2A4E0B0E0EAEEB5
:101FD000FFE053C28C01F62EE72E2A833EDFD801A4
:101FE0001896BC91B9832F2D3E2DC9018C01552423
:101FF00044246624772443011C821B82AA24BB2428
:102000006501B8EE2B2EB3E03B2E31C0F801E08025
:10201000F180FA81FF2321F091012E193F09790106
:1020200039ECE316F10414F04424439483E3E816F6
:10203000F10494F0B701882777FD8095982FA601C9
:1020400095018CD1660E771E881E991EAB81BC81CE
:10205000AE0DBF1DBC83AB83539488EE93E0A0E02C
:10206000B0E0A80EB91ECA1EDB1E0E5F1F4F99817D
:10207000591660F2442021F5692F70E084EF91E059
:10208000DC016A9FC0016B9F900D7A9F900D112417
:10209000845F914020913202309133022817390732
:1020A0001CF440E050E019C088EE93E0689FA00166
:1020B000699F500D789F500D1124485E53400DC00C
:1020C000EB81FC819F0140E050E0C401B30198D155
:1020D000A9013093330220933202CA012496E2E12F
:1020E000E8C1CF93DF93EC018A819B81009711F0C7
:1020F0000E9497038E819F81009711F00E949703A1
:1021000088819981009711F00E9497038C819D81AD
:10211000009711F00E949703DF91CF910895A3E6F5
:10212000B0E0E4E9F0E1A9C17C015B016A01A2969B
:102130002FAFA297DA018D919C91892B11F5F701B0
:10214000808590E0880F991F0E94ED02D6018D9343
:102150009C93009709F4DEC020E030E00CC0C90178
:10216000880F991FD601ED91FC91E80FF91F11829C
:1021700010822F5F3F4FF701808590E028173907C5
:1021800074F3D5018D919C91892B89F000E010E0CA
:102190003E010894611C711C41E4242E312C2C0E4C
:1021A0003D1E31E2432E512C4C0E5D1E28C0F7011E
:1021B000808590E0880F991F0E94ED02D5018D93D4
:1021C0009C93009709F4A6C020E030E011C0C9013B
:1021D000880F991FD501ED91FC91E80FF91FD701E8
:1021E0001E968D919C911F97918380832F5F3F4F07
:1021F000F701808590E0281739074CF3C7CFC70156
:10220000B301A2964FADA2978FDDD70118968C919E
:10221000882E9924A101F301A4965FAE4EAEA49737
:1022200060E070E034C00115110559F0A496AEAD20
:10223000BFADA4972D913C918081918128173907DA
:1022400058F480819181A496AEADBFADA4978D93D3
:102250009C930115110541F0DA012D913C9180818B
:1022600091818217930728F480819181DA018D93FF
:102270009C936F5F7F4F4E5F5F4F3296A4968EADFB
:102280009FADA4970296A4969FAF8EAFA4976815B2
:1022900079054CF20F5F1F4F0A30110509F0AFCFDF
:1022A00040E050E020E030E08E010F5B1F4FBE01A8
:1022B0006F5D7F4F28C0F801E20FF31F808091808F
:1022C000F601A081B181A20FB31F8D919C9111974E
:1022D0008815990510F48D929C92FB01E20FF31F73
:1022E00080809180F501A081B181A20FB31F8D91F3
:1022F0009C9111978816990610F48D929C924F5FCD
:102300005F4F2E5F3F4FD70118968C9190E0481792
:1023100059078CF2CD59DF4FE2E1CBC01F93CF9329
:10232000DF93EC01162F862F8150823038F4AE01F6
:102330004E5F5F4FCE01BE0121E0F1DE123011F0A1
:10234000112341F4AE014A5F5F4FCE012496BE01D6
:1023500020E0E5DEDF91CF911F910895629FD001CB
:10236000739FF001829FE00DF11D649FE00DF11D50
:10237000929FF00D839FF00D749FF00D659FF00DFF
:102380009927729FB00DE11DF91F639FB00DE11DEC
:10239000F91FBD01CF0111240895991B79E004C0F4
:1023A000991F961708F0961B881F7A95C9F7809594
:1023B0000895AA1BBB1B51E107C0AA1FBB1FA6178C
:1023C000B70710F0A61BB70B881F991F5A95A9F7DE
:1023D00080959095BC01CD01089597FB092E0726A5
:1023E0000AD077FD04D0E5DF06D000201AF47095FE
:1023F00061957F4F0895F6F7909581959F4F0895C9
:10240000A1E21A2EAA1BBB1BFD010DC0AA1FBB1FF8
:10241000EE1FFF1FA217B307E407F50720F0A21B6A
:10242000B30BE40BF50B661F771F881F991F1A94D7
:1024300069F760957095809590959B01AC01BD0101
:10244000CF01089597FB092E05260ED057FD04D025
:10245000D7DF0AD0001C38F450954095309521956F
:102460003F4F4F4F5F4F0895F6F7909580957095C9
:1024700061957F4F8F4F9F4F08952F923F924F92BC
:102480005F926F927F928F929F92AF92BF92CF9204
:10249000DF92EF92FF920F931F93CF93DF93CDB70D
:1024A000DEB7CA1BDB0B0FB6F894DEBF0FBECDBF85
:1024B00009942A88398848885F846E847D848C8456
:1024C0009B84AA84B984C884DF80EE80FD800C815F
:1024D0001B81AA81B981CE0FD11D0FB6F894DEBF42
:1024E0000FBECDBFED010895EE0FFF1F0590F491D3
:1024F000E02D099410E0C4ECD0E003C0FE01F6DF4B
:0C2500002296C63CD107D1F7F894FFCF1B
:10250C006D56005072657373204200476F21002096
:10251C000000010203040506FF666F6C6C6F770008
:10252C00617070726F6163680045415354004E4F87
:10253C0052544800474F414C21003E3E613332001B
:10254C00000000000000000000000000000000007F
:10255C00000000000000000000000000000000006F
:10256C00000000000000000000000000000000005F
:10257C00000000000000000000000000000000004F
:10258C00000000000000000000000000000000003F
:10259C00000000000000000000000000000000002F
:1025AC0000000000020003004E8813040400D00752
:1025BC00F4010F000208010E0F10111220003A0254
:0225CC0000000D
:00000001FF
