:1000000033C000004CC000004AC0000048C00000DF
:1000100046C0000044C0000042C0000040C00000D4
:100020003EC00000A8C100003AC0000038C0000077
:1000300036C0000034C0000032C0000030C00000F4
:100040002EC000002CC000002AC0000028C0000004
:1000500026C0000024C0000022C0000020C0000014
:100060001EC000001CC0000011241FBECFEFD8E04E
:10007000DEBFCDBF11E0A0E0B1E0EAE2F4E002C0F3
:1000800005900D92A030B107D9F711E0A0E0B1E0E2
:1000900001C01D92A931B107E1F702D0C4C1B0CFB0
:1000A00003C084E690E0A1D182E017D18823C9F390
:1000B00082E05FD184EF91E098D182E56AE570E05B
:1000C00014D080E090E060E070E005D188EE93E02D
:1000D0008CD18CE46AE570E008D080E090E060E0CC
:1000E00070E0F9D088EE93E0E7CF8C3429F08235C8
:1000F00041F08234B1F40DC084EC9FEF6CE370E00A
:1001000004C08CE390E064EC7FEFE5D08AEE91E0F0
:100110006CC18DE290E063ED7FEFDDD084ED93E084
:1001200064C108950F931F938C018CE46AE570E01D
:10013000DCDFC801B801CFD01F910F9108950F9354
:100140001F938C0182E56AE570E0CFDFC801B8013A
:10015000C2D01F910F910895282F883068F481E054
:1001600090E002C0880F991F2A95E2F7282FAAE293
:10017000B0E0EBE2F0E029C08E3080F430E02850AF
:10018000304081E090E002C0880F991F2A95E2F785
:10019000282FA4E2B0E0E5E2F0E017C0853130F0AE
:1001A00020E0A0E0B0E0E0E0F0E00FC030E02E5052
:1001B000304081E090E002C0880F991F2A95E2F755
:1001C000282FA7E2B0E0E8E2F0E06F3F19F4808169
:1001D000822709C0662319F08081822B04C0908198
:1001E000822F8095892380838C91822B8C93089514
:1001F000E0EBF0E083EF8083808184BDE1EBF0E011
:1002000082E08083808185BDE4EBF0E01082808114
:10021000E3EBF0E08083808188BD88B587BD86E010
:1002200060E09ADF85E060E097DF8BE060E094DFDC
:1002300083E060E091CF80910001882321F481E088
:1002400080930001D5CF0895CF93DF93EC01F3DFC6
:10025000D7FD02C020E004C0D095C195DF4F21E05A
:10026000CE01CF3FD10519F014F08FEF90E022239B
:1002700019F018BC87BD02C088BD17BCDF91CF91B3
:100280000895CF93DF93EC01D6DFD7FD02C020E0C5
:1002900004C0D095C195DF4F21E0CE01CF3FD105FD
:1002A00019F014F08FEF90E0222329F01092B4009F
:1002B0008093B30004C08093B4001092B300DF9128
:1002C000CF9108950F931F938B01BEDFC801D9DF33
:1002D0001F910F910895F6CF0895282F8091010165
:1002E000882391F481E08093010184B18D7C84B9ED
:1002F00085B1826385B985E090E06F9364E06A958B
:10030000F1F76F910197C9F783B180958223089522
:100310001F93CF93DF93182F80910101882391F4CD
:1003200081E08093010184B18D7C84B985B18263C1
:1003300085B985E090E06F9364E06A95F1F76F917D
:100340000197C9F7C12FD0E083B190E08C239D23A2
:10035000892BD1F38AE090E057D083B190E08C23D1
:100360009D23892B89F383B18123DF91CF911F9145
:100370000895CECF08952F928F939F932FB680919B
:100380000F0190911001019680930F01909310013D
:1003900090E080911101891F8093110190911701C4
:1003A0009C5F909317018091160180519742C0F095
:1003B000909317018093160180911201909113017F
:1003C0000196809312019093130190E080911401A3
:1003D000891F8093140180911501891F8093150155
:1003E0002FBE9F918F912F90189528EE33E009C072
:1003F000F9016F9364E06A95F1F76F913197C9F74E
:1004000001970097A9F7089528EE33E009C0F90194
:100410006F9364E06A95F1F76F913197C9F701978F
:0A0420000097A9F70895F894FFCFA4
:00000001FF
