:1000000049C0000063C0000061C000005FC0000084
:100010005DC000005BC0000059C0000057C0000078
:1000200055C000000EC7000051C000004FC00000C6
:100030004DC000008CC5000049C0000047C0000052
:1000400045C0000043C0000041C000003FC00000A8
:100050003DC000003BC0000039C0000037C00000B8
:1000600035C0000033C000001B0321032403270315
:100070002A032D0330033303360339033C033F03C4
:100080003E6733323E3E633332003E3E6333323EA0
:100090006733320011241FBECFEFD8E0DEBFCDBFE3
:1000A00011E0A0E0B1E0E2EFFAE102C005900D92AC
:1000B000A831B107D9F711E0A8E1B1E001C01D9264
:1000C000A234B107E1F74BD00C94770D99CFA8E09B
:1000D000B0E0EDE6F0E00C94480D80E890E035D516
:1000E000DE011196E0E0F1E088E001900D92815090
:1000F000E1F7CE01019668E040ED57E022E00E9472
:100100009E0C82E09CD682E062D680E293E0D3D659
:100110000CEE1FEF0832110528F08CE390E064EC40
:100120007FEF04C084EC9FEF6CE370E01DD681E0AC
:100130000E94980C84E190E0BED60F5F1F4F0E33F3
:10014000110541F780E090E060E070E00DD682E0BC
:1001500076D682E03CD62896E4E00C94640DA0E1CB
:10016000B0E0E5EBF0E00C94480DB1DF8E010F5FDD
:100170001F4FC80161E00E94700BAC018F81988510
:1001800029813A81820F931F29853A85820F931F17
:100190002F853889820F931F805A9F4071F480E029
:1001A00090E060E070E0E0D58AE890E0CED480E0B6
:1001B00090E060E070E0D8D549C083E0483E580741
:1001C00028F480E090E06AEA70E03EC027E0403D1D
:1001D000520718F48CE390E00DC08BE0483B5807C1
:1001E00018F48AE590E006C02CE0443E520728F45B
:1001F00082E890E066E970E027C08EE04437580757
:1002000028F480EA90E060EA70E01EC02FE0403AF7
:10021000520728F486E990E062E870E015C083E1B7
:100220004838580728F486E990E06AE570E00CC089
:100230004057574128F486E990E06CE370E004C031
:100240008AEA90E060E070E08FD593CFFFCFCF9344
:10025000DF93BC018230910510F462E070E0A09160
:100260004001B0914101ED01E0E0F0E040E050E0FC
:1002700021C0888199818617970769F48A819B81BB
:10028000309719F09383828304C090934101809347
:100290004001FE0134C06817790738F44115510553
:1002A00019F08417950708F4AC01FE018A819B813F
:1002B0009C01E9012097E9F641155105A9F1CA0110
:1002C000861B970B049708F4BA01E0E0F0E02AC01F
:1002D0008D919C91119784179507F9F46417750710
:1002E00081F412968D919C911397309719F0938316
:1002F000828304C09093410180934001FD013296B6
:100300004CC0CA01861B970BFD01E80FF91F6193D2
:10031000719302978D939C9340C0FD0182819381DC
:100320009C01D9011097A1F680913E0190913F0167
:10033000892B41F4809114019091150190933F0114
:1003400080933E01409116015091170141155105CE
:1003500041F44DB75EB78091120190911301481B93
:10036000590B20913E0130913F01CA01821B930B32
:100370008617970780F0AB014E5F5F4F8417950794
:1003800050F0420F531F50933F0140933E01F9013B
:100390006193719302C0E0E0F0E0CF01DF91CF9173
:1003A0000895CF93DF93009709F450C0EC01229792
:1003B0001B821A82A0914001B0914101109709F16E
:1003C00040E050E0AC17BD0708F1BB83AA83FE01F3
:1003D00021913191E20FF31FAE17BF0779F48D9190
:1003E0009C911197280F391F2E5F3F4F3983288327
:1003F00012968D919C9113979B838A834115510589
:1004000071F4D0934101C093400120C012968D91A8
:100410009C911397AD01009711F0DC01D3CFFA0145
:10042000D383C28321913191E20FF31FCE17DF07EF
:1004300069F488819981280F391F2E5F3F4FFA0197
:10044000318320838A819B8193838283DF91CF9143
:100450000895A0E0B0E0EFE2F2E00C94420DFC0160
:100460005B01C42E80912C018823C9F481E0809324
:100470002C0110926F0083E28093800081E18093D1
:1004800081001092820080E197E29093890080932E
:10049000880010928B0010928A00229A7894109211
:1004A0001101F7FD03C0DD24D39403C0FF772AE0D8
:1004B000D22E80918100082F10E0087F107088EC08
:1004C000D89EC00111248E179F07C0F4EF0187E268
:1004D000E131F80710F0C0E1D7E2BE0176956795EB
:1004E00080E090E06058794687469F4F9E0140E04B
:1004F00050E00E94FD0C7901016024C088E2D89E82
:10050000802D1124C82FD0E0CE17DF0708F4EF01AB
:10051000BE01769567959E0140E050E08AE0D816CE
:1005200039F480E090E0605E734481449F4F06C0E0
:1005300080E090E060537D4E8C4E9F4F0E94FD0CFA
:10054000790102608AE0D81639F4CE0105966AE096
:1005500070E00E94E90CEB0183E0C83ED80711F47B
:10056000B5010FC0BE0180E090E0950140E050E091
:100570000E94BE0C28EE33E040E050E00E941F0DC8
:10058000B90110926F0000938100F0928900E0920F
:100590008800E0918800F0918900AC2DA03108F02E
:1005A000AFE080E190E08A1B910902C0F695E795E3
:1005B0008A95E2F7F0938B00E0938A0070931D0117
:1005C00060931C0186B38FEF86BB81E080936F0040
:1005D000CDB7DEB7EAE00C945E0DCF93DF93EB016D
:1005E0008F3F11F0442329F488EE93E0BE0140E0F0
:1005F00067C0813110F420E005C0282F205120363B
:1006000008F02FE5822F6CE00E94DD0C382F682F58
:1006100070E084EF9FEF689FF001699FF00D789F75
:10062000F00D1124E20FF11DEC30F10538F4EC5C13
:10063000FF4F0C94710D8CE991E023C080E090E0B5
:1006400020C085EB91E01DC08FEC91E01AC08AEECE
:1006500091E017C087E092E014C086E292E011C0FA
:1006600087E492E00EC089E692E00BC08EE892E04B
:1006700008C085EB92E005C08EED92E002C08AE0F2
:1006800093E0373071F002C0880F991F6A95E2F746
:10069000323020F005966AE070E00BC08050904840
:1006A0000BC036E0880F991F3A95E1F7029665E096
:1006B00070E00E94E90CCB01403108F04FE0BE0130
:1006C000C8DEDF91CF91089530911A01E0912D019C
:1006D000F0912E01332311F0249101C02081822F4B
:1006E00081548A3108F4205E203259F480912D0122
:1006F00090912E01019690932E0180932D010197E8
:1007000029F7822F0895CF93DF93DEDF282FC0E0F3
:10071000D0E01CC0CE0153E0880F991F5A95E1F735
:10072000CC0FDD1FC80FD91F822F992787FD909509
:10073000C80FD91FE09780912D0190912E0101964D
:1007400090932E0180932D01BFDF282F822F80539D
:100750008A3000F3CE01DF91CF910895A0E0B0E0A0
:10076000E4EBF3E00C94400D80900801B090180188
:10077000BB2021F060911901662399F4A090190122
:1007800000910D0110910E01E0900901F0900A0115
:10079000C0910B01D0910C01C0900F01D0901001BD
:1007A00003C18FEF70E040E018DF10921901BDC166
:1007B00094E0892EBB2404EF11E084E0E82EF12CB4
:1007C000C0EDD7E0B4E09B2EAFE0CA2ED12C7CDF89
:1007D000282F80912D0190912E01019690932E014A
:1007E00080932D01263609F498C02736CCF42236A2
:1007F000A1F1233674F42E3361F12F3334F4213216
:10080000B9F22C3309F004C126C0213609F000C129
:100810001AC1243609F451C025360CF066C035C023
:100820002F3609F4BFC0203754F42C3609F4A5C084
:100830002D3609F4A5C0273609F0EAC086C0243752
:1008400009F4CEC0263709F4E0C0223709F0E0C031
:10085000ADC08394BCCF8A94BACFA0921901B09254
:10086000180110930E0100930D01F0920A01E0921D
:100870000901D0930C01C0930B0190920801D09212
:100880001001C0920F012BE0F5C0A0921901B092A7
:10089000180110930E0100930D01F0920A01E092ED
:1008A0000901D0930C01C0930B0190920801D092E2
:1008B0001001C0920F0120E0DDC0A0921901B0929A
:1008C000180110930E0100930D01F0920A01E092BD
:1008D0000901D0930C01C0930B0190920801D092B2
:1008E0001001C0920F0122E0C5C0A0921901B09280
:1008F000180110930E0100930D01F0920A01E0928D
:100900000901D0930C01C0930B0190920801D09281
:100910001001C0920F0124E0ADC0A0921901B09265
:10092000180110930E0100930D01F0920A01E0925C
:100930000901D0930C01C0930B0190920801D09251
:100940001001C0920F0125E095C0A0921901B0924C
:10095000180110930E0100930D01F0920A01E0922C
:100960000901D0930C01C0930B0190920801D09221
:100970001001C0920F0127E07DC0C5DE7C0140C0A0
:10098000A3DE8C3611F4BB2403C0AA24BB24B39489
:1009900080912D0190912E01019690932E018093CC
:1009A0002D0115CFB0DE882E982C11CFA092190101
:1009B000B092180110930E0100930D01F0920A01FC
:1009C000E0920901D0930C01C0930B0190920801B1
:1009D000D0921001C0920F0120E0FF24F3944BC08D
:1009E00092DEBC0180EC9DE5F4D7CB01EB01F3E096
:1009F000CC0FDD1FFA95E1F7880F991FC80FD91F9B
:100A0000CE01B701E6D78B01E2CE7DDE6C01DFCEF1
:100A1000A0921901B092180110930E0100930D01DC
:100A2000F0920A01E0920901D0930C01C0930B01EE
:100A300090920801D0921001C0920F0110922E01E5
:100A400010922D0172C0A0921901B092180110935A
:100A50000E0100930D01F0920A01E0920901D0937A
:100A60000C01C0930B0190920801D0921001C0922A
:100A70000F0129E0FF248CE0889EC0011124E22EA2
:100A8000E80E0AC080912D0190912E01019690935D
:100A90002E0180932D01E39417DE8B3299F383327C
:100AA00089F30BC080912D0190912E0101969093B6
:100AB0002E0180932D01EA9407DE8D3299F3C091C7
:100AC0000D01D0910E018153883048F400910B0143
:100AD00010910C0118DEBC01C8017BD7EB018E011F
:100AE0000BC080912D0190912E01019690932E01C3
:100AF00080932D01C00FD11F16950795E5DD8E322D
:100B000081F380911801882339F0CE01969587955D
:100B100080931901C81BD109FF2011F0EE24EA943B
:100B20008E2DBE0140910F0158DDCDB7DEB7ECE050
:100B3000C3C710926F0090932E0180932D0181E026
:100B400080931A011092190109CEF3CF08951F92D4
:100B50000F920FB60F9211242F933F934F935F93F1
:100B60006F937F938F939F93AF93BF93EF93FF9375
:100B700080911C0190911D01019790931D0180931C
:100B80001C01019609F510926F0078948091810004
:100B9000887F81608093810080E197E29093890053
:100BA0008093880010928B0010928A0081E08093DD
:100BB000110180912D0190912E01892B29F08091B6
:100BC0001B01882309F4CADDFF91EF91BF91AF911A
:100BD0009F918F917F916F915F914F913F912F9155
:100BE0000F900FBE0F901F901895282F883068F433
:100BF00081E090E002C0880F991F2A95E2F7282F24
:100C0000AAE2B0E0EBE2F0E029C08E3080F430E000
:100C10002850304081E090E002C0880F991F2A954B
:100C2000E2F7282FA4E2B0E0E5E2F0E017C085315A
:100C300030F020E0A0E0B0E0E0E0F0E00FC030E015
:100C40002E50304081E090E002C0880F991F2A9515
:100C5000E2F7282FA7E2B0E0E8E2F0E06F3F19F4F6
:100C60008081822709C0662319F08081822B04C00D
:100C70009081822F8095892380838C91822B8C9305
:100C80000895E0EBF0E083EF8083808184BDE1EBA9
:100C9000F0E082E08083808185BDE4EBF0E01082AB
:100CA0008081E3EBF0E08083808188BD88B587BDDB
:100CB00086E060E09ADF85E060E097DF8BE060E04F
:100CC00094DF83E060E091CF80911E01882321F4BE
:100CD00081E080931E01D5CF0895CF93DF93EC017F
:100CE000F3DFD7FD02C020E004C0D095C195DF4FEF
:100CF00021E0CE01CF3FD10519F014F08FEF90E045
:100D0000222319F018BC87BD02C088BD17BCDF9133
:100D1000CF910895CF93DF93EC01D6DFD7FD02C0CA
:100D200020E004C0D095C195DF4F21E0CE01CF3F38
:100D3000D10519F014F08FEF90E0222329F01092E2
:100D4000B4008093B30004C08093B4001092B30049
:100D5000DF91CF9108950F931F938B01BEDFC801E0
:100D6000D9DF1F910F910895F6CF08951F93CF9368
:100D7000DF93182F80911F01882391F481E08093E5
:100D80001F0184B18D7C84B985B1826385B985E00A
:100D900090E06F9364E06A95F1F76F910197C9F75E
:100DA000C12FD0E083B190E08C239D23892BD1F318
:100DB0008AE090E08FD083B190E08C239D23892B33
:100DC00089F383B18123DF91CF911F910895CECF15
:100DD00008951F93CF93DF93182F80911F018823CD
:100DE00091F481E080931F0184B18D7C84B985B139
:100DF000826385B985E090E06F9364E06A95F1F7CE
:100E00006F910197C9F7C12FD0E083B190E0809531
:100E100090958C239D23892BC1F38AE090E05AD0D2
:100E200083B190E0809590958C239D23892B69F365
:100E300083B180958123DF91CF911F910895C9CF10
:100E400008952F928F939F932FB6809130019091A8
:100E500031010196809330019093310190E08091AF
:100E60003201891F80933201909138019C5F9093E9
:100E700038018091370180519742C0F0909338013A
:100E800080933701809133019091340101968093D2
:100E900033019093340190E080913501891F809354
:100EA000350180913601891F809336012FBE9F91B5
:100EB0008F912F90189528EE33E009C0F9016F93B8
:100EC00064E06A95F1F76F913197C9F70197009740
:100ED000A9F7089528EE33E009C0F9016F9364E0A3
:100EE0006A95F1F76F913197C9F701970097A9F7C4
:100EF0000895FC01118210821382128215821482DD
:100F000017821682613118F080E1808701C0608706
:100F1000208B483078F481E090E002C0880F991F60
:100F20004A95E2F781878BE290E0938782878AE295
:100F300090E029C04E3098F4242F30E02850304003
:100F400081E090E002C0880F991F2A95E2F781871F
:100F500085E290E09387828784E290E014C0443178
:100F6000A8F4242F30E02E50304081E090E002C001
:100F7000880F991F2A95E2F7818788E290E093878E
:100F8000828787E290E09587848708951586148686
:100F9000138612860895A0E0B0E0E0EDF7E06EC59C
:100FA000EC016B01642F7901402F20E0A2DFCE011C
:100FB0008F5B9F4FFC011082FE01EE5BFF4F1082A2
:100FC000DE01AD5BBF4F1C92FF86EE8630E041E054
:100FD00050E07F0166E2662E712C8C0123E2822EA6
:100FE000912CBD0199E2A92EB12C58C0A32FB0E0DD
:100FF000F601EA0FFB1F80818830C0F4FA0102C0BD
:10100000EE0FFF1F8A95E2F7CF01FE01EA0FFB1FEB
:10101000818BFB012081282B2083AA0FBB1FAC0FE3
:10102000BD1F9296BC92AE92919737C08E30D0F48D
:1010300090E00897FA0102C0EE0FFF1F8A95E2F7D1
:10104000CF01FE01EA0FFB1F818BF8012081282BC5
:101050002083AA0FBB1FAC0FBD1F92969C928E924D
:1010600091971BC08431C8F490E00E97FA0102C03A
:10107000EE0FFF1F8A95E2F7CF01FE01EA0FFB1F7B
:10108000818BF7012081282B2083AA0FBB1FAC0F77
:10109000BD1F92967C926E9291973F5F888538171C
:1010A00008F4A4CFCDB7DEB7EEE004C5A0E0B0E011
:1010B000EBE5F8E0E5C4EC015B01CF5BDF4F499164
:1010C000A9918880C354D04090E009C0E92FF0E096
:1010D000EE0FFF1FEA0DFB1D118210829F5F8885B6
:1010E0009817A0F384B1CF5BDF4F3991832B84B97C
:1010F00087B12991822B87B98AB19881C354D04096
:10110000892B8AB985B1832B85B988B1822B88B99F
:101110008BB1892B8BB9EAE0F0E06F9364E06A95BC
:10112000F1F76F913197C9F784B13095832384B972
:1011300087B12095822387B98AB1909589238AB98E
:1011400085B1382335B988B1282328B98BB19823C4
:101150009BB99090B000C090B1008091B0008360C6
:101160008093B00082E08093B100D090B20060E044
:1011700070E03AC05091B2005D19650F711DE3B087
:10118000E41609F04FC0F6B0FA1609F04BC089B169
:10119000881509F047C025C0A42FB0E09D01220F9B
:1011A000331F8501020F131FF80180819181892B64
:1011B000A1F42C0F3D1FF90181A192A1FC01208116
:1011C00030E0AC0FBD1F51968C9190E0282339235D
:1011D000232B19F4F801718360834F5F88854817CA
:1011E000D8F2D50E4E2DAF2D8E859F8568177907C5
:1011F00008F29092B000C092B10020E00FC0E22F40
:10120000F0E0EE0FFF1FEA0DFB1D80819181892B1D
:1012100021F48E859F85918380832F5F8885281791
:1012200070F305C0E3B0F6B089B040E0D7CFCDB7DA
:10123000DEB7ECE041C4A0E0B0E0E0E2F9E024C4B5
:10124000EC018B01D0907C00E0907A00C7B0F8B040
:1012500080917A0086FDFCCF90E009C0E92FF0E094
:10126000EE0FFF1FE00FF11F118210829F5F888534
:101270009817A0F397B18AA18095982397B998B150
:10128000892388B987E880937A0050E024C0FE0162
:10129000E40FF11D818980937C0080917A00806445
:1012A00080937A0080917A0086FDFCCFE42FF0E0F5
:1012B000EE0FFF1FE00FF11F2091780030917900B1
:1012C00080819181820F931F918380834F5F8885F6
:1012D0004817E8F25F5F89A1581710F040E016C088
:1012E00040E0F5CFE42FF0E0EE0FFF1FE00FF11F1D
:1012F00069A1862F90E09595879520813181820F95
:10130000931F70E066D3718360834F5F88854817B1
:1013100048F3D0927C00E0927A00F8B8C7B8CDB715
:10132000DEB7E8E0CDC3A0E2B0E0E8E9F9E0ABC3A6
:101330008C017B01D42E842F81508230B0F4D801EF
:101340001C96ED91FC911D97309779F0808119964C
:101350009C911997892B80831A96ED91FC911B978C
:10136000808119969C91892B8083F801808988233C
:1013700039F5C02EB12EC801B70198DED8011C96F0
:10138000ED91FC911D97309781F0808119969C9189
:101390001997892B80831A96ED91FC911B97908168
:1013A00019968C91809589238083B2E0DB1609F031
:1013B00050C08C2D9B2DBE016F5F7F4F77DE25C007
:1013C000C02EB12EC801B70136DFD8011C96ED91B1
:1013D000FC911D97309781F0808119969C91199707
:1013E000892B80831A96ED91FC911B979081199619
:1013F0008C91809589238083B2E0DB1651F58C2D8A
:101400009B2DBE016F5F7F4F16DF40E0BE016F5F17
:101410007F4F1AC0E42FF0E0EE0FFF1F6701CE0EE2
:10142000DF1EE60FF71FD8011E962D913C911F97E6
:1014300080819181281B390BF60180819181820F77
:10144000931F918380834F5FD80118968C91481722
:1014500008F3A096E9E033C3A0E0B0E0E1E3FAE0EE
:1014600010C3EC01162F072F942E22E0421711F023
:10147000442351F48C819D81892B09F4A1C08E8174
:101480009F81892B09F49CC0892D8150823050F4B2
:1014900088819981892B09F493C08A819B81892B4A
:1014A00009F48EC0CE01612F702F492D3CDF812FB2
:1014B000902F9C015901CC24DD2400E010E07AC07B
:1014C00081E0981669F4EA81FB81E00FF11F208129
:1014D0003181E881F981E00FF11F408151813DC0E8
:1014E000AC81BD81992059F4EE81FF81E00FF11F9D
:1014F00020813181A00FB11F4D915C912EC0A00FB2
:10150000B11F8D919C91E881F981E00FF11F20813D
:101510003181EE85FF858217930710F4AF0105C076
:10152000A9014E0F5F1F481B590BEE81FF81E00F91
:10153000F11F60817181EA81FB81E00FF11F8081E1
:101540009181EE85FF856817790710F49F0105C02A
:101550009C012E0F3F1F261B370B7901E41AF50A59
:10156000F1F0F5016081718180E090E09A0140E046
:1015700050E0621B730B840B950B28EE33E040E0C8
:1015800050E0FCD1970140E050E059D2C901F3E0AE
:10159000293E3F0714F088EE93E097FF02C080E0F9
:1015A00090E0F501819391935F010894C11CD11CD7
:1015B0000E5F1F4F888590E0C816D9060CF480CFC7
:1015C000CDB7DEB7EBE079C2A4E0B0E0E9EEFAE037
:1015D00051C28C01F62EE72E2A833EDFD8011896E1
:1015E000BC91B9832F2D3E2DC9018C015524442473
:1015F0006624772443011C821B82AA24BB24650134
:10160000B8EE2B2EB3E03B2E31C0F801E080F18024
:10161000FA81FF2321F091012E193F09790139EC5C
:10162000E316F10414F04424439483E3E816F10430
:1016300094F0B701882777FD8095982FA601950132
:101640009DD1660E771E881E991EAB81BC81AE0DA2
:10165000BF1DBC83AB83539488EE93E0A0E0B0E061
:10166000A80EB91ECA1EDB1E0E5F1F4F99815916A8
:1016700060F2442021F5692F70E084EF91E0DC01F5
:101680006A9FC0016B9F900D7A9F900D1124845F1B
:10169000914020913A0130913B01281739071CF401
:1016A00040E050E019C088EE93E0689FA001699F78
:1016B000500D789F500D1124485E53400DC0EB81B2
:1016C000FC819F0140E050E0C401B30196D1A90123
:1016D00030933B0120933A01CA012496E2E1E6C12E
:1016E0009C01462F80913C0190913D01B90120E081
:1016F0006BCFA3E6B0E0EEE7FBE0BCC17C015B0191
:101700006A01A2962FAFA297DA018D919C91892B45
:1017100011F5F701808590E0880F991F0E9427013D
:10172000D6018D939C93009709F4DEC020E030E051
:101730000CC0C901880F991FD601ED91FC91E80FEB
:10174000F91F118210822F5F3F4FF701808590E0D3
:101750002817390774F3D5018D919C91892B89F055
:1017600000E010E03E010894611C711C41E4242E4D
:10177000312C2C0E3D1E31E2432E512C4C0E5D1EA1
:1017800028C0F701808590E0880F991F0E942701EB
:10179000D5018D939C93009709F4A6C020E030E01A
:1017A00011C0C901880F991FD501ED91FC91E80F77
:1017B000F91FD7011E968D919C911F97918380836D
:1017C0002F5F3F4FF701808590E0281739074CF3D2
:1017D000C7CFC701B301A2964FADA297A4DDD70131
:1017E00018968C91882E9924A101F301A4965FAEDE
:1017F0004EAEA49760E070E034C00115110559F0B9
:10180000A496AEADBFADA4972D913C9180819181FE
:101810002817390758F480819181A496AEADBFADE9
:10182000A4978D939C930115110541F0DA012D9138
:101830003C91808191818217930728F48081918166
:10184000DA018D939C936F5F7F4F4E5F5F4F3296AF
:10185000A4968EAD9FADA4970296A4969FAF8EAF2F
:10186000A497681579054CF20F5F1F4F0A301105D8
:1018700009F0AFCF40E050E020E030E08E010F5B98
:101880001F4FBE016F5D7F4F28C0F801E20FF31FAD
:1018900080809180F601A081B181A20FB31F8D914C
:1018A0009C9111978815990510F48D929C92FB01DB
:1018B000E20FF31F80809180F501A081B181A20F1A
:1018C000B31F8D919C9111978816990610F48D92F3
:1018D0009C924F5F5F4F2E5F3F4FD70118968C91C0
:1018E00090E0481759078CF2CD59DF4FE2E1DEC096
:1018F0001F93CF93DF93EC01162F862F81508230F8
:1019000038F4AE014E5F5F4FCE01BE0121E0F1DE43
:10191000123011F0112341F4AE014A5F5F4FCE0146
:101920002496BE0120E0E5DEDF91CF911F9108955E
:10193000682F80913C0190913D01DACFA0E0B0E0AA
:10194000E3EAFCE0A1C08C01D62E7A01C22E84E429
:1019500090E00E942701EC01009711F480E00AC09A
:10196000B8014D2D97010C2D16DBD0933D01C0938E
:101970003C0181E0CDB7DEB7E8E0A2C0629FD001B4
:10198000739FF001829FE00DF11D649FE00DF11D3A
:10199000929FF00D839FF00D749FF00D659FF00DE9
:1019A0009927729FB00DE11DF91F639FB00DE11DD6
:1019B000F91FBD01CF0111240895991B79E004C0DE
:1019C000991F961708F0961B881F7A95C9F780957E
:1019D0000895AA1BBB1B51E107C0AA1FBB1FA61776
:1019E000B70710F0A61BB70B881F991F5A95A9F7C8
:1019F00080959095BC01CD010895A1E21A2EAA1BF5
:101A0000BB1BFD010DC0AA1FBB1FEE1FFF1FA217AE
:101A1000B307E407F50720F0A21BB30BE40BF50BAB
:101A2000661F771F881F991F1A9469F76095709534
:101A3000809590959B01AC01BD01CF01089597FB66
:101A4000092E05260ED057FD04D0D7DF0AD0001C82
:101A500038F450954095309521953F4F4F4F5F4F4B
:101A60000895F6F790958095709561957F4F8F4F0B
:101A70009F4F08952F923F924F925F926F927F9265
:101A80008F929F92AF92BF92CF92DF92EF92FF928E
:101A90000F931F93CF93DF93CDB7DEB7CA1BDB0B3A
:101AA0000FB6F894DEBF0FBECDBF09942A883988DF
:101AB00048885F846E847D848C849B84AA84B984E6
:101AC000C884DF80EE80FD800C811B81AA81B981F2
:101AD000CE0FD11D0FB6F894DEBF0FBECDBFED0106
:101AE0000895EE0FFF1F0590F491E02D0994F894EE
:021AF000FFCF26
:101AF2000407131211100F0E040400D007F4010F93
:081B0200000120004201000077
:00000001FF
