:1000000033C000004DC000004BC0000049C00000DC
:1000100047C0000045C0000043C0000041C00000D0
:100020003FC00000AAC400003BC0000039C000006F
:1000300037C0000035C0000033C0000031C00000F0
:100040002FC000002DC000001FC4000055C40000D8
:1000500027C0000025C0000023C0000021C0000010
:100060001FC000001DC0000011241FBECFEFD8E04C
:10007000DEBFCDBF11E0A0E0B1E0E6E0F6E102C0F6
:1000800005900D92A438B107D9F712E0A4E8B1E0C9
:1000900001C01D92A331B107E1F768D00C94010BA8
:1000A000AFCF289A209AA3D42898209A0895A8E040
:1000B000B0E0EDE5F0E00C94D80A60E875E280E08D
:1000C00090E047D38BEA91E064E6DDD2DE01119641
:1000D000E6E7F1E088E001900D928150E1F7CE0172
:1000E000019668E040ED57E022E00E943A0A88EC71
:1000F00090E0D7DF80E091E067E2C4D382E0C1D234
:1001000082E087D280E293E072D40CEE1FEF0832D7
:10011000110528F08CE390E064EC7FEF04C084ECE0
:100120009FEF6CE370E042D281E00E94340A84E1E8
:1001300090E05DD40F5F1F4F0C33110541F780E055
:1001400090E060E070E032D288EC90E0AADF88E2D4
:1001500091E06AE297D382E094D282E05AD288ECAE
:1001600090E09FDF2896E4E00C94F40AA0E1B0E070
:10017000ECEBF0E00C94D60A9ADF00E010E07E0190
:100180000894E11CF11CC70161E00E940C0929E000
:10019000843C920760F480E090E06CE370E006D26B
:1001A0000536110508F43EC083E591E036C02BE02A
:1001B000883B920758F488E290E06CE370E0F6D157
:1001C0000536110578F18AE591E027C02FE0803AE5
:1001D000920758F48CE390E06CE370E0E7D10536C9
:1001E000110500F181E691E018C08459914158F45D
:1001F0008CE390E068E270E0D9D10536110590F00B
:1002000088E691E00AC08CE390E060E070E0CED137
:100210000536110538F08FE691E066E033D300E053
:1002200010E0B1CF0F5F1F4FAECFCF93DF93BC0174
:100230008230910510F462E070E0A0911102B0915B
:100240001202ED01E0E0F0E040E050E021C08881E2
:1002500099818617970769F48A819B81309719F0F5
:100260009383828304C09093120280931102FE0153
:1002700034C06817790738F44115510519F084170F
:10028000950708F4AC01FE018A819B819C01E9017C
:100290002097E9F641155105A9F1CA01861B970B74
:1002A000049708F4BA01E0E0F0E02AC08D919C9137
:1002B000119784179507F9F46417750781F412965E
:1002C0008D919C911397309719F09383828304C08A
:1002D0009093120280931102FD0132964CC0CA0124
:1002E000861B970BFD01E80FF91F6193719302972D
:1002F0008D939C9340C0FD01828193819C01D90123
:100300001097A1F680910F0290911002892B41F471
:1003100080918001909181019093100280930F024F
:1003200040918201509183014115510541F44DB72F
:100330005EB780917E0190917F01481B590B2091FF
:100340000F0230911002CA01821B930B8617970788
:1003500080F0AB014E5F5F4F8417950750F0420F5E
:10036000531F5093100240930F02F9016193719350
:1003700002C0E0E0F0E0CF01DF91CF910895CF938C
:10038000DF93009709F450C0EC0122971B821A8278
:10039000A0911102B0911202109709F140E050E0D3
:1003A000AC17BD0708F1BB83AA83FE0121913191EF
:1003B000E20FF31FAE17BF0779F48D919C9111974F
:1003C000280F391F2E5F3F4F3983288312968D9156
:1003D0009C9113979B838A834115510571F4D093A7
:1003E0001202C093110220C012968D919C91139716
:1003F000AD01009711F0DC01D3CFFA01D383C283A2
:1004000021913191E20FF31FCE17DF0769F4888144
:100410009981280F391F2E5F3F4FFA0131832083C6
:100420008A819B8193838283DF91CF910895282FC6
:10043000883068F481E090E002C0880F991F2A9507
:10044000E2F7282FAAE2B0E0EBE2F0E029C08E301C
:1004500080F430E02850304081E090E002C0880F06
:10046000991F2A95E2F7282FA4E2B0E0E5E2F0E038
:1004700017C0853130F020E0A0E0B0E0E0E0F0E02F
:100480000FC030E02E50304081E090E002C0880F75
:10049000991F2A95E2F7282FA7E2B0E0E8E2F0E002
:1004A0006F3F19F48081822709C0662319F080818B
:1004B000822B04C09081822F8095892380838C9128
:1004C000822B8C930895E0EBF0E083EF80838081B2
:1004D00084BDE1EBF0E082E08083808185BDE4EBC8
:1004E000F0E010828081E3EBF0E08083808188BDC2
:1004F00088B587BD86E060E09ADF85E060E097DF41
:100500008BE060E094DF83E060E091CF8091840134
:10051000882321F481E080938401D5CF0895CF937F
:10052000DF93EC01F3DFD7FD02C020E004C0D095DB
:10053000C195DF4F21E0CE01CF3FD10519F014F076
:100540008FEF90E0222319F018BC87BD02C088BD50
:1005500017BCDF91CF910895CF93DF93EC01D6DFE5
:10056000D7FD02C020E004C0D095C195DF4F21E047
:10057000CE01CF3FD10519F014F08FEF90E0222388
:1005800029F01092B4008093B30004C08093B400AB
:100590001092B300DF91CF9108950F931F938B01B9
:1005A000BEDFC801D9DF1F910F910895F6CF0895DE
:1005B0001F93CF93DF93182F80918501882391F4A7
:1005C00081E08093850184B18D7C84B985B182639B
:1005D00085B985E090E06F9364E06A95F1F76F91DB
:1005E0000197C9F7C12FD0E083B190E08C239D2300
:1005F000892BD1F38AE090E009D283B190E08C237B
:100600009D23892B89F383B18123DF91CF911F91A2
:100610000895CECF08951F93CF93DF93182F809125
:100620008501882391F481E08093850184B18D7CDC
:1006300084B985B1826385B985E090E06F9364E009
:100640006A95F1F76F910197C9F7C12FD0E083B197
:1006500090E0809590958C239D23892BC1F38AE0AF
:1006600090E0D4D183B190E0809590958C239D2328
:10067000892B69F383B180958123DF91CF911F91FD
:100680000895C9CF08952091C1002F772093C1000C
:1006900090939B0180939A0110929401609396012C
:1006A00081E08093970180919201882329F48091C1
:1006B000C10080688093C100089520919201222397
:1006C00011F488E901C088E18093C100809198010C
:1006D00090919901892B79F09091930180919501E6
:1006E000981748F4222339F48091C10080628093E6
:1006F000C100789408958091C1008F7DF8CFEF926A
:10070000FF920F931F937B018C0180E0D6DF60EA9C
:1007100075E286E290E06E197F09800B910B33E061
:10072000660F771F881F991F3A95D1F724E0EE0CCA
:10073000FF1C001F111F2A95D1F7A8019701EDD6C4
:100740003093C5002093C4001F910F91FF90EF904C
:100750000895D5CF08958091C1008F7D8093C10009
:10076000E0919801F0919901309709F45DC0809172
:10077000930190919501891708F05AC08091C000AB
:1007800085FF56C080919301E80FF11D8081809311
:10079000C600809193018F5F8093930149C080913F
:1007A0009201882309F040C08091C100806280934B
:1007B000C1008091C1008F778093C100E0919A01C0
:1007C000F0919B01309731F18091940190919601C5
:1007D000891700F58091C00087FF1CC02091C600DA
:1007E00080919401891750F480919401E80FF11DD4
:1007F0002083809194018F5F809394019091940164
:1008000080919601981731F480919701882311F017
:100810001092940180919201882379F48091C10013
:1008200080688093C10008958091C1008F7DBFCF03
:10083000809193018917C0F7B2CF089590939901E1
:10084000809398011092930160939501892BA1F0F8
:1008500080919301861780F480919201882361F43E
:100860008091C10080620BC076DF909193018091EE
:1008700095019817C9F708958091C1008F7D8093E5
:10088000C100F3CFDBCF08951F920F920FB60F92E6
:1008900011242F938F939F93EF93FF932091C60082
:1008A000E0919A01F0919B01309781F09091940131
:1008B00080919601981750F480919401E80FF11DF2
:1008C0002083809194018F5F809394019091940193
:1008D00080919601981731F480919701882311F047
:1008E00010929401FF91EF919F918F912F910F9012
:1008F0000FBE0F901F9018951F920F920FB60F9278
:1009000011248F939F93EF93FF93E0919801F091BF
:1009100099013097F9F08091930190919501891791
:1009200038F58091C00085FF23C080919301E80FC6
:10093000F11D80818093C600809193018F5F809329
:10094000930116C080919201882321F48091C10007
:10095000806203C08091C1008F7D8093C100FF91B0
:10096000EF919F918F910F900FBE0F901F90189550
:1009700080919301891770F7E5CF2F928F939F9302
:100980002FB680919D0190919E01019680939D01CB
:1009900090939E0190E080919F01891F80939F0119
:1009A0009091A5019C5F9093A5018091A401805135
:1009B0009742C0F09093A5018093A4018091A0017B
:1009C0009091A10101968093A0019093A10190E0E4
:1009D0008091A201891F8093A2018091A301891FA8
:1009E0008093A3012FBE9F918F912F90189528EE91
:1009F00033E009C0F9016F9364E06A95F1F76F91F4
:100A00003197C9F701970097A9F7089528EE33E0C9
:100A100009C0F9016F9364E06A95F1F76F9131971E
:100A2000C9F701970097A9F70895FC011182108278
:100A3000138212821582148217821682613118F095
:100A400080E1808701C06087208B483078F481E0A6
:100A500090E002C0880F991F4A95E2F781878BE2E8
:100A600090E0938782878AE290E029C04E3098F424
:100A7000242F30E02850304081E090E002C0880F01
:100A8000991F2A95E2F7818785E290E09387828714
:100A900084E290E014C04431A8F4242F30E02E50BA
:100AA000304081E090E002C0880F991F2A95E2F75C
:100AB000818788E290E09387828787E290E095873C
:100AC0008487089515861486138612860895A0E0FB
:100AD000B0E0ECE6F5E062C5EC016B01642F790152
:100AE000402F20E0A2DFCE018F5B9F4FFC011082E0
:100AF000FE01EE5BFF4F1082DE01AD5BBF4F1C922B
:100B0000FF86EE8630E041E050E07F0166E2662E2F
:100B1000712C8C0123E2822E912CBD0199E2A92E29
:100B2000B12C58C0A32FB0E0F601EA0FFB1F808163
:100B30008830C0F4FA0102C0EE0FFF1F8A95E2F779
:100B4000CF01FE01EA0FFB1F818BFB012081282BC7
:100B50002083AA0FBB1FAC0FBD1F9296BC92AE9212
:100B6000919737C08E30D0F490E00897FA0102C018
:100B7000EE0FFF1F8A95E2F7CF01FE01EA0FFB1F80
:100B8000818BF8012081282B2083AA0FBB1FAC0F7B
:100B9000BD1F92969C928E9291971BC08431C8F48F
:100BA00090E00E97FA0102C0EE0FFF1F8A95E2F760
:100BB000CF01FE01EA0FFB1F818BF7012081282B5B
:100BC0002083AA0FBB1FAC0FBD1F92967C926E9222
:100BD00091973F5F8885381708F4A4CFCDB7DEB76B
:100BE000EEE0F8C4A0E0B0E0E7EFF5E0D9C4EC0136
:100BF0005B01CF5BDF4F4991A9918880C354D040FE
:100C000090E009C0E92FF0E0EE0FFF1FEA0DFB1D99
:100C1000118210829F5F88859817A0F384B1CF5B03
:100C2000DF4F3991832B84B987B12991822B87B902
:100C30008AB19881C354D040892B8AB985B1832B5E
:100C400085B988B1822B88B98BB1892B8BB9EAE041
:100C5000F0E06F9364E06A95F1F76F913197C9F70F
:100C600084B13095832384B987B12095822387B9D5
:100C70008AB1909589238AB985B1382335B988B16D
:100C8000282328B98BB198239BB99090B000C090CD
:100C9000B1008091B00083608093B00082E08093C7
:100CA000B100D090B20060E070E03AC05091B20064
:100CB0005D19650F711DE3B0E41609F04FC0F6B081
:100CC000FA1609F04BC089B1881509F047C025C054
:100CD000A42FB0E09D01220F331F8501020F131FC7
:100CE000F80180819181892BA1F42C0F3D1FF9011E
:100CF00081A192A1FC01208130E0AC0FBD1F519673
:100D00008C9190E028233923232B19F4F801718367
:100D100060834F5F88854817D8F2D50E4E2DAF2DD2
:100D20008E859F856817790708F29092B000C0926F
:100D3000B10020E00FC0E22FF0E0EE0FFF1FEA0D40
:100D4000FB1D80819181892B21F48E859F85918364
:100D500080832F5F8885281770F305C0E3B0F6B055
:100D600089B040E0D7CFCDB7DEB7ECE035C4A0E026
:100D7000B0E0ECEBF6E018C4EC018B01D0907C0005
:100D8000E0907A00C7B0F8B080917A0086FDFCCF81
:100D900090E009C0E92FF0E0EE0FFF1FE00FF11F18
:100DA000118210829F5F88859817A0F397B18AA15E
:100DB0008095982397B998B1892388B987E880935B
:100DC0007A0050E024C0FE01E40FF11D8189809378
:100DD0007C0080917A00806480937A0080917A0010
:100DE00086FDFCCFE42FF0E0EE0FFF1FE00FF11FB8
:100DF000209178003091790080819181820F931F3A
:100E0000918380834F5F88854817E8F25F5F89A1EF
:100E1000581710F040E016C040E0F5CFE42FF0E0A6
:100E2000EE0FFF1FE00FF11F69A1862F90E095954F
:100E3000879520813181820F931F70E05AD371838F
:100E400060834F5F8885481748F3D0927C00E0921A
:100E50007A00F8B8C7B8CDB7DEB7E8E0C1C3A0E202
:100E6000B0E0E4E3F7E09FC38C017B01D42E842F34
:100E700081508230B0F4D8011C96ED91FC911D9701
:100E8000309779F0808119969C911997892B8083EE
:100E90001A96ED91FC911B97808119969C91892B54
:100EA0008083F8018089882339F5C02EB12EC801CE
:100EB000B70198DED8011C96ED91FC911D973097F3
:100EC00081F0808119969C911997892B80831A96BD
:100ED000ED91FC911B97908119968C9180958923B7
:100EE0008083B2E0DB1609F050C08C2D9B2DBE0133
:100EF0006F5F7F4F77DE25C0C02EB12EC801B701CE
:100F000036DFD8011C96ED91FC911D97309781F04A
:100F1000808119969C911997892B80831A96ED915F
:100F2000FC911B97908119968C91809589238083E1
:100F3000B2E0DB1651F58C2D9B2DBE016F5F7F4F0C
:100F400016DF40E0BE016F5F7F4F1AC0E42FF0E074
:100F5000EE0FFF1F6701CE0EDF1EE60FF71FD80151
:100F60001E962D913C911F9780819181281B390BF2
:100F7000F60180819181820F931F918380834F5F5F
:100F8000D80118968C91481708F3A096E9E027C37A
:100F9000A0E0B0E0EDECF7E004C3EC01162F072F62
:100FA000942E22E0421711F0442351F48C819D814C
:100FB000892B09F4A1C08E819F81892B09F49CC0E3
:100FC000892D8150823050F488819981892B09F4D0
:100FD00093C08A819B81892B09F48EC0CE01612F39
:100FE000702F492D3CDF812F902F9C015901CC247B
:100FF000DD2400E010E07AC081E0981669F4EA810F
:10100000FB81E00FF11F20813181E881F981E00F40
:10101000F11F408151813DC0AC81BD81992059F4BF
:10102000EE81FF81E00FF11F20813181A00FB11F00
:101030004D915C912EC0A00FB11F8D919C91E881C4
:10104000F981E00FF11F20813181EE85FF85821744
:10105000930710F4AF0105C0A9014E0F5F1F481B95
:10106000590BEE81FF81E00FF11F60817181EA81F0
:10107000FB81E00FF11F80819181EE85FF8568176C
:10108000790710F49F0105C09C012E0F3F1F261BFE
:10109000370B7901E41AF50AF1F0F50160817181ED
:1010A00080E090E09A0140E050E0621B730B840BFB
:1010B000950B28EE33E040E050E0FCD1970140E092
:1010C00050E04DD2C901F3E0293E3F0714F088EE0D
:1010D00093E097FF02C080E090E0F5018193919347
:1010E0005F010894C11CD11C0E5F1F4F888590E0E2
:1010F000C816D9060CF480CFCDB7DEB7EBE06DC2D1
:10110000A4E0B0E0E5E8F8E045C28C01F62EE72E59
:101110002A833EDFD8011896BC91B9832F2D3E2D2E
:10112000C9018C01552444246624772443011C8280
:101130001B82AA24BB246501B8EE2B2EB3E03B2E04
:1011400031C0F801E080F180FA81FF2321F09101A4
:101150002E193F09790139ECE316F10414F0442407
:10116000439483E3E816F10494F0B701882777FDF0
:101170008095982FA60195019DD1660E771E881E39
:10118000991EAB81BC81AE0DBF1DBC83AB83539454
:1011900088EE93E0A0E0B0E0A80EB91ECA1EDB1EE8
:1011A0000E5F1F4F9981591660F2442021F5692F77
:1011B00070E084EF91E0DC016A9FC0016B9F900DAD
:1011C0007A9F900D1124845F91402091A701309166
:1011D000A801281739071CF440E050E019C088EE38
:1011E00093E0689FA001699F500D789F500D1124D6
:1011F000485E53400DC0EB81FC819F0140E050E010
:10120000C401B3018AD1A9013093A8012093A70199
:10121000CA012496E2E1DAC19C01462F8091A9011E
:101220009091AA01B90120E06BCFA3E6B0E0EAE11A
:10123000F9E0B0C17C015B016A01A2962FAFA297D1
:10124000DA018D919C91892B11F5F701808590E051
:10125000880F991F0E941501D6018D939C930097CA
:1012600009F4DEC020E030E00CC0C901880F991FEE
:10127000D601ED91FC91E80FF91F118210822F5FCA
:101280003F4FF701808590E02817390774F3D501A7
:101290008D919C91892B89F000E010E03E0108942B
:1012A000611C711C41E4242E312C2C0E3D1E31E2B8
:1012B000432E512C4C0E5D1E28C0F701808590E016
:1012C000880F991F0E941501D5018D939C9300975B
:1012D00009F4A6C020E030E011C0C901880F991FB1
:1012E000D501ED91FC91E80FF91FD7011E968D9164
:1012F0009C911F97918380832F5F3F4FF7018085DB
:1013000090E0281739074CF3C7CFC701B301A29665
:101310004FADA297A4DDD70118968C91882E992401
:10132000A101F301A4965FAE4EAEA49760E070E019
:1013300034C00115110559F0A496AEADBFADA49708
:101340002D913C91808191812817390758F4808133
:101350009181A496AEADBFADA4978D939C930115DA
:10136000110541F0DA012D913C9180819181821724
:10137000930728F480819181DA018D939C936F5FAC
:101380007F4F4E5F5F4F3296A4968EAD9FADA49770
:101390000296A4969FAF8EAFA497681579054CF27C
:1013A0000F5F1F4F0A30110509F0AFCF40E050E04A
:1013B00020E030E08E010F5B1F4FBE016F5D7F4F5D
:1013C00028C0F801E20FF31F80809180F601A08110
:1013D000B181A20FB31F8D919C911197881599052A
:1013E00010F48D929C92FB01E20FF31F808091809C
:1013F000F501A081B181A20FB31F8D919C9111972E
:101400008816990610F48D929C924F5F5F4F2E5F65
:101410003F4FD70118968C9190E0481759078CF2EE
:10142000CD59DF4FE2E1D2C01F93CF93DF93EC01A0
:10143000162F862F8150823038F4AE014E5F5F4FF9
:10144000CE01BE0121E0F1DE123011F0112341F492
:10145000AE014A5F5F4FCE012496BE0120E0E5DE7B
:10146000DF91CF911F910895682F8091A9019091EC
:10147000AA01DACFA0E0B0E0EFE3FAE095C08C017A
:10148000D62E7A01C22E84E490E00E941501EC0170
:10149000009711F480E00AC0B8014D2D97010C2D82
:1014A00016DBD093AA01C093A90181E0CDB7DEB7C6
:1014B000E8E096C0629FD001739FF001829FE00D2B
:1014C000F11D649FE00DF11D929FF00D839FF00DC3
:1014D000749FF00D659FF00D9927729FB00DE11D6F
:1014E000F91F639FB00DE11DF91FBD01CF0111244C
:1014F0000895AA1BBB1B51E107C0AA1FBB1FA6175B
:10150000B70710F0A61BB70B881F991F5A95A9F7AC
:1015100080959095BC01CD010895A1E21A2EAA1BD9
:10152000BB1BFD010DC0AA1FBB1FEE1FFF1FA21793
:10153000B307E407F50720F0A21BB30BE40BF50B90
:10154000661F771F881F991F1A9469F76095709519
:10155000809590959B01AC01BD01CF01089597FB4B
:10156000092E05260ED057FD04D0D7DF0AD0001C67
:1015700038F450954095309521953F4F4F4F5F4F30
:101580000895F6F790958095709561957F4F8F4FF0
:101590009F4F08952F923F924F925F926F927F924A
:1015A0008F929F92AF92BF92CF92DF92EF92FF9273
:1015B0000F931F93CF93DF93CDB7DEB7CA1BDB0B1F
:1015C0000FB6F894DEBF0FBECDBF09942A883988C4
:1015D00048885F846E847D848C849B84AA84B984CB
:1015E000C884DF80EE80FD800C811B81AA81B981D7
:1015F000CE0FD11D0FB6F894DEBF0FBECDBFED01EB
:061600000895F894FFCFED
:10160600507265737320427574746F6E2041207436
:101616006F2073746172742063616C6962726174A5
:10162600696E672E2E2E0A005072657373204275FE
:1016360074746F6E204120746F207374617274200D
:101646006C696E6520666F6C6C6F77696E672E2E9F
:101656002E0A004C454654200A006C656674200A22
:10166600004F4B2020200A0072696768740A0052F6
:10167600494748540A000407131211100F0E2000A0
:04168600130200004B
:00000001FF
