:1000000049C0000063C0000061C000005FC0000084
:100010005DC000005BC0000059C0000057C0000078
:1000200055C000000C94EA0851C000004FC0000009
:100030004DC00000DBC5000049C0000047C0000003
:1000400045C0000043C000000C9471080C94A9083E
:100050003DC000003BC0000039C0000037C00000B8
:1000600035C0000033C0000066036C036F037203E9
:10007000750378037B037E038103840387038A036C
:100080003E6733323E3E633332003E3E6333323EA0
:100090006733320011241FBECFEFD8E0DEBFCDBFE3
:1000A00011E0A0E0B1E0EAEAFEE102C005900D92A5
:1000B000AC36B107D9F712E0ACE6B1E001C01D9251
:1000C000A430B107E1F76ED00C94530F99CF289A62
:1000D000209A0E9424092898209A0895A8E0B0E068
:1000E000E4E7F0E00C94240F80E890E07DD560E830
:1000F00075E280E090E05AD78CE991E064E6F0D6B2
:10010000DE011196E3E5F1E088E001900D92815067
:10011000E1F7CE01019668E040ED57E022E00E9451
:10012000670E88EC90E0D3DF80E091E067E2D7D7FC
:1001300082E0D4D682E09AD680E293E00E9424093D
:100140000CEE1FEF0832110528F08CE390E064EC10
:100150007FEF04C084EC9FEF6CE370E054D681E045
:100160000E94610E84E190E00E9424090F5F1F4FFE
:100170000E33110539F780E090E060E070E043D67F
:1001800088EC90E0A4DF88E291E06AE2A8D782E000
:10019000A5D682E06BD688EC90E099DF2896E4E063
:1001A0000C94400FA9E1B0E0E8EDF0E00C94160FDC
:1001B00095DFCC24DD24EE24FF24F4E02F2E312C17
:1001C0002C0E3D1EE6E04E2E512C4C0E5D1E78E0AE
:1001D000672E712C6C0E7D1E64E6A62EB12C5CE998
:1001E000852E5FEF952ECE010A9661E00E94390DB3
:1001F000AC019B838A83888999892A853B85820FF4
:10020000931F2A893B89820F931F288D398D820F76
:10021000931F805A9F4071F480E090E060E070E0AE
:10022000F2D58AE890E0E0D480E090E060E070E011
:10023000EAD557C08A010C5A1D401D830C83C801A2
:100240008C199D099F838E839C01220F331F280FD9
:10025000391F220F331F220F331FC8016AE070E0DD
:100260000E94C60E260F371F3987288784E6E816B6
:10027000F104A8F024E72983CE01019661E02FD78D
:10028000CE01029662E02BD7C10162E028D7C201FD
:1002900062E025D7C30162E022D7EE24FF248885DF
:1002A00099858536910514F0B986A8868885998543
:1002B0008C599F4F14F4998688868885998597FF75
:1002C00005C08C599F4F64E670E005C0B501681BFE
:1002D000790B84E690E097D50894E11CF11C680145
:1002E00082CFFFCFCF93DF93BC018230910510F412
:1002F00062E070E0A0910202B0910302ED01E0E043
:10030000F0E040E050E021C088819981861797078E
:1003100069F48A819B81309719F09383828304C0AA
:100320009093030280930202FE0134C0681779079C
:1003300038F44115510519F08417950708F4AC01FC
:10034000FE018A819B819C01E9012097E9F6411514
:100350005105A9F1CA01861B970B049708F4BA014D
:10036000E0E0F0E02AC08D919C91119784179507E9
:10037000F9F46417750781F412968D919C91139787
:10038000309719F09383828304C090930302809383
:100390000202FD0132964CC0CA01861B970BFD017B
:1003A000E80FF91F6193719302978D939C9340C05E
:1003B000FD01828193819C01D9011097A1F6809162
:1003C000000290910102892B41F480916701909184
:1003D000680190930102809300024091690150915D
:1003E0006A014115510541F44DB75EB78091650131
:1003F00090916601481B590B209100023091010237
:10040000CA01821B930B8617970780F0AB014E5FE2
:100410005F4F8417950750F0420F531F509301020E
:1004200040930002F9016193719302C0E0E0F0E0B3
:10043000CF01DF91CF910895CF93DF93009709F417
:1004400050C0EC0122971B821A82A0910202B09147
:100450000302109709F140E050E0AC17BD0708F126
:10046000BB83AA83FE0121913191E20FF31FAE17E6
:10047000BF0779F48D919C911197280F391F2E5F3A
:100480003F4F3983288312968D919C9113979B83BC
:100490008A834115510571F4D0930302C09302027F
:1004A00020C012968D919C911397AD01009711F089
:1004B000DC01D3CFFA01D383C28321913191E20FC2
:1004C000F31FCE17DF0769F488819981280F391F40
:1004D0002E5F3F4FFA01318320838A819B81938372
:1004E0008283DF91CF910895A0E0B0E0EAE7F2E0E7
:1004F0000C941E0FFC015B01C42E809180018823A7
:10050000C9F481E08093800110926F0083E28093B0
:10051000800081E1809381001092820080E197E267
:10052000909389008093880010928B0010928A002B
:10053000229A789410926401F7FD03C0DD24D394CD
:1005400003C0FF772AE0D22E80918100082F10E0AF
:10055000087F107088ECD89EC00111248E179F0769
:10056000C0F4EF0187E2E131F80710F0C0E1D7E213
:10057000BE017695679580E090E0605879468746A1
:100580009F4F9E0140E050E00E94D90E790101602A
:1005900024C088E2D89E802D1124C82FD0E0CE1729
:1005A000DF0708F4EF01BE01769567959E0140E0F4
:1005B00050E08AE0D81639F480E090E0605E734441
:1005C00081449F4F06C080E090E060537D4E8C4E8A
:1005D0009F4F0E94D90E790102608AE0D81639F443
:1005E000CE0105966AE070E00E94B20EEB0183E056
:1005F000C83ED80711F4B5010FC0BE0180E090E0FD
:10060000950140E050E00E94870E28EE33E040E084
:1006100050E00E94FB0EB90110926F000093810020
:10062000F0928900E0928800E0918800F0918900C2
:10063000AC2DA03108F0AFE080E190E08A1B910979
:1006400002C0F695E7958A95E2F7F0938B00E09368
:100650008A00709371016093700186B38FEF86BB3F
:1006600081E080936F00CDB7DEB7EAE00C943A0FDB
:10067000CF93DF93EB018F3F11F0442329F488EEF1
:1006800093E0BE0140E067C0813110F420E005C076
:10069000282F2051203608F02FE5822F6CE00E9491
:1006A000A60E382F682F70E084EF9FEF689FF0014F
:1006B000699FF00D789FF00D1124E20FF11DEC30D1
:1006C000F10538F4EC5CFF4F0C944D0F8CE991E090
:1006D00023C080E090E020C085EB91E01DC08FEC4E
:1006E00091E01AC08AEE91E017C087E092E014C052
:1006F00086E292E011C087E492E00EC089E692E0C3
:100700000BC08EE892E008C085EB92E005C08EED4C
:1007100092E002C08AE093E0373071F002C0880FA7
:10072000991F6A95E2F7323020F005966AE070E092
:100730000BC0805090480BC036E0880F991F3A9547
:10074000E1F7029665E070E00E94B20ECB01403105
:1007500008F04FE0BE01C8DEDF91CF9108953091DF
:100760006E01E0918101F0918201332311F0249117
:1007700001C02081822F81548A3108F4205E20320A
:1007800059F48091810190918201019690938201A8
:1007900080938101019729F7822F0895CF93DF93EA
:1007A000DEDF282FC0E0D0E01CC0CE0153E0880F70
:1007B000991F5A95E1F7CC0FDD1FC80FD91F822F63
:1007C000992787FD9095C80FD91FE09780918101E7
:1007D0009091820101969093820180938101BFDF05
:1007E000282F822F80538A3000F3CE01DF91CF91E2
:1007F0000895A0E0B0E0EFEFF3E00C941C0F8090C0
:100800005B01B0906C01BB2021F060916D0166230B
:1008100099F4A0906D010091600110916101E09048
:100820005C01F0905D01C0915E01D0915F01C090CC
:100830006201D090630103C18FEF70E040E018DFE8
:1008400010926D01C0C194E0892EBB2404EF11E029
:1008500084E0E82EF12CC0EDD7E0B4E09B2EAFE0B1
:10086000CA2ED12C7CDF282F8091810190918201AA
:1008700001969093820180938101263609F498C0F5
:100880002736CCF42236A1F1233674F42E3361F1ED
:100890002F3334F42132B9F22C3309F006C126C0CB
:1008A000213609F002C11CC1243609F451C0253695
:1008B0000CF066C035C02F3609F4BFC0203754F4A1
:1008C0002C3609F4A5C02D3609F4A5C0273609F049
:1008D000ECC086C0243709F4CEC0263709F4E2C044
:1008E000223709F0E2C0ADC08394BCCF8A94BACF5E
:1008F000A0926D01B0926C011093610100936001B0
:10090000F0925D01E0925C01D0935F01C0935E01C3
:1009100090925B01D0926301C09262012BE0F7C01C
:10092000A0926D01B0926C0110936101009360017F
:10093000F0925D01E0925C01D0935F01C0935E0193
:1009400090925B01D0926301C092620120E0DFC00F
:10095000A0926D01B0926C0110936101009360014F
:10096000F0925D01E0925C01D0935F01C0935E0163
:1009700090925B01D0926301C092620122E0C7C0F5
:10098000A0926D01B0926C0110936101009360011F
:10099000F0925D01E0925C01D0935F01C0935E0133
:1009A00090925B01D0926301C092620124E0AFC0DB
:1009B000A0926D01B0926C011093610100936001EF
:1009C000F0925D01E0925C01D0935F01C0935E0103
:1009D00090925B01D0926301C092620125E097C0C2
:1009E000A0926D01B0926C011093610100936001BF
:1009F000F0925D01E0925C01D0935F01C0935E01D3
:100A000090925B01D0926301C092620127E07FC0A7
:100A1000C5DE7C0141C0A3DE8C3611F4BB2403C0CB
:100A2000AA24BB24B3948091810190918201019604
:100A3000909382018093810115CFB0DE882E982C8F
:100A400011CFA0926D01B0926C01109361010093DF
:100A50006001F0925D01E0925C01D0935F01C09370
:100A60005E0190925B01D0926301C092620120E02E
:100A7000FF24F3944DC092DEBC0180EC9DE50E9402
:100A8000B20ECB01EB01F3E0CC0FDD1FFA95E1F7DD
:100A9000880F991FC80FD91FCE01B7010E94B20E4F
:100AA0008B01E0CE7BDE6C01DDCEA0926D01B092B9
:100AB0006C011093610100936001F0925D01E0927E
:100AC0005C01D0935F01C0935E0190925B01D09274
:100AD0006301C0926201109282011092810173C081
:100AE000A0926D01B0926C011093610100936001BE
:100AF000F0925D01E0925C01D0935F01C0935E01D2
:100B000090925B01D0926301C092620129E0FF24C0
:100B10008CE0889EC0011124E22EE80E0AC080916C
:100B200081019091820101969093820180938101CD
:100B3000E39415DE8B3299F3833289F30BC08091F5
:100B400081019091820101969093820180938101AD
:100B5000EA9405DE8D3299F3C0916001D091610174
:100B60008153883050F400915E0110915F0116DED0
:100B7000BC01C8010E94B20EEB018E010BC0809136
:100B8000810190918201019690938201809381016D
:100B9000C00FD11F16950795E2DD8E3281F380914B
:100BA0006C01882339F0CE019695879580936D016D
:100BB000C81BD109FF2011F0EE24EA948E2DBE014E
:100BC0004091620155DDCDB7DEB7ECE00C94380FF3
:100BD00010926F00909382018093810181E0809355
:100BE0006E0110926D0105CEF3CF08951F920F9202
:100BF0000FB60F9211242F933F934F935F936F93F0
:100C00007F938F939F93AF93BF93EF93FF938091C5
:100C1000700190917101019790937101809370011F
:100C2000019609F510926F00789480918100887F79
:100C300081608093810080E197E2909389008093A6
:100C4000880010928B0010928A0081E080936401EA
:100C50008091810190918201892B29F080916F010F
:100C6000882309F4C6DDFF91EF91BF91AF919F9169
:100C70008F917F916F915F914F913F912F910F9045
:100C80000FBE0F901F901895282F883068F481E0D0
:100C900090E002C0880F991F2A95E2F7282FAAE258
:100CA000B0E0EBE2F0E029C08E3080F430E0285074
:100CB000304081E090E002C0880F991F2A95E2F74A
:100CC000282FA4E2B0E0E5E2F0E017C0853130F073
:100CD00020E0A0E0B0E0E0E0F0E00FC030E02E5017
:100CE000304081E090E002C0880F991F2A95E2F71A
:100CF000282FA7E2B0E0E8E2F0E06F3F19F480812E
:100D0000822709C0662319F08081822B04C090815C
:100D1000822F8095892380838C91822B8C930895D8
:100D2000E0EBF0E083EF8083808184BDE1EBF0E0D5
:100D300082E08083808185BDE4EBF0E010828081D9
:100D4000E3EBF0E08083808188BD88B587BD86E0D5
:100D500060E09ADF85E060E097DF8BE060E094DFA1
:100D600083E060E091CF80917201882321F481E0DB
:100D700080937201D5CF0895CF93DF93EC01F3DF19
:100D8000D7FD02C020E004C0D095C195DF4F21E01F
:100D9000CE01CF3FD10519F014F08FEF90E0222360
:100DA00019F018BC87BD02C088BD17BCDF91CF9178
:100DB0000895CF93DF93EC01D6DFD7FD02C020E08A
:100DC00004C0D095C195DF4F21E0CE01CF3FD105C2
:100DD00019F014F08FEF90E0222329F01092B40064
:100DE0008093B30004C08093B4001092B300DF91ED
:100DF000CF9108950F931F938B01BEDFC801D9DFF8
:100E00001F910F910895F6CF08951F93CF93DF930D
:100E1000182F80917301882391F481E080937301EE
:100E200084B18D7C84B985B1826385B985E090E019
:100E30006F9364E06A95F1F76F910197C9F7C12F3D
:100E4000D0E083B190E08C239D23892BD1F38AE0FD
:100E500090E009D283B190E08C239D23892B89F304
:100E600083B18123DF91CF911F910895CECF089553
:100E70001F93CF93DF93182F80917301882391F4F0
:100E800081E08093730184B18D7C84B985B18263E4
:100E900085B985E090E06F9364E06A95F1F76F9112
:100EA0000197C9F7C12FD0E083B190E0809590956C
:100EB0008C239D23892BC1F38AE090E0D4D183B1A8
:100EC00090E0809590958C239D23892B69F383B1C5
:100ED00080958123DF91CF911F910895C9CF089507
:100EE0002091C1002F772093C10090938C018093B3
:100EF0008B01109285016093870181E080938801C6
:100F000080918301882329F48091C10080688093B7
:100F1000C100089520918301222311F488E901C0C2
:100F200088E18093C1008091890190918A01892B89
:100F300079F09091840180918601981748F42223DA
:100F400039F48091C10080628093C1007894089543
:100F50008091C1008F7DF8CFEF92FF920F931F9386
:100F60007B018C0180E0D6DF60EA75E286E290E0EA
:100F70006E197F09800B910B33E0660F771F881F76
:100F8000991F3A95D1F724E0EE0CFF1C001F111FAA
:100F90002A95D1F7A80197010CD73093C50020936B
:100FA000C4001F910F91FF90EF900895D5CF089541
:100FB0008091C1008F7D8093C100E0918901F09103
:100FC0008A01309709F45DC0809184019091860177
:100FD000891708F05AC08091C00085FF56C08091E3
:100FE0008401E80FF11D80818093C6008091840107
:100FF0008F5F8093840149C080918301882309F029
:1010000040C08091C10080628093C1008091C10086
:101010008F778093C100E0918B01F0918C01309724
:1010200031F18091850190918701891700F58091B8
:10103000C00087FF1CC02091C600809185018917E0
:1010400050F480918501E80FF11D20838091850186
:101050008F5F80938501909185018091870198171A
:1010600031F480918801882311F0109285018091DC
:101070008301882379F48091C10080688093C10046
:1010800008958091C1008F7DBFCF80918401891721
:10109000C0F7B2CF089590938A018093890110928E
:1010A000840160938601892BA1F0809184018617C9
:1010B00080F480918301882361F48091C100806273
:1010C0000BC076DF90918401809186019817C9F753
:1010D00008958091C1008F7D8093C100F3CFDBCF55
:1010E00008951F920F920FB60F9211242F938F9392
:1010F0009F93EF93FF932091C600E0918B01F091B5
:101100008C01309781F0909185018091870198172B
:1011100050F480918501E80FF11D208380918501B5
:101120008F5F809385019091850180918701981749
:1011300031F480918801882311F010928501FF918C
:10114000EF919F918F912F910F900FBE0F901F9055
:1011500018951F920F920FB60F9211248F939F93A1
:10116000EF93FF93E0918901F0918A013097F9F0B4
:101170008091840190918601891738F58091C00093
:1011800085FF23C080918401E80FF11D8081809349
:10119000C600809184018F5F8093840116C0809186
:1011A0008301882321F48091C100806203C0809173
:1011B000C1008F7D8093C100FF91EF919F918F912E
:1011C0000F900FBE0F901F90189580918401891782
:1011D00070F7E5CF2F928F939F932FB680918E015A
:1011E00090918F01019680938E0190938F0190E0F2
:1011F00080919001891F80939001909196019C5F4E
:10120000909396018091950180519742C0F0909300
:1012100096018093950180919101909192010196A0
:10122000809391019093920190E080919301891FA6
:101230008093930180919401891F809394012FBE24
:101240009F918F912F90189528EE33E009C0F901F6
:101250006F9364E06A95F1F76F913197C9F7019741
:101260000097A9F7089528EE33E009C0F9016F93BC
:1012700064E06A95F1F76F913197C9F7019700978C
:10128000A9F70895FC01118210821382128215823F
:10129000148217821682613118F080E1808701C0C4
:1012A0006087208B483078F481E090E002C0880F9E
:1012B000991F4A95E2F781878BE290E093878287B6
:1012C0008AE290E029C04E3098F4242F30E0285074
:1012D000304081E090E002C0880F991F2A95E2F724
:1012E000818785E290E09387828784E290E014C052
:1012F0004431A8F4242F30E02E50304081E090E0BB
:1013000002C0880F991F2A95E2F7818788E290E052
:101310009387828787E290E0958784870895158672
:101320001486138612860895A0E0B0E0E9E9F9E09A
:1013300081C5EC016B01642F7901402F20E0A2DF11
:10134000CE018F5B9F4FFC011082FE01EE5BFF4FD1
:101350001082DE01AD5BBF4F1C92FF86EE8630E04F
:1013600041E050E07F0166E2662E712C8C0123E2A1
:10137000822E912CBD0199E2A92EB12C58C0A32F29
:10138000B0E0F601EA0FFB1F80818830C0F4FA015B
:1013900002C0EE0FFF1F8A95E2F7CF01FE01EA0FB0
:1013A000FB1F818BFB012081282B2083AA0FBB1FF1
:1013B000AC0FBD1F9296BC92AE92919737C08E3003
:1013C000D0F490E00897FA0102C0EE0FFF1F8A9553
:1013D000E2F7CF01FE01EA0FFB1F818BF8012081AC
:1013E000282B2083AA0FBB1FAC0FBD1F92969C9287
:1013F0008E9291971BC08431C8F490E00E97FA0149
:1014000002C0EE0FFF1F8A95E2F7CF01FE01EA0F3F
:10141000FB1F818BF7012081282B2083AA0FBB1F84
:10142000AC0FBD1F92967C926E9291973F5F88851C
:10143000381708F4A4CFCDB7DEB7EEE017C5A0E0AB
:10144000B0E0E4E2FAE0F8C4EC015B01CF5BDF4F0F
:101450004991A9918880C354D04090E009C0E92FF8
:10146000F0E0EE0FFF1FEA0DFB1D118210829F5F5F
:1014700088859817A0F384B1CF5BDF4F3991832B18
:1014800084B987B12991822B87B98AB19881C354D5
:10149000D040892B8AB985B1832B85B988B1822B3D
:1014A00088B98BB1892B8BB9EAE0F0E06F9364E0E7
:1014B0006A95F1F76F913197C9F784B1309583231D
:1014C00084B987B12095822387B98AB19095892301
:1014D0008AB985B1382335B988B1282328B98BB1A9
:1014E00098239BB99090B000C090B1008091B0005B
:1014F00083608093B00082E08093B100D090B2000E
:1015000060E070E03AC05091B2005D19650F711D46
:10151000E3B0E41609F04FC0F6B0FA1609F04BC07C
:1015200089B1881509F047C025C0A42FB0E09D01FE
:10153000220F331F8501020F131FF8018081918153
:10154000892BA1F42C0F3D1FF90181A192A1FC016F
:10155000208130E0AC0FBD1F51968C9190E0282384
:101560003923232B19F4F801718360834F5F888539
:101570004817D8F2D50E4E2DAF2D8E859F85681752
:10158000790708F29092B000C092B10020E00FC03D
:10159000E22FF0E0EE0FFF1FEA0DFB1D808191812D
:1015A000892B21F48E859F85918380832F5F888589
:1015B000281770F305C0E3B0F6B089B040E0D7CF8C
:1015C000CDB7DEB7ECE054C4A0E0B0E0E9EEFAE05D
:1015D00037C4EC018B01D0907C00E0907A00C7B05A
:1015E000F8B080917A0086FDFCCF90E009C0E92F29
:1015F000F0E0EE0FFF1FE00FF11F118210829F5FDE
:1016000088859817A0F397B18AA18095982397B9F8
:1016100098B1892388B987E880937A0050E024C084
:10162000FE01E40FF11D818980937C0080917A0096
:10163000806480937A0080917A0086FDFCCFE42F4D
:10164000F0E0EE0FFF1FE00FF11F209178003091C6
:10165000790080819181820F931F918380834F5FF6
:1016600088854817E8F25F5F89A1581710F040E0BD
:1016700016C040E0F5CFE42FF0E0EE0FFF1FE00FC3
:10168000F11F69A1862F90E0959587952081318182
:10169000820F931F70E066D3718360834F5F8885EC
:1016A000481748F3D0927C00E0927A00F8B8C7B8A7
:1016B000CDB7DEB7E8E0E0C3A0E2B0E0E1E6FBE0F2
:1016C000BEC38C017B01D42E842F81508230B0F4B4
:1016D000D8011C96ED91FC911D97309779F080818F
:1016E00019969C911997892B80831A96ED91FC91FC
:1016F0001B97808119969C91892B8083F8018089A2
:10170000882339F5C02EB12EC801B70198DED80163
:101710001C96ED91FC911D97309781F08081199670
:101720009C911997892B80831A96ED91FC911B97B8
:10173000908119968C91809589238083B2E0DB1685
:1017400009F050C08C2D9B2DBE016F5F7F4F77DE5F
:1017500025C0C02EB12EC801B70136DFD8011C96B6
:10176000ED91FC911D97309781F0808119969C91A5
:101770001997892B80831A96ED91FC911B97908184
:1017800019968C91809589238083B2E0DB1651F500
:101790008C2D9B2DBE016F5F7F4F16DF40E0BE0199
:1017A0006F5F7F4F1AC0E42FF0E0EE0FFF1F67015D
:1017B000CE0EDF1EE60FF71FD8011E962D913C912D
:1017C0001F9780819181281B390BF60180819181BF
:1017D000820F931F918380834F5FD80118968C915D
:1017E000481708F3A096E9E046C3A0E0B0E0EAEFAE
:1017F000FBE023C3EC01162F072F942E22E04217A3
:1018000011F0442351F48C819D81892B09F4A1C0EE
:101810008E819F81892B09F49CC0892D8150823053
:1018200050F488819981892B09F493C08A819B8126
:10183000892B09F48EC0CE01612F702F492D3CDF1A
:10184000812F902F9C015901CC24DD2400E010E071
:101850007AC081E0981669F4EA81FB81E00FF11FFC
:1018600020813181E881F981E00FF11F40815181B0
:101870003DC0AC81BD81992059F4EE81FF81E00F1C
:10188000F11F20813181A00FB11F4D915C912EC0BD
:10189000A00FB11F8D919C91E881F981E00FF11F9C
:1018A00020813181EE85FF858217930710F4AF0107
:1018B00005C0A9014E0F5F1F481B590BEE81FF8128
:1018C000E00FF11F60817181EA81FB81E00FF11F60
:1018D00080819181EE85FF856817790710F49F015B
:1018E00005C09C012E0F3F1F261B370B7901E41A00
:1018F000F50AF1F0F5016081718180E090E09A01D4
:1019000040E050E0621B730B840B950B28EE33E034
:1019100040E050E0FCD1970140E050E06CD2C901BA
:10192000F3E0293E3F0714F088EE93E097FF02C0F2
:1019300080E090E0F501819391935F010894C11CD0
:10194000D11C0E5F1F4F888590E0C816D9060CF495
:1019500080CFCDB7DEB7EBE08CC2A4E0B0E0E2EB25
:10196000FCE064C28C01F62EE72E2A833EDFD8010C
:101970001896BC91B9832F2D3E2DC9018C01552499
:1019800044246624772443011C821B82AA24BB249E
:101990006501B8EE2B2EB3E03B2E31C0F801E0809C
:1019A000F180FA81FF2321F091012E193F0979017D
:1019B00039ECE316F10414F04424439483E3E8166D
:1019C000F10494F0B701882777FD8095982FA60140
:1019D00095019DD1660E771E881E991EAB81BC8134
:1019E000AE0DBF1DBC83AB83539488EE93E0A0E0A3
:1019F000B0E0A80EB91ECA1EDB1E0E5F1F4F9981F4
:101A0000591660F2442021F5692F70E084EF91E0CF
:101A1000DC016A9FC0016B9F900D7A9F900D11248D
:101A2000845F9140209198013091990128173907DE
:101A30001CF440E050E019C088EE93E0689FA001DC
:101A4000699F500D789F500D1124485E53400DC082
:101A5000EB81FC819F0140E050E0C401B301A9D1BA
:101A6000A9013093990120939801CA012496E2E1DB
:101A7000F9C19C01462F80919A0190919B01B90177
:101A800020E06BCFA3E6B0E0E7E4FDE0CFC17C014E
:101A90005B016A01A2962FAFA297DA018D919C910A
:101AA000892B11F5F701808590E0880F991F0E941E
:101AB0007201D6018D939C93009709F4DEC020E05B
:101AC00030E00CC0C901880F991FD601ED91FC913F
:101AD000E80FF91F118210822F5F3F4FF7018085B9
:101AE00090E02817390774F3D5018D919C91892BCB
:101AF00089F000E010E03E010894611C711C41E493
:101B0000242E312C2C0E3D1E31E2432E512C4C0E36
:101B10005D1E28C0F701808590E0880F991F0E9404
:101B20007201D5018D939C93009709F4A6C020E023
:101B300030E011C0C901880F991FD501ED91FC91CA
:101B4000E80FF91FD7011E968D919C911F979183E5
:101B500080832F5F3F4FF701808590E0281739077A
:101B60004CF3C7CFC701B301A2964FADA297A4DD36
:101B7000D70118968C91882E9924A101F301A4967F
:101B80005FAE4EAEA49760E070E034C00115110561
:101B900059F0A496AEADBFADA4972D913C91808134
:101BA00091812817390758F480819181A496AEADB0
:101BB000BFADA4978D939C930115110541F0DA01F7
:101BC0002D913C91808191818217930728F4808127
:101BD0009181DA018D939C936F5F7F4F4E5F5F4FD2
:101BE0003296A4968EAD9FADA4970296A4969FAF11
:101BF0008EAFA497681579054CF20F5F1F4F0A301E
:101C0000110509F0AFCF40E050E020E030E08E0158
:101C10000F5B1F4FBE016F5D7F4F28C0F801E20FC1
:101C2000F31F80809180F601A081B181A20FB31FC4
:101C30008D919C9111978815990510F48D929C9225
:101C4000FB01E20FF31F80809180F501A081B1813B
:101C5000A20FB31F8D919C9111978816990610F4CD
:101C60008D929C924F5F5F4F2E5F3F4FD70118962A
:101C70008C9190E0481759078CF2CD59DF4FE2E183
:101C8000F1C01F93CF93DF93EC01162F862F815065
:101C9000823038F4AE014E5F5F4FCE01BE0121E0CD
:101CA000F1DE123011F0112341F4AE014A5F5F4FB3
:101CB000CE012496BE0120E0E5DEDF91CF911F9199
:101CC0000895682F80919A0190919B01DACFA0E04E
:101CD000B0E0ECE6FEE0B4C08C01D62E7A01C22E54
:101CE00084E490E00E947201EC01009711F480E01E
:101CF0000AC0B8014D2D97010C2D16DBD0939B0126
:101D0000C0939A0181E0CDB7DEB7E8E0B5C0629F2D
:101D1000D001739FF001829FE00DF11D649FE00DE3
:101D2000F11D929FF00D839FF00D749FF00D659F44
:101D3000F00D9927729FB00DE11DF91F639FB00D43
:101D4000E11DF91FBD01CF0111240895991B79E010
:101D500004C0991F961708F0961B881F7A95C9F73B
:101D600080950895AA1BBB1B51E107C0AA1FBB1F8A
:101D7000A617B70710F0A61BB70B881F991F5A9517
:101D8000A9F780959095BC01CD01089597FB092E88
:101D900007260AD077FD04D0E5DF06D000201AF42C
:101DA000709561957F4F0895F6F7909581959F4FB7
:101DB0000895A1E21A2EAA1BBB1BFD010DC0AA1F8C
:101DC000BB1FEE1FFF1FA217B307E407F50720F0A4
:101DD000A21BB30BE40BF50B661F771F881F991F1F
:101DE0001A9469F760957095809590959B01AC0168
:101DF000BD01CF01089597FB092E05260ED057FD92
:101E000004D0D7DF0AD0001C38F4509540953095A7
:101E100021953F4F4F4F5F4F0895F6F7909580956E
:101E2000709561957F4F8F4F9F4F08952F923F92EE
:101E30004F925F926F927F928F929F92AF92BF92DA
:101E4000CF92DF92EF92FF920F931F93CF93DF9386
:101E5000CDB7DEB7CA1BDB0B0FB6F894DEBF0FBEE3
:101E6000CDBF09942A88398848885F846E847D8430
:101E70008C849B84AA84B984C884DF80EE80FD8032
:101E80000C811B81AA81B981CE0FD11D0FB6F894A8
:101E9000DEBF0FBECDBFED010895EE0FFF1F059011
:0A1EA000F491E02D0994F894FFCFAF
:101EAA00507265737320427574746F6E204120748A
:101EBA006F2073746172742063616C6962726174F9
:101ECA00696E672E2E2E0A00507265737320427552
:101EDA0074746F6E204120746F2073746172742061
:101EEA006C696E6520666F6C6C6F77696E672E2EF3
:101EFA002E0A000407131211100F0E040400D00753
:0C1F0A00F4010F000120000402000000A0
:00000001FF
