:1000000033C000004DC000004BC0000049C00000DC
:1000100047C0000045C0000043C0000041C00000D0
:100020003FC00000DAC400003BC0000039C000003F
:1000300037C0000035C0000033C0000031C00000F0
:100040002FC000002DC000004FC4000085C4000078
:1000500027C0000025C0000023C0000021C0000010
:100060001FC000001DC0000011241FBECFEFD8E04C
:10007000DEBFCDBF11E0A0E0B1E0ECE8F6E102C0E8
:1000800005900D92A236B107D9F711E0A2E6B1E0D2
:1000900001C01D92A13FB107E1F768D00C94440B59
:1000A000AFCF289A209AD3D42898209A0895A8E010
:1000B000B0E0EDE5F0E00C941B0B60E875E280E049
:1000C00090E077D389E891E064E60DD3DE011196E4
:1000D000E3E5F1E088E001900D928150E1F7CE0177
:1000E000019668E040ED57E022E00E946A0A88EC41
:1000F00090E0D7DF80E091E067E2F4D382E0F1D2D4
:1001000082E0B7D280E293E0A2D40CEE1FEF083277
:10011000110528F08CE390E064EC7FEF04C084ECE0
:100120009FEF6CE370E072D281E00E94640A84E188
:1001300090E08DD40F5F1F4F0C33110541F780E025
:1001400090E060E070E062D288EC90E0AADF88E2A4
:1001500091E06AE2C7D382E0C4D282E08AD288EC1E
:1001600090E09FDF2896E4E00C94370BADE1B0E01F
:10017000ECEBF0E00C940D0B1A861B861C861D869A
:1001800096DFCC24DD24EE24FF245AE0252E312CEA
:100190002C0E3D1E46E0442E512C4C0E5D1E38E0C8
:1001A000632E712C6C0E7D1E2CE3A22EB12C94ECD0
:1001B000892E9FEF992ECE010E9661E00E943C0998
:1001C0009B838A838C0106501E401D830C83F8019B
:1001D000EC19FD09FF83EE839801442737FD409514
:1001E000542F8A859B85AC85BD85820F931FA41FE4
:1001F000B51F8A879B87AC87BD87EE0FFF1FC8019D
:1002000062E370E00E94BD0AE60FF71FF987E887F6
:1002100024E6E216F104C8F084E78983CE01019652
:1002200061E060D3CE01029662E05CD3CE01049619
:1002300062E058D3C10162E055D3C20162E052D3FB
:10024000C30162E04FD3EE24FF2488859985CD97C2
:1002500014F0B986A88688859985845C9F4F14F42C
:10026000998688868885998597FF04C0CC966CE32B
:1002700070E005C0B501681B790B8CE390E0C6D136
:100280000894E11CF11C680196CFCF93DF93BC0169
:100290008230910510F462E070E0A091EF01B0911E
:1002A000F001ED01E0E0F0E040E050E021C08881A5
:1002B00099818617970769F48A819B81309719F095
:1002C0009383828304C09093F0018093EF01FE0139
:1002D00034C06817790738F44115510519F08417AF
:1002E000950708F4AC01FE018A819B819C01E9011C
:1002F0002097E9F641155105A9F1CA01861B970B14
:10030000049708F4BA01E0E0F0E02AC08D919C91D6
:10031000119784179507F9F46417750781F41296FD
:100320008D919C911397309719F09383828304C029
:100330009093F0018093EF01FD0132964CC0CA0109
:10034000861B970BFD01E80FF91F619371930297CC
:100350008D939C9340C0FD01828193819C01D901C2
:100360001097A1F68091ED019091EE01892B41F457
:1003700080915D0190915E019093EE018093ED017B
:1003800040915F01509160014115510541F44DB715
:100390005EB780915B0190915C01481B590B2091E5
:1003A000ED013091EE01CA01821B930B861797076E
:1003B00080F0AB014E5F5F4F8417950750F0420FFE
:1003C000531F5093EE014093ED01F9016193719336
:1003D00002C0E0E0F0E0CF01DF91CF910895CF932C
:1003E000DF93009709F450C0EC0122971B821A8218
:1003F000A091EF01B091F001109709F140E050E0B9
:10040000AC17BD0708F1BB83AA83FE01219131918E
:10041000E20FF31FAE17BF0779F48D919C911197EE
:10042000280F391F2E5F3F4F3983288312968D91F5
:100430009C9113979B838A834115510571F4D09346
:10044000F001C093EF0120C012968D919C911397FB
:10045000AD01009711F0DC01D3CFFA01D383C28341
:1004600021913191E20FF31FCE17DF0769F48881E4
:100470009981280F391F2E5F3F4FFA013183208366
:100480008A819B8193838283DF91CF910895282F66
:10049000883068F481E090E002C0880F991F2A95A7
:1004A000E2F7282FAAE2B0E0EBE2F0E029C08E30BC
:1004B00080F430E02850304081E090E002C0880FA6
:1004C000991F2A95E2F7282FA4E2B0E0E5E2F0E0D8
:1004D00017C0853130F020E0A0E0B0E0E0E0F0E0CF
:1004E0000FC030E02E50304081E090E002C0880F15
:1004F000991F2A95E2F7282FA7E2B0E0E8E2F0E0A2
:100500006F3F19F48081822709C0662319F080812A
:10051000822B04C09081822F8095892380838C91C7
:10052000822B8C930895E0EBF0E083EF8083808151
:1005300084BDE1EBF0E082E08083808185BDE4EB67
:10054000F0E010828081E3EBF0E08083808188BD61
:1005500088B587BD86E060E09ADF85E060E097DFE0
:100560008BE060E094DF83E060E091CF80916201F6
:10057000882321F481E080936201D5CF0895CF9341
:10058000DF93EC01F3DFD7FD02C020E004C0D0957B
:10059000C195DF4F21E0CE01CF3FD10519F014F016
:1005A0008FEF90E0222319F018BC87BD02C088BDF0
:1005B00017BCDF91CF910895CF93DF93EC01D6DF85
:1005C000D7FD02C020E004C0D095C195DF4F21E0E7
:1005D000CE01CF3FD10519F014F08FEF90E0222328
:1005E00029F01092B4008093B30004C08093B4004B
:1005F0001092B300DF91CF9108950F931F938B0159
:10060000BEDFC801D9DF1F910F910895F6CF08957D
:100610001F93CF93DF93182F80916301882391F468
:1006200081E08093630184B18D7C84B985B182635C
:1006300085B985E090E06F9364E06A95F1F76F917A
:100640000197C9F7C12FD0E083B190E08C239D239F
:10065000892BD1F38AE090E009D283B190E08C231A
:100660009D23892B89F383B18123DF91CF911F9142
:100670000895CECF08951F93CF93DF93182F8091C5
:100680006301882391F481E08093630184B18D7CC0
:1006900084B985B1826385B985E090E06F9364E0A9
:1006A0006A95F1F76F910197C9F7C12FD0E083B137
:1006B00090E0809590958C239D23892BC1F38AE04F
:1006C00090E0D4D183B190E0809590958C239D23C8
:1006D000892B69F383B180958123DF91CF911F919D
:1006E0000895C9CF08952091C1002F772093C100AC
:1006F0009093790180937801109272016093740154
:1007000081E08093750180917001882329F48091A4
:10071000C10080688093C100089520917001222358
:1007200011F488E901C088E18093C10080917601CD
:1007300090917701892B79F09091710180917301EB
:10074000981748F4222339F48091C1008062809385
:10075000C100789408958091C1008F7DF8CFEF9209
:10076000FF920F931F937B018C0180E0D6DF60EA3C
:1007700075E286E290E06E197F09800B910B33E001
:10078000660F771F881F991F3A95D1F724E0EE0C6A
:10079000FF1C001F111F2A95D1F7A801970100D750
:1007A0003093C5002093C4001F910F91FF90EF90EC
:1007B0000895D5CF08958091C1008F7D8093C100A9
:1007C000E0917601F0917701309709F45DC0809156
:1007D000710190917301891708F05AC08091C0008F
:1007E00085FF56C080917101E80FF11D80818093D3
:1007F000C600809171018F5F8093710149C0809123
:100800007001882309F040C08091C100806280930C
:10081000C1008091C1008F778093C100E091780181
:10082000F0917901309731F18091720190917401CA
:10083000891700F58091C00087FF1CC02091C60079
:1008400080917201891750F480917201E80FF11DB7
:100850002083809172018F5F809372019091720169
:1008600080917401981731F480917501882311F0FB
:100870001092720180917001882379F48091C100F7
:1008800080688093C10008958091C1008F7DBFCFA3
:10089000809171018917C0F7B2CF089590937701C5
:1008A000809376011092710160937301892BA1F0FE
:1008B00080917101861780F480917001882361F422
:1008C0008091C10080620BC076DF909171018091B0
:1008D00073019817C9F708958091C1008F7D8093A7
:1008E000C100F3CFDBCF08951F920F920FB60F9286
:1008F00011242F938F939F93EF93FF932091C60022
:10090000E0917801F0917901309781F09091720136
:1009100080917401981750F480917201E80FF11DD5
:100920002083809172018F5F809372019091720198
:1009300080917401981731F480917501882311F02A
:1009400010927201FF91EF919F918F912F910F90D3
:100950000FBE0F901F9018951F920F920FB60F9217
:1009600011248F939F93EF93FF93E0917601F09181
:1009700077013097F9F08091710190917301891797
:1009800038F58091C00085FF23C080917101E80F88
:10099000F11D80818093C600809171018F5F8093EB
:1009A000710116C080917001882321F48091C100EB
:1009B000806203C08091C1008F7D8093C100FF9150
:1009C000EF919F918F910F900FBE0F901F901895F0
:1009D00080917101891770F7E5CF2F928F939F93C4
:1009E0002FB680917B0190917C01019680937B01D1
:1009F00090937C0190E080917D01891F80937D011F
:100A0000909183019C5F909383018091820180513A
:100A10009742C0F0909383018093820180917E0180
:100A200090917F01019680937E0190937F0190E0E9
:100A300080918001891F8093800180918101891FAD
:100A4000809381012FBE9F918F912F90189528EE52
:100A500033E009C0F9016F9364E06A95F1F76F9193
:100A60003197C9F701970097A9F7089528EE33E069
:100A700009C0F9016F9364E06A95F1F76F913197BE
:100A8000C9F701970097A9F70895FC011182108218
:100A9000138212821582148217821682613118F035
:100AA00080E1808701C06087208B483078F481E046
:100AB00090E002C0880F991F4A95E2F781878BE288
:100AC00090E0938782878AE290E029C04E3098F4C4
:100AD000242F30E02850304081E090E002C0880FA1
:100AE000991F2A95E2F7818785E290E093878287B4
:100AF00084E290E014C04431A8F4242F30E02E505A
:100B0000304081E090E002C0880F991F2A95E2F7FB
:100B1000818788E290E09387828787E290E09587DB
:100B20008487089515861486138612860895A0E09A
:100B3000B0E0ECE9F5E075C5EC016B01642F7901DB
:100B4000402F20E0A2DFCE018F5B9F4FFC0110827F
:100B5000FE01EE5BFF4F1082DE01AD5BBF4F1C92CA
:100B6000FF86EE8630E041E050E07F0166E2662ECF
:100B7000712C8C0123E2822E912CBD0199E2A92EC9
:100B8000B12C58C0A32FB0E0F601EA0FFB1F808103
:100B90008830C0F4FA0102C0EE0FFF1F8A95E2F719
:100BA000CF01FE01EA0FFB1F818BFB012081282B67
:100BB0002083AA0FBB1FAC0FBD1F9296BC92AE92B2
:100BC000919737C08E30D0F490E00897FA0102C0B8
:100BD000EE0FFF1F8A95E2F7CF01FE01EA0FFB1F20
:100BE000818BF8012081282B2083AA0FBB1FAC0F1B
:100BF000BD1F92969C928E9291971BC08431C8F42F
:100C000090E00E97FA0102C0EE0FFF1F8A95E2F7FF
:100C1000CF01FE01EA0FFB1F818BF7012081282BFA
:100C20002083AA0FBB1FAC0FBD1F92967C926E92C1
:100C300091973F5F8885381708F4A4CFCDB7DEB70A
:100C4000EEE00BC5A0E0B0E0E7E2F6E0ECC4EC01BA
:100C50005B01CF5BDF4F4991A9918880C354D0409D
:100C600090E009C0E92FF0E0EE0FFF1FEA0DFB1D39
:100C7000118210829F5F88859817A0F384B1CF5BA3
:100C8000DF4F3991832B84B987B12991822B87B9A2
:100C90008AB19881C354D040892B8AB985B1832BFE
:100CA00085B988B1822B88B98BB1892B8BB9EAE0E1
:100CB000F0E06F9364E06A95F1F76F913197C9F7AF
:100CC00084B13095832384B987B12095822387B975
:100CD0008AB1909589238AB985B1382335B988B10D
:100CE000282328B98BB198239BB99090B000C0906D
:100CF000B1008091B00083608093B00082E0809367
:100D0000B100D090B20060E070E03AC05091B20003
:100D10005D19650F711DE3B0E41609F04FC0F6B020
:100D2000FA1609F04BC089B1881509F047C025C0F3
:100D3000A42FB0E09D01220F331F8501020F131F66
:100D4000F80180819181892BA1F42C0F3D1FF901BD
:100D500081A192A1FC01208130E0AC0FBD1F519612
:100D60008C9190E028233923232B19F4F801718307
:100D700060834F5F88854817D8F2D50E4E2DAF2D72
:100D80008E859F856817790708F29092B000C0920F
:100D9000B10020E00FC0E22FF0E0EE0FFF1FEA0DE0
:100DA000FB1D80819181892B21F48E859F85918304
:100DB00080832F5F8885281770F305C0E3B0F6B0F5
:100DC00089B040E0D7CFCDB7DEB7ECE048C4A0E0B3
:100DD000B0E0ECEEF6E02BC4EC018B01D0907C008F
:100DE000E0907A00C7B0F8B080917A0086FDFCCF21
:100DF00090E009C0E92FF0E0EE0FFF1FE00FF11FB8
:100E0000118210829F5F88859817A0F397B18AA1FD
:100E10008095982397B998B1892388B987E88093FA
:100E20007A0050E024C0FE01E40FF11D8189809317
:100E30007C0080917A00806480937A0080917A00AF
:100E400086FDFCCFE42FF0E0EE0FFF1FE00FF11F57
:100E5000209178003091790080819181820F931FD9
:100E6000918380834F5F88854817E8F25F5F89A18F
:100E7000581710F040E016C040E0F5CFE42FF0E046
:100E8000EE0FFF1FE00FF11F69A1862F90E09595EF
:100E9000879520813181820F931F70E05AD371832F
:100EA00060834F5F8885481748F3D0927C00E092BA
:100EB0007A00F8B8C7B8CDB7DEB7E8E0D4C3A0E28F
:100EC000B0E0E4E6F7E0B2C38C017B01D42E842FBE
:100ED00081508230B0F4D8011C96ED91FC911D97A1
:100EE000309779F0808119969C911997892B80838E
:100EF0001A96ED91FC911B97808119969C91892BF4
:100F00008083F8018089882339F5C02EB12EC8016D
:100F1000B70198DED8011C96ED91FC911D97309792
:100F200081F0808119969C911997892B80831A965C
:100F3000ED91FC911B97908119968C918095892356
:100F40008083B2E0DB1609F050C08C2D9B2DBE01D2
:100F50006F5F7F4F77DE25C0C02EB12EC801B7016D
:100F600036DFD8011C96ED91FC911D97309781F0EA
:100F7000808119969C911997892B80831A96ED91FF
:100F8000FC911B97908119968C9180958923808381
:100F9000B2E0DB1651F58C2D9B2DBE016F5F7F4FAC
:100FA00016DF40E0BE016F5F7F4F1AC0E42FF0E014
:100FB000EE0FFF1F6701CE0EDF1EE60FF71FD801F1
:100FC0001E962D913C911F9780819181281B390B92
:100FD000F60180819181820F931F918380834F5FFF
:100FE000D80118968C91481708F3A096E9E03AC307
:100FF000A0E0B0E0EDEFF7E017C3EC01162F072FEC
:10100000942E22E0421711F0442351F48C819D81EB
:10101000892B09F4A1C08E819F81892B09F49CC082
:10102000892D8150823050F488819981892B09F46F
:1010300093C08A819B81892B09F48EC0CE01612FD8
:10104000702F492D3CDF812F902F9C015901CC241A
:10105000DD2400E010E07AC081E0981669F4EA81AE
:10106000FB81E00FF11F20813181E881F981E00FE0
:10107000F11F408151813DC0AC81BD81992059F45F
:10108000EE81FF81E00FF11F20813181A00FB11FA0
:101090004D915C912EC0A00FB11F8D919C91E88164
:1010A000F981E00FF11F20813181EE85FF858217E4
:1010B000930710F4AF0105C0A9014E0F5F1F481B35
:1010C000590BEE81FF81E00FF11F60817181EA8190
:1010D000FB81E00FF11F80819181EE85FF8568170C
:1010E000790710F49F0105C09C012E0F3F1F261B9E
:1010F000370B7901E41AF50AF1F0F501608171818D
:1011000080E090E09A0140E050E0621B730B840B9A
:10111000950B28EE33E040E050E0FCD1970140E031
:1011200050E060D2C901F3E0293E3F0714F088EE99
:1011300093E097FF02C080E090E0F50181939193E6
:101140005F010894C11CD11C0E5F1F4F888590E081
:10115000C816D9060CF480CFCDB7DEB7EBE080C25D
:10116000A4E0B0E0E5EBF8E058C28C01F62EE72EE3
:101170002A833EDFD8011896BC91B9832F2D3E2DCE
:10118000C9018C01552444246624772443011C8220
:101190001B82AA24BB246501B8EE2B2EB3E03B2EA4
:1011A00031C0F801E080F180FA81FF2321F0910144
:1011B0002E193F09790139ECE316F10414F04424A7
:1011C000439483E3E816F10494F0B701882777FD90
:1011D0008095982FA60195019DD1660E771E881ED9
:1011E000991EAB81BC81AE0DBF1DBC83AB835394F4
:1011F00088EE93E0A0E0B0E0A80EB91ECA1EDB1E88
:101200000E5F1F4F9981591660F2442021F5692F16
:1012100070E084EF91E0DC016A9FC0016B9F900D4C
:101220007A9F900D1124845F914020918501309127
:101230008601281739071CF440E050E019C088EEF9
:1012400093E0689FA001699F500D789F500D112475
:10125000485E53400DC0EB81FC819F0140E050E0AF
:10126000C401B3019DD1A90130938601209385016A
:10127000CA012496E2E1EDC19C01462F80918701CD
:1012800090918801B90120E06BCFA3E6B0E0EAE4D9
:10129000F9E0C3C17C015B016A01A2962FAFA2975E
:1012A000DA018D919C91892B11F5F701808590E0F1
:1012B000880F991F0E944501D6018D939C9300973A
:1012C00009F4DEC020E030E00CC0C901880F991F8E
:1012D000D601ED91FC91E80FF91F118210822F5F6A
:1012E0003F4FF701808590E02817390774F3D50147
:1012F0008D919C91892B89F000E010E03E010894CB
:10130000611C711C41E4242E312C2C0E3D1E31E257
:10131000432E512C4C0E5D1E28C0F701808590E0B5
:10132000880F991F0E944501D5018D939C930097CA
:1013300009F4A6C020E030E011C0C901880F991F50
:10134000D501ED91FC91E80FF91FD7011E968D9103
:101350009C911F97918380832F5F3F4FF70180857A
:1013600090E0281739074CF3C7CFC701B301A29605
:101370004FADA297A4DDD70118968C91882E9924A1
:10138000A101F301A4965FAE4EAEA49760E070E0B9
:1013900034C00115110559F0A496AEADBFADA497A8
:1013A0002D913C91808191812817390758F48081D3
:1013B0009181A496AEADBFADA4978D939C9301157A
:1013C000110541F0DA012D913C91808191818217C4
:1013D000930728F480819181DA018D939C936F5F4C
:1013E0007F4F4E5F5F4F3296A4968EAD9FADA49710
:1013F0000296A4969FAF8EAFA497681579054CF21C
:101400000F5F1F4F0A30110509F0AFCF40E050E0E9
:1014100020E030E08E010F5B1F4FBE016F5D7F4FFC
:1014200028C0F801E20FF31F80809180F601A081AF
:10143000B181A20FB31F8D919C91119788159905C9
:1014400010F48D929C92FB01E20FF31F808091803B
:10145000F501A081B181A20FB31F8D919C911197CD
:101460008816990610F48D929C924F5F5F4F2E5F05
:101470003F4FD70118968C9190E0481759078CF28E
:10148000CD59DF4FE2E1E5C01F93CF93DF93EC012D
:10149000162F862F8150823038F4AE014E5F5F4F99
:1014A000CE01BE0121E0F1DE123011F0112341F432
:1014B000AE014A5F5F4FCE012496BE0120E0E5DE1B
:1014C000DF91CF911F910895682F809187019091AE
:1014D0008801DACFA0E0B0E0EFE6FAE0A8C08C0126
:1014E000D62E7A01C22E84E490E00E944501EC01E0
:1014F000009711F480E00AC0B8014D2D97010C2D22
:1015000016DBD0938801C093870181E0CDB7DEB7A9
:10151000E8E0A9C0629FD001739FF001829FE00DB7
:10152000F11D649FE00DF11D929FF00D839FF00D62
:10153000749FF00D659FF00D9927729FB00DE11D0E
:10154000F91F639FB00DE11DF91FBD01CF011124EB
:101550000895AA1BBB1B51E107C0AA1FBB1FA617FA
:10156000B70710F0A61BB70B881F991F5A95A9F74C
:1015700080959095BC01CD01089597FB092E072613
:101580000AD077FD04D0E5DF06D000201AF470956C
:1015900061957F4F0895F6F7909581959F4F089537
:1015A000A1E21A2EAA1BBB1BFD010DC0AA1FBB1F67
:1015B000EE1FFF1FA217B307E407F50720F0A21BD9
:1015C000B30BE40BF50B661F771F881F991F1A9446
:1015D00069F760957095809590959B01AC01BD0170
:1015E000CF01089597FB092E05260ED057FD04D094
:1015F000D7DF0AD0001C38F45095409530952195DE
:101600003F4F4F4F5F4F0895F6F790958095709537
:1016100061957F4F8F4F9F4F08952F923F924F922A
:101620005F926F927F928F929F92AF92BF92CF9272
:10163000DF92EF92FF920F931F93CF93DF93CDB77B
:10164000DEB7CA1BDB0B0FB6F894DEBF0FBECDBFF3
:1016500009942A88398848885F846E847D848C84C4
:101660009B84AA84B984C884DF80EE80FD800C81CD
:101670001B81AA81B981CE0FD11D0FB6F894DEBFB0
:0C1680000FBECDBFED010895F894FFCF20
:10168C00507265737320427574746F6E20412074B0
:10169C006F2073746172742063616C69627261741F
:1016AC00696E672E2E2E0A00507265737320427578
:1016BC0074746F6E204120746F2073746172742087
:1016CC006C696E6520666F6C6C6F77696E672E2E19
:1016DC002E0A000407131211100F0E2000F1010046
:0216EC000000FC
:00000001FF
