:100000005AC0000074C0000072C0000070C0000040
:100010006EC000006CC000006AC0000068C0000034
:1000200066C000000C94820B62C0000060C000003B
:100030005EC000000C9453085AC0000058C0000075
:1000400056C0000054C0000052C0000050C0000064
:100050004EC000004CC000004AC0000048C0000074
:1000600046C0000044C00000C905CF05D205D50533
:10007000D805DB05DE05E105E405E705EA05ED0544
:1000800020506F6C6F6C750033F720526F626F7485
:100090000057616C6C00466F6C6C6F776572003E48
:1000A0006733323E3E633332004C31362063646541
:1000B00067726567340011241FBECFEFD8E0DEBF42
:1000C000CDBF12E0A0E0B1E0EAE2F9E102C00590A4
:1000D0000D92A832B107D9F712E0A8E2B2E001C050
:1000E0001D92A335B107E1F755D00C94930C88CF3E
:1000F00080E890E00E94600A80E061E00E94A70929
:1001000088E890E00E94600A8FE990E0CAD788EE04
:1001100093E00E94BC0B0E94D50981E990E00E9407
:10012000600A80E061E00E94A70986E990E00E94F1
:10013000600A88EE93E017C00E94D50931D4A0E090
:10014000B0E0BC01CD010E94510A80E091E00E9424
:100150006E0A80E061E00E94A70983E091E00E94BE
:100160006E0A84E690E00E94BC0B80E10E94340B92
:10017000882311F380E10E94800B0E94D5098BE057
:1001800091E00E946E0A89EA90E08BD70BD4882315
:10019000E9F70895ADDF82E390E062E370E00E944A
:1001A000320B489904C082E390E050D0FACF4999CD
:1001B000F8CF82E390E03CD0F4CFDF92EF92FF9251
:1001C0000F931F93D82E82E390E09B01289FB001EC
:1001D000299F700D389F700D1124882777FD809519
:1001E000982FEBD020E030E040E151E43DD041D108
:1001F0007B018C013CE4D31639F082E5D81649F036
:1002000022E4D21679F405C088ED9FEF68E270E031
:1002100004C088E290E068ED7FEF0E94320BC701D6
:100220000E94BC0B1F910F91FF90EF90DF900895FB
:100230000F931F938C018CE46AE570E0BEDFC80168
:10024000B8010E94320B1F910F9108950F931F93D5
:100250008C0182E56AE570E0B0DFC801B8010E9458
:10026000320B1F910F910895A8E1B0E0EAE3F1E0AD
:100270000C945E0C69837A838B839C832D833E83ED
:100280004F835887B9E0EB2EF12CEC0EFD1ECE010A
:100290000196B70165D28E010F5E1F4FCE01059604
:1002A000B8015ED22985223008F47EC03989323007
:1002B00010F4B8017CC08A859A8989278A872430FE
:1002C00011F0223031F4231709F06EC06FE171E0B4
:1002D0006EC0343039F41D861E861F86188A1C862F
:1002E0001B8604C0323021F484E08987B7015FC0E7
:1002F0002B853C858B899C89281B390B3C872B8758
:10030000ED84FE840F851889AD88BE88CF88D88C8F
:10031000EA14FB040C051D0540F4EE0CFF1C001F45
:10032000111F215030403C872B8720E030E040E017
:1003300050E080E090E0A0E0B0E460E070E0EA141B
:10034000FB040C051D0540F0282B392B4A2B5B2B99
:10035000EA18FB080C091D09B695A795979587958E
:10036000EE0CFF1C001F111F6F5F7F4F6F31710577
:1003700031F7DA01C9018F779070A070B0708034C6
:100380009105A105B10561F427FD0AC0E114F1044E
:100390000105110529F0205C3F4F4F4F5F4F20783A
:1003A0002D873E874F87588BBE01675F7F4FCB01FC
:1003B00002D16896EAE00C947A0CA8E0B0E0E3EE93
:1003C000F1E00C945F0C9B01AC0183E08983DA01BE
:1003D000C9018827B7FD83959927AA27BB27B82E7F
:1003E000211531054105510519F482E0898339C091
:1003F0008823A9F0203080E0380780E0480780E8B3
:10040000580729F460E070E080E09FEC2EC0EE24F5
:10041000FF248701E21AF30A040B150B02C07901CD
:100420008A018EE1C82ED12CDC82CB82ED82FE8245
:100430000F831887C801B7016FD0019718161906E6
:1004400084F4082E04C0EE0CFF1C001F111F0A9438
:10045000D2F7ED82FE820F831887C81AD90ADC8290
:10046000CB82BA82CE010196A6D02896E9E00C9400
:100470007B0CACE0B0E0EFE3F2E00C94660C698337
:100480007A838B839C83CE010196BE016B5F7F4F85
:1004900067D18D81823061F1823050F1843021F456
:1004A0008E81882351F12EC02F81388537FD20C0E1
:1004B0006E812F3131051CF06623F9F023C08EE1E7
:1004C00090E0821B930B29853A854B855C8504C09F
:1004D00056954795379527958A95D2F76623B1F0BB
:1004E00050954095309521953F4F4F4F5F4F0EC02F
:1004F00020E030E040E050E009C02FEF3FEF4FEF49
:100500005FE704C020E030E040E050E8B901CA01F4
:100510002C96E2E00C94820CEF92FF920F931F93C3
:100520007B018C0180E0E81680E0F80681E0080796
:1005300080E0180788F48FEFE816F1040105110533
:1005400031F028F088E090E0A0E0B0E017C080E053
:1005500090E0A0E0B0E012C080E0E81680E0F8068D
:1005600080E0080781E0180728F088E190E0A0E02B
:10057000B0E004C080E190E0A0E0B0E020E230E034
:1005800040E050E0281B390B4A0B5B0B04C016956A
:100590000795F794E7948A95D2F7F701E95DFE4F46
:1005A0008081281B310941095109C9011F910F910F
:1005B000FF90EF900895DF92EF92FF920F931F93B9
:1005C000FC01E480F58006811781D1808081823032
:1005D00048F480E090E0A0E1B0E0E82AF92A0A2B94
:1005E0001B2BA5C0843009F49FC0823021F4EE2477
:1005F000FF24870105C0E114F1040105110519F478
:10060000E0E0F0E096C0628173819FEF6238790785
:100610000CF05BC022E83FEF261B370B2A31310577
:100620002CF020E030E040E050E02AC0B801A70103
:10063000022E04C076956795579547950A94D2F790
:1006400081E090E0A0E0B0E004C0880F991FAA1FED
:10065000BB1F2A95D2F70197A109B1098E219F21CD
:10066000A023B1230097A105B10521F081E090E01E
:10067000A0E0B0E09A01AB01282B392B4A2B5B2B71
:10068000DA01C9018F779070A070B0708034910545
:10069000A105B10539F427FF09C0205C3F4F4F4F3A
:1006A0005F4F04C0215C3F4F4F4F5F4FE0E0F0E0F1
:1006B0002030A0E03A07A0E04A07A0E45A0710F073
:1006C000E1E0F0E079018A0127C06038710564F546
:1006D000FB01E158FF4FD801C7018F779070A070E0
:1006E000B07080349105A105B10539F4E7FE0DC065
:1006F00080E490E0A0E0B0E004C08FE390E0A0E0F0
:10070000B0E0E80EF91E0A1F1B1F17FF05C0169563
:100710000795F794E794319687E016950795F79437
:10072000E7948A95D1F705C0EE24FF248701EFEF07
:10073000F0E06E2F679566276795902F9F77D79487
:10074000DD24D7948E2F8695492F462B582F5D296F
:10075000B701CA011F910F91FF90EF90DF900895AC
:10076000FC01DB01408151812281622F6F7770E0B3
:10077000221F2227221F9381892F880F822B282F47
:1007800030E0991F9927991F11969C931197211575
:100790003105A9F5411551056105710511F482E096
:1007A00037C082E89FEF13969C938E9312979A011D
:1007B000AB0167E0220F331F441F551F6A95D1F725
:1007C00083E08C930DC0220F331F441F551F1296D8
:1007D0008D919C911397019713969C938E931297EA
:1007E000203080E0380780E0480780E4580758F35D
:1007F00014962D933D934D935C93179708952F3F37
:10080000310579F4411551056105710519F484E04C
:100810008C93089564FF03C081E08C9312C01C92F6
:1008200010C02F57304013963C932E93129783E0BD
:100830008C9387E0440F551F661F771F8A95D1F769
:10084000706414964D935D936D937C931797089500
:10085000EF92FF920F931F93982F803278F487E8DE
:1008600080937A0080917C0080648076892B8093CD
:100870007C0080917A00806480937A0080917A0075
:1008800086FDFCCFFB01EE24FF24870180917A00D6
:10089000806480937A0080917A0086FDFCCF8091FD
:1008A0007C0085FF04C08091790090E004C08091B5
:1008B000780090917900A0E0B0E0E80EF91E0A1FE0
:1008C0001B1F319719F7CB019695879560347105F9
:1008D00030F48E0D9F1D70E098D79B010CC0A0E0F6
:1008E000B0E0E80EF91E0A1F1B1F9B0140E050E01C
:1008F000C801B7019ED7C9011F910F91FF90EF90DA
:100900000895A0E0B0E0209111013091120140E083
:1009100050E0BC01CD014ED79B01AC0180917C0021
:1009200085FF0BC0B901CA0161587F4F8F4F9F4FA0
:100930002FEF30E040E050E00AC0B901CA01615039
:100940007E4F8F4F9F4F2FEF33E040E050E071D745
:10095000C90108957DDFD5CF1F9310917C00809150
:100960007C008F7D80937C0086E06AE070E0F2DF9F
:10097000AC0115FD04C080917C008F7D03C0809187
:100980007C00806280937C009A01220F331F240F29
:10099000351F2F5F3F4F36952795C9011F91089549
:1009A000DBCF089580911E01882339F020E08091EB
:1009B000460290914702892B09F021E0822F089589
:1009C000A0E0B0E0E5EEF4E079C7FC015B01C42EE5
:1009D000809145028823C9F481E0809345021092FA
:1009E0006F0083E28093800081E180938100109208
:1009F000820080E197E290938900809388001092B2
:100A00008B0010928A00229A789410921E01F7FDB2
:100A100003C0DD24D39403C0FF772AE0D22E809157
:100A20008100082F10E0087F107088ECD89EC0016C
:100A300011248E179F07B8F4EF0187E2E131F80720
:100A400010F0C0E1D7E2BE017695679580E090E0B6
:100A50006058794687469F4F9E0140E050E0E9D6B6
:100A60007901016023C088E2D89E802D1124C82F0F
:100A7000D0E0CE17DF0708F4EF01BE017695679549
:100A80009E0140E050E08AE0D81639F480E090E022
:100A9000605E734481449F4F06C080E090E06053E5
:100AA0007D4E8C4E9F4FC5D6790102608AE0D816E4
:100AB00031F4CE0105966AE070E0A7D6EB0183E041
:100AC000C83ED80711F4B5010DC0BE0180E090E02A
:100AD000950140E050E06ED628EE33E040E050E073
:100AE000CAD6B90110926F0000938100F09289007C
:100AF000E0928800E0918800F0918900AC2DA0314F
:100B000008F0AFE080E190E08A1B910902C0F69501
:100B1000E7958A95E2F7F0938B00E0938A00709353
:100B20002D0260932C0286B38FEF86BB81E0809309
:100B30006F00CDB7DEB7EAE0DDC6CF93DF93EB0100
:100B40008F3F11F0442329F488EE93E0BE0140E08A
:100B500064C0813110F420E005C0282F20512036D8
:100B600008F02FE5822F6CE044D6382F682F70E014
:100B700084EF9FEF689FF001699FF00D789FF00D63
:100B80001124E20FF11DEC30F10530F4EC5CFF4F65
:100B9000C4C68CE991E023C080E090E020C085EBE2
:100BA00091E01DC08FEC91E01AC08AEE91E017C071
:100BB00087E092E014C086E292E011C087E492E000
:100BC0000EC089E692E00BC08EE892E008C085EB8B
:100BD00092E005C08EED92E002C08AE093E03730EB
:100BE00071F002C0880F991F6A95E2F7323020F049
:100BF00005966AE070E00BC0805090480AC036E06D
:100C0000880F991F3A95E1F7029665E070E0FDD5EF
:100C1000CB01403108F04FE0BE01D2DEDF91CF9131
:100C2000089530912A02E0914602F0914702332361
:100C300011F0249101C02081822F81548A3108F45F
:100C4000205E203259F4809146029091470201962D
:100C50009093470280934602019729F7822F0895C7
:100C6000CF93DF93DEDF282FC0E0D0E01CC0CE01A1
:100C700053E0880F991F5A95E1F7CC0FDD1FC80F7D
:100C8000D91F822F992787FD9095C80FD91FE0970C
:100C9000809146029091470201969093470280937B
:100CA0004602BFDF282F822F80538A3000F3CE0107
:100CB000DF91CF910895A0E0B0E0E0E6F6E0FCC55A
:100CC00080901301B0902802BB2021F0609129028E
:100CD000662399F4A090290200911801109119013E
:100CE000E0901401F0901501C0911601D091170108
:100CF000C0901A01D0901B0103C18FEF70E040E05B
:100D00001CDF10922902BDC194E0892EBB2404EFA0
:100D100011E084E0E82EF12CC0EDD7E0B4E09B2E8A
:100D2000AFE0CA2ED12C7DDF282F80914602909112
:100D3000470201969093470280934602263609F4B3
:100D400098C02736CCF42236A1F1233674F42E3322
:100D500061F12F3334F42132B9F22C3309F004C19C
:100D600026C0213609F000C11AC1243609F451C049
:100D700025360CF066C035C02F3609F4BFC02037C9
:100D800054F42C3609F4A5C02D3609F4A5C0273635
:100D900009F0EAC086C0243709F4CEC0263709F42A
:100DA000E0C0223709F0E0C0ADC08394BCCF8A9484
:100DB000BACFA0922902B092280210931901009391
:100DC0001801F0921501E0921401D0931701C0931D
:100DD000160190921301D0921B01C0921A012BE0D0
:100DE000F5C0A0922902B092280210931901009335
:100DF0001801F0921501E0921401D0931701C093ED
:100E0000160190921301D0921B01C0921A0120E0AA
:100E1000DDC0A0922902B09228021093190100931C
:100E20001801F0921501E0921401D0931701C093BC
:100E3000160190921301D0921B01C0921A0122E078
:100E4000C5C0A0922902B092280210931901009304
:100E50001801F0921501E0921401D0931701C0938C
:100E6000160190921301D0921B01C0921A0124E046
:100E7000ADC0A0922902B0922802109319010093EC
:100E80001801F0921501E0921401D0931701C0935C
:100E9000160190921301D0921B01C0921A0125E015
:100EA00095C0A0922902B0922802109319010093D4
:100EB0001801F0921501E0921401D0931701C0932C
:100EC000160190921301D0921B01C0921A0127E0E3
:100ED0007DC0C6DE7C0140C0A4DE8C3611F4BB248C
:100EE00003C0AA24BB24B394809146029091470288
:100EF0000196909347028093460215CFB1DE882E6B
:100F0000982C11CFA0922902B092280210931901B7
:100F100000931801F0921501E0921401D09317018B
:100F2000C093160190921301D0921B01C0921A0136
:100F300020E0FF24F3944BC093DEBC0180EC9DE5E0
:100F400064D4CB01EB01F3E0CC0FDD1FFA95E1F7A0
:100F5000880F991FC80FD91FCE01B70156D48B0136
:100F6000E2CE7EDE6C01DFCEA0922902B092280292
:100F70001093190100931801F0921501E0921401E9
:100F8000D0931701C093160190921301D0921B01C8
:100F9000C0921A01109247021092460272C0A092AB
:100FA0002902B09228021093190100931801F092BF
:100FB0001501E0921401D0931701C093160190928D
:100FC0001301D0921B01C0921A0129E0FF248CE08A
:100FD000889EC0011124E22EE80E0AC080914602CC
:100FE0009091470201969093470280934602E394C2
:100FF00018DE8B3299F3833289F30BC0809146025D
:101000009091470201969093470280934602EA949A
:1010100008DE8D3299F3C0911801D09119018153E6
:10102000883048F4009116011091170119DEBC01B7
:10103000C801EBD3EB018E010BC080914602909169
:10104000470201969093470280934602C00FD11F3A
:1010500016950795E6DD8E3281F38091280288236C
:1010600039F0CE019695879580932902C81BD10946
:10107000FF2011F0EE24EA948E2DBE0140911A015A
:101080005CDDCDB7DEB7ECE033C410926F00909317
:1010900047028093460281E080932A02109229023F
:1010A0000ACEF3CF08951F920F920FB60F9211241C
:1010B0002F933F934F935F936F937F938F939F9360
:1010C000AF93BF93EF93FF9380912C0290912D02E9
:1010D000019790932D0280932C02019609F51092AE
:1010E0006F00789480918100887F81608093810077
:1010F00080E197E2909389008093880010928B00A2
:1011000010928A0081E080931E01809146029091A6
:101110004702892B29F080912B02882309F4CBDD2B
:10112000FF91EF91BF91AF919F918F917F916F91BF
:101130005F914F913F912F910F900FBE0F901F9095
:101140001895EF92FF920F931F936AB157985A9890
:10115000289AE0903202F09033020091340210910C
:10116000350220E030E041E050E0CA016F9364E0D6
:101170006A95F1F76F910197C9F75C9ACA016F936D
:1011800064E06A95F1F76F910197C9F789B15C98AE
:10119000FA016F9364E06A95F1F76F913197C9F79F
:1011A0005C9AFA016F9364E06A95F1F76F91319759
:1011B000C9F75C9887FF0BC02C5F3F4FC901A0E0C7
:1011C000B0E08E159F05A007B10708F4CECF6AB92D
:1011D0001F910F91FF90EF90089565B190E0AC01E1
:1011E00041705070440F551F9C012670307053E0C1
:1011F000220F331F5A95E1F7422B6D7C462B45B9E0
:101200002BB18870907034E0880F991F3A95E1F700
:101210002F77282B2BB95C9A81E090E0FC016F932B
:1012200064E06A95F1F76F913197C9F75C986F9315
:1012300064E06A95F1F76F910197C9F7089580E12D
:1012400097E2A0E0B0E08093320290933302A09343
:101250003402B0933502529A209A549A8EE190E06B
:101260009AD283E03DD186E090E095D283E038D1F8
:1012700082E090E090D283E033D182E090E08BD2A4
:1012800082E02ED182E090E086D288E241D088E0F0
:101290003FD081E03DD086E03BD08CE039C08091EA
:1012A0003602882321F481E080933602C8CF089566
:1012B000BF92CF92DF92EF92FF920F931F93082F6E
:1012C000162FF42EECDF3DDFB4B0C5B0DAB0EBB0D2
:1012D0002898112311F05A9A01C05A9884B1826358
:1012E00084B9579A81E0F81621F0802F82958F708B
:1012F00074DF802F8F7071DFDAB8EBB8B4B8C5B87F
:101300001F910F91FF90EF90DF90CF90BF900895C5
:1013100060E042E0CDCFA4E0B0E0E0E9F9E0D4C283
:10132000182F062F80E8898380EC8A8384E98B83D9
:1013300084ED8C83FE01E60FF11D8181810FE8DFD2
:1013400010933102009330022496E4E0D9C2E3CF37
:10135000089581E0DDDF80912E0290912F02892B8C
:1013600019F160E070E208C0E0912E02F0912F02C6
:10137000E40FF51F70836F5F462F50E080911C01D2
:1013800090E0019720911D0130E0FC01E29FC00137
:10139000E39F900DF29F900D11244817590724F3F5
:1013A00010923102109230020895D3CF089561E077
:1013B00042E07ECF6F927F928F929F92AF92BF92C8
:1013C000CF92DF92FF920F93DF93CF93CDB7DEB72B
:1013D0002A970FB6F894DEBF0FBECDBF5B016C013C
:1013E0000AE03E010894611C711CFA2CC601B5018B
:1013F0002AE030E040E050E01CD2C901DA015C0193
:101400006D0101504301800E911C80E3F80EC6016E
:10141000B5012AE030E040E050E0CCD1F61AF4010A
:10142000F082A114B104C104D104F9F607C0F60199
:10143000E00FF11D8081BBDF0F5F04C06E010894D7
:10144000C11CD11C0A3098F32A960FB6F894DEBF5F
:101450000FBECDBFCF91DF910F91FF90DF90CF9066
:10146000BF90AF909F908F907F906F900895EF9274
:10147000FF920F931F937B018C0197FF0AC0109579
:101480000095F094E094E11CF11C011D111D8DE20A
:101490008EDFC801B7018EDF1F910F91FF90EF9093
:1014A0000895E5CF0895CF93DF93EC0102C07FDF6D
:1014B0002196FE0184918823D1F7DF91CF91089581
:1014C000F2CF0895CF93DF93EC0102C021966FDF36
:1014D00088818823D9F7DF91CF910895F3CF0895BC
:1014E00060E041E0E5CE282F883068F481E090E0AC
:1014F00002C0880F991F2A95E2F7282FAAE2B0E0D0
:10150000EBE2F0E029C08E3080F430E0285030402B
:1015100081E090E002C0880F991F2A95E2F7282FFA
:10152000A4E2B0E0E5E2F0E017C0853130F020E061
:10153000A0E0B0E0E0E0F0E00FC030E02E5030403E
:1015400081E090E002C0880F991F2A95E2F7282FCA
:10155000A7E2B0E0E8E2F0E06F3F19F48081822773
:1015600009C0662319F08081822B04C09081822FEC
:101570008095892380838C91822B8C930895E0EB56
:10158000F0E083EF8083808184BDE1EBF0E082E0D6
:101590008083808185BDE4EBF0E010828081E3EB05
:1015A000F0E08083808188BD88B587BD86E060E0FB
:1015B0009ADF85E060E097DF8BE060E094DF83E016
:1015C00060E091CF80913702882321F481E08093FD
:1015D0003702D5CF0895CF93DF93EC01F3DFD7FD2A
:1015E00002C020E004C0D095C195DF4F21E0CE01BC
:1015F000CF3FD10519F014F08FEF90E0222319F0BE
:1016000018BC87BD02C088BD17BCDF91CF9108957B
:10161000CF93DF93EC01D6DFD7FD02C020E004C0FA
:10162000D095C195DF4F21E0CE01CF3FD10519F014
:1016300014F08FEF90E0222329F01092B4008093F1
:10164000B30004C08093B4001092B300DF91CF9137
:1016500008950F931F938B01BEDFC801D9DF1F913F
:101660000F910895F6CF0895282F8091380288238E
:1016700091F481E08093380284B18D7C84B985B186
:10168000826385B985E090E06F9364E06A95F1F735
:101690006F910197C9F783B18095822308951F93B5
:1016A000CF93DF93182F80913802882391F481E043
:1016B0008093380284B18D7C84B985B1826385B909
:1016C00085E090E06F9364E06A95F1F76F91019780
:1016D000C9F7C12FD0E083B190E08C239D23892BE3
:1016E000D1F38AE090E057D083B190E08C239D2322
:1016F000892B89F383B18123DF91CF911F910895C5
:10170000CECF08952F928F939F932FB68091490249
:1017100090914A0201968093490290934A0290E088
:1017200080914B02891F80934B02909151029C5FE4
:10173000909351028091500280519742C0F0909353
:1017400051028093500280914C0290914D0201967B
:1017500080934C0290934D0290E080914E02891F3D
:1017600080934E0280914F02891F80934F022FBEBB
:101770009F918F912F90189528EE33E009C0F901C1
:101780006F9364E06A95F1F76F913197C9F701970C
:101790000097A9F7089528EE33E009C0F9016F9387
:1017A00064E06A95F1F76F913197C9F70197009757
:1017B000A9F70895629FD001739FF001829FE00D09
:1017C000F11D649FE00DF11D929FF00D839FF00DC0
:1017D000749FF00D659FF00D9927729FB00DE11D6C
:1017E000F91F639FB00DE11DF91FBD01CF01112449
:1017F0000895991B79E004C0991F961708F0961B6D
:10180000881F7A95C9F780950895AA1BBB1B51E1E3
:1018100007C0AA1FBB1FA617B70710F0A61BB70B60
:10182000881F991F5A95A9F780959095BC01CD0105
:101830000895A1E21A2EAA1BBB1BFD010DC0AA1F11
:10184000BB1FEE1FFF1FA217B307E407F50720F029
:10185000A21BB30BE40BF50B661F771F881F991FA4
:101860001A9469F760957095809590959B01AC01ED
:10187000BD01CF01089597FB092E05260ED057FD17
:1018800004D0D7DF0AD0001C38F45095409530952D
:1018900021953F4F4F4F5F4F0895F6F790958095F4
:1018A000709561957F4F8F4F9F4F08952F923F9274
:1018B0004F925F926F927F928F929F92AF92BF9260
:1018C000CF92DF92EF92FF920F931F93CF93DF930C
:1018D000CDB7DEB7CA1BDB0B0FB6F894DEBF0FBE69
:1018E000CDBF09942A88398848885F846E847D84B6
:1018F0008C849B84AA84B984C884DF80EE80FD80B8
:101900000C811B81AA81B981CE0FD11D0FB6F8942D
:10191000DEBF0FBECDBFED010895EE0FFF1F059096
:0A192000F491E02D0994F894FFCF34
:10192A006D56005072657373204200476F21006440
:10193A00008813040400D007F4010F000208010014
:10194A000000000000000000010202030303030478
:10195A000404040404040405050505050505050534
:10196A000505050505050506060606060606060614
:10197A0006060606060606060606060606060606FD
:10198A0006060606060606070707070707070707E4
:10199A0007070707070707070707070707070707CD
:1019AA0007070707070707070707070707070707BD
:1019BA0007070707070707070707070707070707AD
:1019CA000707070707070708080808080808080894
:1019DA00080808080808080808080808080808087D
:1019EA00080808080808080808080808080808086D
:1019FA00080808080808080808080808080808085D
:101A0A00080808080808080808080808080808084C
:101A1A00080808080808080808080808080808083C
:101A2A00080808080808080808080808080808082C
:101A3A00080808080808080808080808080808081C
:081A4A0008080808080808005C
:00000001FF
