:1000000033C000004DC000004BC0000049C00000DC
:1000100047C0000045C0000043C0000041C00000D0
:100020003FC000005AC300003BC0000039C00000C0
:1000300037C0000035C0000033C0000031C00000F0
:100040002FC000002DC00000CFC2000005C300007B
:1000500027C0000025C0000023C0000021C0000010
:100060001FC000001DC0000011241FBECFEFD8E04C
:10007000DEBFCDBF11E0A0E0B1E0E2E6F3E102C0F7
:1000800005900D92AA35B107D9F711E0AAE5B1E0C4
:1000900001C01D92A83EB107E1F709D00C94AF0949
:1000A000AFCF289A209A53D32898209A0895ABE18D
:1000B000B0E0EDE5F0E00C94820960E875E280E0E4
:1000C00090E0F7D180E891E064E68DD1DE011496EE
:1000D000ECE4F1E088E001900D928150E1F7CE016F
:1000E000049668E040ED57E022E00E94E80888ECC2
:1000F00090E0D7DF80E091E067E274D282E071D1D6
:1001000000E010E081E00E94E20884E190E01FD36B
:100110000F5F1F4F0A3F1105A9F788EC90E0C1DF80
:1001200088E291E063E25ED282E05BD184E789837A
:100130008E01045F1F4F6E010894C11CD11C82E028
:10014000E82EF12CEC0EFD1EC80161E015D79B8353
:100150008A8388EC90E0A5DFC60161E043D2C80144
:1001600060E140D2C70162E03DD28CE291E0EFD283
:10017000EBCFCF93DF93BC018230910510F462E0A6
:1001800070E0A091E601B091E701ED01E0E0F0E060
:1001900040E050E021C0888199818617970769F473
:1001A0008A819B81309719F09383828304C0909356
:1001B000E7018093E601FE0134C06817790738F43F
:1001C0004115510519F08417950708F4AC01FE019B
:1001D0008A819B819C01E9012097E9F6411551052F
:1001E000A9F1CA01861B970B049708F4BA01E0E055
:1001F000F0E02AC08D919C91119784179507F9F42E
:100200006417750781F412968D919C91139730971E
:1002100019F09383828304C09093E7018093E601F1
:10022000FD0132964CC0CA01861B970BFD01E80FF9
:10023000F91F6193719302978D939C9340C0FD01C8
:10024000828193819C01D9011097A1F68091E401EC
:100250009091E501892B41F48091560190915701CD
:100260009093E5018093E401409158015091590128
:100270004115510541F44DB75EB7809154019091FD
:100280005501481B590B2091E4013091E501CA0149
:10029000821B930B8617970780F0AB014E5F5F4F71
:1002A0008417950750F0420F531F5093E501409378
:1002B000E401F9016193719302C0E0E0F0E0CF0145
:1002C000DF91CF910895CF93DF93009709F450C049
:1002D000EC0122971B821A82A091E601B091E701FE
:1002E000109709F140E050E0AC17BD0708F1BB835F
:1002F000AA83FE0121913191E20FF31FAE17BF07D0
:1003000079F48D919C911197280F391F2E5F3F4FE3
:100310003983288312968D919C9113979B838A83AE
:100320004115510571F4D093E701C093E60120C057
:1003300012968D919C911397AD01009711F0DC01FD
:10034000D3CFFA01D383C28321913191E20FF31FFE
:10035000CE17DF0769F488819981280F391F2E5F36
:100360003F4FFA01318320838A819B81938382836B
:10037000DF91CF9108951F93CF93DF93182F809132
:100380005A01882391F481E080935A0184B18D7CD5
:1003900084B985B1826385B985E090E06F9364E0AC
:1003A0006A95F1F76F910197C9F7C12FD0E083B13A
:1003B00090E0809590958C239D23892BC1F38AE052
:1003C00090E0D4D183B190E0809590958C239D23CB
:1003D000892B69F383B180958123DF91CF911F91A0
:1003E0000895C9CF08952091C1002F772093C100AF
:1003F0009093700180936F011092690160936B017B
:1004000081E080936C0180916701882329F48091B9
:10041000C10080688093C100089520916701222364
:1004200011F488E901C088E18093C10080916D01D9
:1004300090916E01892B79F09091680180916A0109
:10044000981748F4222339F48091C1008062809388
:10045000C100789408958091C1008F7DF8CFEF920C
:10046000FF920F931F937B018C0180E0D6DF60EA3F
:1004700075E286E290E06E197F09800B910B33E004
:10048000660F771F881F991F3A95D1F724E0EE0C6D
:10049000FF1C001F111F2A95D1F7A8019701EBD669
:1004A0003093C5002093C4001F910F91FF90EF90EF
:1004B0000895D5CF08958091C1008F7D8093C100AC
:1004C000E0916D01F0916E01309709F45DC080916B
:1004D000680190916A01891708F05AC08091C000A4
:1004E00085FF56C080916801E80FF11D80818093DF
:1004F000C600809168018F5F8093680149C0809138
:100500006701882309F040C08091C1008062809318
:10051000C1008091C1008F778093C100E0916F018D
:10052000F0917001309731F18091690190916B01E8
:10053000891700F58091C00087FF1CC02091C6007C
:1005400080916901891750F480916901E80FF11DCC
:100550002083809169018F5F809369019091690187
:1005600080916B01981731F480916C01882311F010
:100570001092690180916701882379F48091C1000C
:1005800080688093C10008958091C1008F7DBFCFA6
:10059000809168018917C0F7B2CF089590936E01DA
:1005A00080936D011092680160936A01892BA1F01C
:1005B00080916801861780F480916701882361F437
:1005C0008091C10080620BC076DF909168018091BC
:1005D0006A019817C9F708958091C1008F7D8093B3
:1005E000C100F3CFDBCF08951F920F920FB60F9289
:1005F00011242F938F939F93EF93FF932091C60025
:10060000E0916F01F0917001309781F09091690154
:1006100080916B01981750F480916901E80FF11DEA
:100620002083809169018F5F8093690190916901B6
:1006300080916B01981731F480916C01882311F03F
:1006400010926901FF91EF919F918F912F910F90DF
:100650000FBE0F901F9018951F920F920FB60F921A
:1006600011248F939F93EF93FF93E0916D01F0918D
:100670006E013097F9F08091680190916A018917B5
:1006800038F58091C00085FF23C080916801E80F94
:10069000F11D80818093C600809168018F5F8093F7
:1006A000680116C080916701882321F48091C10000
:1006B000806203C08091C1008F7D8093C100FF9153
:1006C000EF919F918F910F900FBE0F901F901895F3
:1006D00080916801891770F7E5CF2F928F939F93D0
:1006E0002FB68091720190917301019680937201EF
:1006F0009093730190E080917401891F809374013D
:1007000090917A019C5F90937A0180917901805158
:100710009742C0F090937A0180937901809175019E
:10072000909176010196809375019093760190E007
:1007300080917701891F8093770180917801891FCB
:10074000809378012FBE9F918F912F90189528EE5E
:1007500033E009C0F9016F9364E06A95F1F76F9196
:100760003197C9F701970097A9F7089528EE33E06C
:1007700009C0F9016F9364E06A95F1F76F913197C1
:10078000C9F701970097A9F70895FC01118210821B
:10079000138212821582148217821682613118F038
:1007A00080E1808701C06087208B483078F481E049
:1007B00090E002C0880F991F4A95E2F781878BE28B
:1007C00090E0938782878AE290E029C04E3098F4C7
:1007D000242F30E02850304081E090E002C0880FA4
:1007E000991F2A95E2F7818785E290E093878287B7
:1007F00084E290E014C04431A8F4242F30E02E505D
:10080000304081E090E002C0880F991F2A95E2F7FE
:10081000818788E290E09387828787E290E09587DE
:100820008487089515861486138612860895A0E09D
:10083000B0E0ECE1F4E060C5EC016B01642F7901FC
:10084000402F20E0A2DFCE018F5B9F4FFC01108282
:10085000FE01EE5BFF4F1082DE01AD5BBF4F1C92CD
:10086000FF86EE8630E041E050E07F0166E2662ED2
:10087000712C8C0123E2822E912CBD0199E2A92ECC
:10088000B12C58C0A32FB0E0F601EA0FFB1F808106
:100890008830C0F4FA0102C0EE0FFF1F8A95E2F71C
:1008A000CF01FE01EA0FFB1F818BFB012081282B6A
:1008B0002083AA0FBB1FAC0FBD1F9296BC92AE92B5
:1008C000919737C08E30D0F490E00897FA0102C0BB
:1008D000EE0FFF1F8A95E2F7CF01FE01EA0FFB1F23
:1008E000818BF8012081282B2083AA0FBB1FAC0F1E
:1008F000BD1F92969C928E9291971BC08431C8F432
:1009000090E00E97FA0102C0EE0FFF1F8A95E2F702
:10091000CF01FE01EA0FFB1F818BF7012081282BFD
:100920002083AA0FBB1FAC0FBD1F92967C926E92C4
:1009300091973F5F8885381708F4A4CFCDB7DEB70D
:10094000EEE0F6C4A0E0B0E0E7EAF4E0D7C4EC01E2
:100950005B01CF5BDF4F4991A9918880C354D040A0
:1009600090E009C0E92FF0E0EE0FFF1FEA0DFB1D3C
:10097000118210829F5F88859817A0F384B1CF5BA6
:10098000DF4F3991832B84B987B12991822B87B9A5
:100990008AB19881C354D040892B8AB985B1832B01
:1009A00085B988B1822B88B98BB1892B8BB9EAE0E4
:1009B000F0E06F9364E06A95F1F76F913197C9F7B2
:1009C00084B13095832384B987B12095822387B978
:1009D0008AB1909589238AB985B1382335B988B110
:1009E000282328B98BB198239BB99090B000C09070
:1009F000B1008091B00083608093B00082E080936A
:100A0000B100D090B20060E070E03AC05091B20006
:100A10005D19650F711DE3B0E41609F04FC0F6B023
:100A2000FA1609F04BC089B1881509F047C025C0F6
:100A3000A42FB0E09D01220F331F8501020F131F69
:100A4000F80180819181892BA1F42C0F3D1FF901C0
:100A500081A192A1FC01208130E0AC0FBD1F519615
:100A60008C9190E028233923232B19F4F80171830A
:100A700060834F5F88854817D8F2D50E4E2DAF2D75
:100A80008E859F856817790708F29092B000C09212
:100A9000B10020E00FC0E22FF0E0EE0FFF1FEA0DE3
:100AA000FB1D80819181892B21F48E859F85918307
:100AB00080832F5F8885281770F305C0E3B0F6B0F8
:100AC00089B040E0D7CFCDB7DEB7ECE033C4A0E0CB
:100AD000B0E0ECE6F5E016C4EC018B01D0907C00B0
:100AE000E0907A00C7B0F8B080917A0086FDFCCF24
:100AF00090E009C0E92FF0E0EE0FFF1FE00FF11FBB
:100B0000118210829F5F88859817A0F397B18AA100
:100B10008095982397B998B1892388B987E88093FD
:100B20007A0050E024C0FE01E40FF11D818980931A
:100B30007C0080917A00806480937A0080917A00B2
:100B400086FDFCCFE42FF0E0EE0FFF1FE00FF11F5A
:100B5000209178003091790080819181820F931FDC
:100B6000918380834F5F88854817E8F25F5F89A192
:100B7000581710F040E016C040E0F5CFE42FF0E049
:100B8000EE0FFF1FE00FF11F69A1862F90E09595F2
:100B9000879520813181820F931F70E058D3718334
:100BA00060834F5F8885481748F3D0927C00E092BD
:100BB0007A00F8B8C7B8CDB7DEB7E8E0BFC3A0E2A7
:100BC000B0E0E4EEF5E09DC38C017B01D42E842FD0
:100BD00081508230B0F4D8011C96ED91FC911D97A4
:100BE000309779F0808119969C911997892B808391
:100BF0001A96ED91FC911B97808119969C91892BF7
:100C00008083F8018089882339F5C02EB12EC80170
:100C1000B70198DED8011C96ED91FC911D97309795
:100C200081F0808119969C911997892B80831A965F
:100C3000ED91FC911B97908119968C918095892359
:100C40008083B2E0DB1609F050C08C2D9B2DBE01D5
:100C50006F5F7F4F77DE25C0C02EB12EC801B70170
:100C600036DFD8011C96ED91FC911D97309781F0ED
:100C7000808119969C911997892B80831A96ED9102
:100C8000FC911B97908119968C9180958923808384
:100C9000B2E0DB1651F58C2D9B2DBE016F5F7F4FAF
:100CA00016DF40E0BE016F5F7F4F1AC0E42FF0E017
:100CB000EE0FFF1F6701CE0EDF1EE60FF71FD801F4
:100CC0001E962D913C911F9780819181281B390B95
:100CD000F60180819181820F931F918380834F5F02
:100CE000D80118968C91481708F3A096E9E025C31F
:100CF000A0E0B0E0EDE7F6E002C3EC01162F072F0D
:100D0000942E22E0421711F0442351F48C819D81EE
:100D1000892B09F4A1C08E819F81892B09F49CC085
:100D2000892D8150823050F488819981892B09F472
:100D300093C08A819B81892B09F48EC0CE01612FDB
:100D4000702F492D3CDF812F902F9C015901CC241D
:100D5000DD2400E010E07AC081E0981669F4EA81B1
:100D6000FB81E00FF11F20813181E881F981E00FE3
:100D7000F11F408151813DC0AC81BD81992059F462
:100D8000EE81FF81E00FF11F20813181A00FB11FA3
:100D90004D915C912EC0A00FB11F8D919C91E88167
:100DA000F981E00FF11F20813181EE85FF858217E7
:100DB000930710F4AF0105C0A9014E0F5F1F481B38
:100DC000590BEE81FF81E00FF11F60817181EA8193
:100DD000FB81E00FF11F80819181EE85FF8568170F
:100DE000790710F49F0105C09C012E0F3F1F261BA1
:100DF000370B7901E41AF50AF1F0F5016081718190
:100E000080E090E09A0140E050E0621B730B840B9D
:100E1000950B28EE33E040E050E0FAD1970140E036
:100E200050E04BD2C901F3E0293E3F0714F088EEB1
:100E300093E097FF02C080E090E0F50181939193E9
:100E40005F010894C11CD11C0E5F1F4F888590E084
:100E5000C816D9060CF480CFCDB7DEB7EBE06BC275
:100E6000A4E0B0E0E5E3F7E043C28C01F62EE72E04
:100E70002A833EDFD8011896BC91B9832F2D3E2DD1
:100E8000C9018C01552444246624772443011C8223
:100E90001B82AA24BB246501B8EE2B2EB3E03B2EA7
:100EA00031C0F801E080F180FA81FF2321F0910147
:100EB0002E193F09790139ECE316F10414F04424AA
:100EC000439483E3E816F10494F0B701882777FD93
:100ED0008095982FA60195019BD1660E771E881EDE
:100EE000991EAB81BC81AE0DBF1DBC83AB835394F7
:100EF00088EE93E0A0E0B0E0A80EB91ECA1EDB1E8B
:100F00000E5F1F4F9981591660F2442021F5692F19
:100F100070E084EF91E0DC016A9FC0016B9F900D4F
:100F20007A9F900D1124845F914020917C01309133
:100F30007D01281739071CF440E050E019C088EE05
:100F400093E0689FA001699F500D789F500D112478
:100F5000485E53400DC0EB81FC819F0140E050E0B2
:100F6000C401B30188D1A90130937D0120937C0194
:100F7000CA012496E2E1D8C19C01462F80917E01EE
:100F800090917F01B90120E06BCFA3E6B0E0EAECDD
:100F9000F7E0AEC17C015B016A01A2962FAFA29778
:100FA000DA018D919C91892B09F5F701808590E0FC
:100FB000880F991FDED8D6018D939C93009709F472
:100FC000DDC020E030E00CC0C901880F991FD601B8
:100FD000ED91FC91E80FF91F118210822F5F3F4FB6
:100FE000F701808590E02817390774F3D5018D91BA
:100FF0009C91892B89F000E010E03E010894611C6F
:10100000711C41E4242E312C2C0E3D1E31E2432E66
:10101000512C4C0E5D1E27C0F701808590E0880F93
:10102000991FA7D8D5018D939C93009709F4A6C06A
:1010300020E030E011C0C901880F991FD501ED9162
:10104000FC91E80FF91FD7011E968D919C911F9777
:10105000918380832F5F3F4FF701808590E02817B1
:1010600039074CF3C8CFC701B301A2964FADA29781
:10107000A6DDD70118968C91882E9924A101F30141
:10108000A4965FAE4EAEA49760E070E034C0011548
:10109000110559F0A496AEADBFADA4972D913C912A
:1010A000808191812817390758F480819181A49615
:1010B000AEADBFADA4978D939C930115110541F082
:1010C000DA012D913C91808191818217930728F458
:1010D00080819181DA018D939C936F5F7F4F4E5F8A
:1010E0005F4F3296A4968EAD9FADA4970296A496BC
:1010F0009FAF8EAFA497681579054CF20F5F1F4F15
:101100000A30110509F0AFCF40E050E020E030E0B8
:101110008E010F5B1F4FBE016F5D7F4F28C0F8012E
:10112000E20FF31F80809180F601A081B181A20FB0
:10113000B31F8D919C9111978815990510F48D928C
:101140009C92FB01E20FF31F80809180F501A0814A
:10115000B181A20FB31F8D919C91119788169906AA
:1011600010F48D929C924F5F5F4F2E5F3F4FD701DF
:1011700018968C9190E0481759078CF2CD59DF4FA3
:10118000E2E1D2C01F93CF93DF93EC01162F862F9D
:101190008150823038F4AE014E5F5F4FCE01BE0108
:1011A00021E0F3DE123011F0112341F4AE014A5F69
:1011B0005F4FCE012496BE0120E0E7DEDF91CF91A4
:1011C0001F910895682F80917E0190917F01DACF61
:1011D000A0E0B0E0EDEEF8E095C08C01D62E7A01EB
:1011E000C22E84E490E00E94B900EC01009711F453
:1011F00080E00AC0B8014D2D97010C2D18DBD0936B
:101200007F01C0937E0181E0CDB7DEB7E8E096C0F4
:10121000629FD001739FF001829FE00DF11D649FDA
:10122000E00DF11D929FF00D839FF00D749FF00D66
:10123000659FF00D9927729FB00DE11DF91F639F07
:10124000B00DE11DF91FBD01CF0111240895AA1BA6
:10125000BB1B51E107C0AA1FBB1FA617B70710F0A1
:10126000A61BB70B881F991F5A95A9F780959095D3
:10127000BC01CD010895A1E21A2EAA1BBB1BFD01E2
:101280000DC0AA1FBB1FEE1FFF1FA217B307E40765
:10129000F50720F0A21BB30BE40BF50B661F771FBD
:1012A000881F991F1A9469F760957095809590959D
:1012B0009B01AC01BD01CF01089597FB092E0526C6
:1012C0000ED057FD04D0D7DF0AD0001C38F450955B
:1012D0004095309521953F4F4F4F5F4F0895F6F75A
:1012E00090958095709561957F4F8F4F9F4F089592
:1012F0002F923F924F925F926F927F928F929F9226
:10130000AF92BF92CF92DF92EF92FF920F931F9313
:10131000CF93DF93CDB7DEB7CA1BDB0B0FB6F894C4
:10132000DEBF0FBECDBF09942A88398848885F8404
:101330006E847D848C849B84AA84B984C884DF8075
:10134000EE80FD800C811B81AA81B981CE0FD11D59
:101350000FB6F894DEBF0FBECDBFED010895F8942F
:02136000FFCFBD
:10136200507265737320427574746F6E20412074DD
:101372006F2073746172742063616C69627261744C
:10138200696E672E2E2E0A005072657373204275A5
:1013920074746F6E204120746F20737461727420B4
:1013A20072656164696E672E2E2E0A000E0F10118F
:0A13B200121307042000E8010000F8
:00000001FF
