:1000000033C000004CC000004AC0000048C00000DF
:1000100046C0000044C0000042C0000040C00000D4
:100020003EC00000E0C100003AC0000038C000003F
:1000300036C0000034C0000032C0000030C00000F4
:100040002EC000002CC0000055C100008BC1000074
:1000500026C0000024C0000022C0000020C0000014
:100060001EC000001CC0000011241FBECFEFD8E04E
:10007000DEBFCDBF11E0A0E0B1E0E0ECF4E002C0F3
:1000800005900D92A032B107D9F711E0A0E2B1E0DE
:1000900001C01D92A533B107E1F702D00FC2B0CF66
:1000A00060E875E280E090E08AD080E091E061E075
:1000B0001FD182E091E061E01BD184E091E061E03A
:1000C00017D184E091E061E013D186E091E061E036
:1000D0000FD188E091E061E00BD180ED97E0BDD1D8
:1000E0008AE091E061E004D186E091E061E000D136
:1000F0008CE091E061E0FCD084E091E061E0F8D038
:100100008EE091E061E0F4D080E191E061E0F0D038
:1001100084EC99E0A2D182E191E06CE0E9D080ED3D
:1001200097E09BD1C2CF20912001222311F488E9CE
:1001300001C088E18093C100809126019091270140
:10014000892B79F09091210180912301981748F42F
:10015000222339F48091C10080628093C100789499
:1001600008958091C1008F7DF8CFEF92FF920F9399
:100170001F937B018C0180E0D6DF60EA75E286E2A6
:1001800090E06E197F09800B910B33E0660F771FAB
:10019000881F991F3A95D1F724E0EE0CFF1C001F31
:1001A000111F2A95D1F7A801970166D13093C50098
:1001B0002093C4001F910F91FF90EF900895D5CF29
:1001C00008958091C1008F7D8093C100E091260148
:1001D000F0912701309709F45DC080912101909141
:1001E0002301891708F05AC08091C00085FF56C0CE
:1001F00080912101E80FF11D80818093C6008091DC
:1002000021018F5F8093210149C0809120018823C3
:1002100009F040C08091C10080628093C10080914C
:10022000C1008F778093C100E0912801F0912901EE
:10023000309731F18091220190912401891700F5C6
:100240008091C00087FF1CC02091C60080912201D0
:10025000891750F480912201E80FF11D20838091CD
:1002600022018F5F809322019091220180912401CD
:10027000981731F480912501882311F01092220102
:1002800080912001882379F48091C1008068809357
:10029000C10008958091C1008F7DBFCF8091210161
:1002A0008917C0F7B2CF0895909327018093260154
:1002B0001092210160932301892BA1F080912101EB
:1002C000861780F480912001882361F48091C10019
:1002D00080620BC076DF90912101809123019817F5
:1002E000C9F708958091C1008F7D8093C100F3CF3D
:1002F000DBCF08951F920F920FB60F9211242F9308
:100300008F939F93EF93FF932091C600E091280174
:10031000F0912901309781F0909122018091240180
:10032000981750F480912201E80FF11D20838091ED
:1003300022018F5F809322019091220180912401FC
:10034000981731F480912501882311F01092220131
:10035000FF91EF919F918F912F910F900FBE0F9072
:100360001F9018951F920F920FB60F9211248F9322
:100370009F93EF93FF93E0912601F091270130972F
:10038000F9F08091210190912301891738F580912E
:10039000C00085FF23C080912101E80FF11D8081FD
:1003A0008093C600809121018F5F8093210116C048
:1003B00080912001882321F48091C100806203C0D4
:1003C0008091C1008F7D8093C100FF91EF919F913B
:1003D0008F910F900FBE0F901F9018958091210163
:1003E000891770F7E5CF2F928F939F932FB6809147
:1003F0002B0190912C01019680932B0190932C015D
:1004000090E080912D01891F80932D0190913301FF
:100410009C5F909333018091320180519742C0F0EC
:10042000909333018093320180912E0190912F019E
:10043000019680932E0190932F0190E080913001DE
:10044000891F8093300180913101891F8093310190
:100450002FBE9F918F912F90189528EE33E009C001
:10046000F9016F9364E06A95F1F76F913197C9F7DD
:1004700001970097A9F70895A1E21A2EAA1BBB1BAA
:10048000FD010DC0AA1FBB1FEE1FFF1FA217B30760
:10049000E407F50720F0A21BB30BE40BF50B661F76
:1004A000771F881F991F1A9469F76095709580953A
:1004B00090959B01AC01BD01CF010895F894FFCF49
:1004C000680065006C006F00200077007200640017
:1004D000210048454C4C4F20574F524C44210000BE
:00000001FF
