:1000000053C0000078C0000076C0000074C000003B
:1000100072C0000070C000006EC000006CC0000024
:100020006AC000000C94B90B66C0000064C00000F8
:1000300062C00000CFC600005EC000005CC00000CF
:100040005AC0000058C000000C94400B0C94780B70
:1000500052C0000050C000004EC000004CC0000064
:100060004AC0000048C000005A04600463046604EB
:1000700069046C046F047204750478047B047E04C4
:10008000000000000000001F1F1F1F1F1F1F3E67F2
:1000900035303E3E633530003E6335303E3E673599
:1000A000303E0000480C490C11241FBECFEFD8E0B1
:1000B000DEBFCDBF11E0A0E0B1E0E2E3F5E202C0B7
:1000C00005900D92A235B107D9F712E0A2E5B1E093
:1000D00001C01D92AA34B107E1F710E0C6EAD0E0F2
:1000E00004C02297FE010E948912C43AD107C9F7C1
:1000F0003AD00C948D1284CF03C00E943E0BDAD606
:100100000E94740A90915A018917B9F3E92FF0E01F
:10011000E852FE4FE081892F8F5F80935A01843629
:1001200010F010925A018E2F089517C0FBD7CED22F
:10013000A0E0B0E0BC01CD010E94100980E091E098
:100140000E941E0980E061E0BFD783E091E00E9439
:100150001E0984E690E00E94F30B80E10E940C0AE5
:10016000882321F308950F931F9380ED97E00E9459
:10017000860C81E09DD6D9DFD5D78BE091E00E9437
:100180001E0960E875E280E090E00E94C90A81E003
:100190000E949D0A88ED91E064E60E945A0AACDF55
:1001A000182FC0D7113089F0123011F1112309F046
:1001B00038C080E090E060E070E00E940A0A80E0D1
:1001C00060E082D781E191E03AC096DF182F94DF9A
:1001D000682F772767FD7095812F992787FD909568
:1001E0000E940A0A80E060E06FD786E191E027C0B4
:1001F00083DF082F81DF112707FD1095682F7727F0
:1002000067FD7095709561957F4F88279927801BB2
:10021000910B0E940A0A80E060E056D78EE191E0DF
:100220000EC088E990E0D4D580E090E060E070E016
:100230000E940A0A81E060E047D788E291E0FED799
:10024000AECF0F931F93CF93DF938C01C0E0D0E02C
:10025000F801EC0FFD1F8081918165E670E00E943E
:10026000FF11FB01E15DFE4F8081EAD72296CA3083
:10027000D10571F7DF91CF911F910F910895AAE0F9
:10028000B0E0E5E4F1E00C945A1280ED97E00E94B2
:10029000860C88EE93E00E94F30B0CEE1FEF083201
:1002A000110528F088E290E068ED7FEF04C088ED4A
:1002B0009FEF68E270E00E940A0A81E00E94530CFE
:1002C00084E190E00E94F30B0F5F1F4F0C33110588
:1002D00031F780E090E060E070E00E940A0A6E0171
:1002E0000894C11CD11C14C0C60161E00E944C0CD2
:1002F0007C0118D700E010E0C801B70191D780E079
:1003000061E0E2D6C6019DDF84E690E00E94F30B37
:1003100080E10E940C0A882339F380E10E94580A88
:1003200001D72A96E8E00C9476120F931F9300E809
:1003300010E0C80160E0AAD7C801019661E0A6D725
:10034000C801029662E0A2D7C801039663E09ED777
:10035000C801049664E09AD7C801059665E096D76F
:10036000C801069666E092D7DDD61F910F910895D9
:10037000CF93DF93BC018230910510F462E070E00E
:10038000A0914802B0914902ED01E0E0F0E040E0C8
:1003900050E021C0888199818617970769F48A8186
:1003A0009B81309719F09383828304C09093490214
:1003B00080934802FE0134C06817790738F441156C
:1003C000510519F08417950708F4AC01FE018A81E4
:1003D0009B819C01E9012097E9F641155105A9F19E
:1003E000CA01861B970B049708F4BA01E0E0F0E01D
:1003F0002AC08D919C91119784179507F9F4641781
:10040000750781F412968D919C911397309719F08E
:100410009383828304C09093490280934802FD0134
:1004200032964CC0CA01861B970BFD01E80FF91FDD
:100430006193719302978D939C9340C0FD018281DB
:1004400093819C01D9011097A1F680914602909169
:100450004702892B41F480914E0190914F01909376
:10046000470280934602409150015091510141153D
:10047000510541F44DB75EB780914C0190914D010B
:10048000481B590B2091460230914702CA01821B3A
:10049000930B8617970780F0AB014E5F5F4F841771
:1004A000950750F0420F531F509347024093460266
:1004B000F9016193719302C0E0E0F0E0CF01DF91B8
:1004C000CF910895CF93DF93009709F450C0EC01CA
:1004D00022971B821A82A0914802B091490210977C
:1004E00009F140E050E0AC17BD0708F1BB83AA83D7
:1004F000FE0121913191E20FF31FAE17BF0779F48E
:100500008D919C911197280F391F2E5F3F4F398392
:10051000288312968D919C9113979B838A83411512
:10052000510571F4D0934902C093480220C012963D
:100530008D919C911397AD01009711F0DC01D3CF01
:10054000FA01D383C28321913191E20FF31FCE17B9
:10055000DF0769F488819981280F391F2E5F3F4F8B
:10056000FA01318320838A819B8193838283DF9187
:10057000CF910895EF92FF920F931F93982F80329F
:1005800078F487E880937A0080917C00806480769C
:10059000892B80937C0080917A00806480937A001C
:1005A00080917A0086FDFCCFFB01EE24FF248701B9
:1005B00080917A00806480937A0080917A0086FD31
:1005C000FCCF80917C0085FF04C08091790090E091
:1005D00004C08091780090917900A0E0B0E0E80E2E
:1005E000F91E0A1F1B1F319719F7CB0196958795A6
:1005F0006034710538F48E0D9F1D70E00E94FF116C
:100600009B010DC0A0E0B0E0E80EF91E0A1F1B1F01
:100610009B0140E050E0C801B7010E941312C901DC
:100620001F910F91FF90EF900895A0E0B0E020910E
:10063000390130913A0140E050E0BC01CD010E9407
:10064000D4119B01AC0180917C0085FF0BC0B901E6
:10065000CA0161587F4F8F4F9F4F2FEF30E040E02E
:1006600050E00AC0B901CA0161507E4F8F4F9F4FC1
:100670002FEF33E040E050E00E941312C9010895CB
:1006800079DFD3CF1F9310917C0080917C008F7D08
:1006900080937C0086E06AE070E0F2DFAC0115FD3B
:1006A00004C080917C008F7D03C080917C008062BB
:1006B00080937C009A01220F331F240F351F2F5F78
:1006C0003F4F36952795C9011F910895DBCF0895B7
:1006D000A0E0B0E0EEE6F3E00C945812FC015B0100
:1006E000C42E809178018823C9F481E08093780139
:1006F00010926F0083E28093800081E180938100FB
:100700001092820080E197E29093890080938800A4
:1007100010928B0010928A00229A789410924601CF
:10072000F7FD03C0DD24D39403C0FF772AE0D22E67
:1007300080918100082F10E0087F107088ECD89E0F
:10074000C00111248E179F07C0F4EF0187E2E13149
:10075000F80710F0C0E1D7E2BE017695679580E01A
:1007600090E06058794687469F4F9E0140E050E0F8
:100770000E9413127901016024C088E2D89E802D66
:100780001124C82FD0E0CE17DF0708F4EF01BE0117
:10079000769567959E0140E050E08AE0D81639F4DE
:1007A00080E090E0605E734481449F4F06C080E02B
:1007B00090E060537D4E8C4E9F4F0E941312790142
:1007C00002608AE0D81639F4CE0105966AE070E03E
:1007D0000E94FF11EB0183E0C83ED80711F4B50178
:1007E0000FC0BE0180E090E0950140E050E00E9423
:1007F000D41128EE33E040E050E00E943512B901F8
:1008000010926F0000938100F0928900E0928800BE
:10081000E0918800F0918900AC2DA03108F0AFE0A4
:1008200080E190E08A1B910902C0F695E7958A95D0
:10083000E2F7F0938B00E0938A007093600160937D
:100840005F0186B38FEF86BB81E080936F00CDB7E9
:10085000DEB7EAE00C947412CF93DF93EB018F3F85
:1008600011F0442329F488EE93E0BE0140E067C014
:10087000813110F420E005C0282F2051203608F0E7
:100880002FE5822F6CE00E94F311382F682F70E063
:1008900084EF9FEF689FF001699FF00D789FF00D46
:1008A0001124E20FF11DEC30F10538F4EC5CFF4F40
:1008B0000C9487128CE991E023C080E090E020C086
:1008C00085EB91E01DC08FEC91E01AC08AEE91E0BB
:1008D00017C087E092E014C086E292E011C087E47E
:1008E00092E00EC089E692E00BC08EE892E008C06C
:1008F00085EB92E005C08EED92E002C08AE093E0C5
:10090000373071F002C0880F991F6A95E2F73230D4
:1009100020F005966AE070E00BC0805090480BC054
:1009200036E0880F991F3A95E1F7029665E070E08E
:100930000E94FF11CB01403108F04FE0BE01C8DE3C
:10094000DF91CF91089530915D01E0917901F091AF
:100950007A01332311F0249101C02081822F815428
:100960008A3108F4205E203259F480917901909107
:100970007A01019690937A0180937901019729F782
:10098000822F0895CF93DF93DEDF282FC0E0D0E0E1
:100990001CC0CE0153E0880F991F5A95E1F7CC0F88
:1009A000DD1FC80FD91F822F992787FD9095C80F8B
:1009B000D91FE0978091790190917A0101969093E7
:1009C0007A0180937901BFDF282F822F80538A30EC
:1009D00000F3CE01DF91CF910895A0E0B0E0E3EF06
:1009E000F4E00C94561280903B01B0905B01BB2068
:1009F00021F060915C01662399F4A0905C01009164
:100A0000400110914101E0903C01F0903D01C09106
:100A10003E01D0913F01C0904201D090430103C1FB
:100A20008FEF70E040E018DF10925C01C0C194E0ED
:100A3000892EBB2404EF11E084E0E82EF12CC0EDF8
:100A4000D7E0B4E09B2EAFE0CA2ED12C7CDF282F5C
:100A50008091790190917A01019690937A01809327
:100A60007901263609F498C02736CCF42236A1F154
:100A7000233674F42E3361F12F3334F42132B9F27A
:100A80002C3309F006C126C0213609F002C11CC171
:100A9000243609F451C025360CF066C035C02F3617
:100AA00009F4BFC0203754F42C3609F4A5C02D3604
:100AB00009F4A5C0273609F0ECC086C0243709F434
:100AC000CEC0263709F4E2C0223709F0E2C0ADC03B
:100AD0008394BCCF8A94BACFA0925C01B0925B01A0
:100AE0001093410100934001F0923D01E0923C01DE
:100AF000D0933F01C0933E0190923B01D0924301BD
:100B0000C09242012BE0F7C0A0925C01B0925B0161
:100B10001093410100934001F0923D01E0923C01AD
:100B2000D0933F01C0933E0190923B01D09243018C
:100B3000C092420120E0DFC0A0925C01B0925B0154
:100B40001093410100934001F0923D01E0923C017D
:100B5000D0933F01C0933E0190923B01D09243015C
:100B6000C092420122E0C7C0A0925C01B0925B013A
:100B70001093410100934001F0923D01E0923C014D
:100B8000D0933F01C0933E0190923B01D09243012C
:100B9000C092420124E0AFC0A0925C01B0925B0120
:100BA0001093410100934001F0923D01E0923C011D
:100BB000D0933F01C0933E0190923B01D0924301FC
:100BC000C092420125E097C0A0925C01B0925B0107
:100BD0001093410100934001F0923D01E0923C01ED
:100BE000D0933F01C0933E0190923B01D0924301CC
:100BF000C092420127E07FC0C5DE7C0141C0A3DE78
:100C00008C3611F4BB2403C0AA24BB24B394809176
:100C1000790190917A01019690937A0180937901FC
:100C200015CFB0DE882E982C11CFA0925C01B09227
:100C30005B011093410100934001F0923D01E0926D
:100C40003C01D0933F01C0933E0190923B01D09272
:100C50004301C092420120E0FF24F3944DC092DE94
:100C6000BC0180EC9DE50E94FF11CB01EB01F3E09C
:100C7000CC0FDD1FFA95E1F7880F991FC80FD91F18
:100C8000CE01B7010E94FF118B01E0CE7BDE6C012B
:100C9000DDCEA0925C01B0925B0110934101009304
:100CA0004001F0923D01E0923C01D0933F01C0939E
:100CB0003E0190923B01D0924301C09242011092BA
:100CC0007A011092790173C0A0925C01B0925B012D
:100CD0001093410100934001F0923D01E0923C01EC
:100CE000D0933F01C0933E0190923B01D0924301CB
:100CF000C092420129E0FF248CE0889EC0011124AB
:100D0000E22EE80E0AC08091790190917A01019655
:100D100090937A0180937901E39415DE8B3299F3F5
:100D2000833289F30BC08091790190917A01019609
:100D300090937A0180937901EA9405DE8D3299F3DC
:100D4000C0914001D09141018153883050F400910D
:100D50003E0110913F0116DEBC01C8010E94FF1147
:100D6000EB018E010BC08091790190917A0101967F
:100D700090937A0180937901C00FD11F1695079542
:100D8000E2DD8E3281F380915B01882339F0CE0160
:100D90009695879580935C01C81BD109FF2011F0BF
:100DA000EE24EA948E2DBE014091420155DDCDB76F
:100DB000DEB7ECE00C94721210926F0090937A01FF
:100DC0008093790181E080935D0110925C0105CEF2
:100DD000F3CF08951F920F920FB60F9211242F9305
:100DE0003F934F935F936F937F938F939F93AF93B3
:100DF000BF93EF93FF9380915F0190916001019702
:100E00009093600180935F01019609F510926F0045
:100E1000789480918100887F81608093810080E157
:100E200097E2909389008093880010928B00109233
:100E30008A0081E0809346018091790190917A0146
:100E4000892B29F080915E01882309F4C6DDFF918A
:100E5000EF91BF91AF919F918F917F916F915F9132
:100E60004F913F912F910F900FBE0F901F901895AB
:100E700010926F0080914601882339F080917901AA
:100E800090917A01892B09F0A8DD81E080936F00B1
:100E900020E08091790190917A01892B09F021E07D
:100EA000822F089580935E01882309F4E1CF08958D
:100EB000F9CF0895DDCF0895EF92FF920F931F931E
:100EC0006AB157985A98289AE0906501F0906601A7
:100ED000009167011091680120E030E041E050E0AE
:100EE000CA016F9364E06A95F1F76F910197C9F7B2
:100EF0005C9ACA016F9364E06A95F1F76F9101976C
:100F0000C9F789B15C98FA016F9364E06A95F1F7CB
:100F10006F913197C9F75C9AFA016F9364E06A9513
:100F2000F1F76F913197C9F75C9887FF0BC02C5F81
:100F30003F4FC901A0E0B0E08E159F05A007B107A3
:100F400008F4CECF6AB91F910F91FF90EF900895EA
:100F500065B190E0AC0141705070440F551F9C0189
:100F60002670307053E0220F331F5A95E1F7422B61
:100F70006D7C462B45B92BB18870907034E0880F9A
:100F8000991F3A95E1F72F77282B2BB95C9A81E0CE
:100F900090E0FC016F9364E06A95F1F76F913197EF
:100FA000C9F75C986F9364E06A95F1F76F910197C8
:100FB000C9F7089580E197E2A0E0B0E08093650171
:100FC00090936601A0936701B0936801529A209AAA
:100FD000549A8EE190E016D483E05AD186E090E0F6
:100FE00011D483E055D182E090E00CD483E050D15D
:100FF00082E090E007D482E04BD182E090E002D41E
:1010000088E241D088E03FD081E03DD086E03BD00F
:101010008CE039C080916901882321F481E08093BC
:101020006901C8CF0895BF92CF92DF92EF92FF92ED
:101030000F931F93082F162FF42EECDF3DDFB4B073
:10104000C5B0DAB0EBB02898112311F05A9A01C05C
:101050005A9884B1826384B9579A81E0F81621F0D6
:10106000802F82958F7074DF802F8F7071DFDAB8D8
:10107000EBB8B4B8C5B81F910F91FF90EF90DF9017
:10108000CF90BF90089560E042E0CDCFA4E0B0E003
:10109000ECE4F8E00C945E12182F062F80E88983A8
:1010A00080EC8A8384E98B8384ED8C83FE01E60FD8
:1010B000F11D8181810FE7DF1093640100936301CB
:1010C0002496E4E00C947A12E1CF089581E0DBDF0E
:1010D0008091610190916201892B19F160E070E2C9
:1010E00008C0E0916101F0916201E40FF51F708387
:1010F0006F5F462F50E08091440190E0019720916E
:10110000450130E0FC01E29FC001E39F900DF29F9A
:10111000900D11244817590724F31092640110927E
:1011200063010895D3CF089561E042E07CCF6F92D0
:101130007F928F929F92AF92BF92CF92DF92FF9257
:101140000F93DF93CF93CDB7DEB72A970FB6F894FE
:10115000DEBF0FBECDBF5B016C010AE03E0108940B
:10116000611C711CFA2CC601B5012AE030E040E098
:1011700050E00E941312C901DA015C016D010150B7
:101180004301800E911C80E3F80EC601B5012AE0F0
:1011900030E040E050E00E94D411F61AF401F082F1
:1011A000A114B104C104D104E9F607C0F601E00FAF
:1011B000F11D8081B9DF0F5F04C06E010894C11C6E
:1011C000D11C0A3098F32A960FB6F894DEBF0FBEF2
:1011D000CDBFCF91DF910F91FF90DF90CF90BF9067
:1011E000AF909F908F907F906F900895EF92FF92B5
:1011F0000F931F937B018C0197FF0AC010950095F8
:10120000F094E094E11CF11C011D111D8DE28CDFB6
:10121000C801B7018CDF1F910F91FF90EF900895E7
:10122000E5CF0895CF93DF93EC0102C021967CDFD8
:1012300088818823D9F7DF91CF910895F3CF08955E
:1012400073CF0895EF92FF920F931F93CF93DF9385
:101250007C01062F10E0F3E0000F111FFA95E1F773
:10126000C0E0D0E09E01200F822F80640CDFF701E8
:10127000EC0FFD1FE4918E2F57DF2196C830D1056A
:1012800089F7CDB7DEB7E6E00C947812DBCF08958E
:1012900060E041E0C8CE282F883068F481E090E01B
:1012A00002C0880F991F2A95E2F7282FAAE2B0E022
:1012B000EBE2F0E029C08E3080F430E0285030407E
:1012C00081E090E002C0880F991F2A95E2F7282F4D
:1012D000A4E2B0E0E5E2F0E017C0853130F020E0B4
:1012E000A0E0B0E0E0E0F0E00FC030E02E50304091
:1012F00081E090E002C0880F991F2A95E2F7282F1D
:10130000A7E2B0E0E8E2F0E06F3F19F480818227C5
:1013100009C0662319F08081822B04C09081822F3E
:101320008095892380838C91822B8C930895E0EBA8
:10133000F0E083EF8083808184BDE1EBF0E082E028
:101340008083808185BDE4EBF0E010828081E3EB57
:10135000F0E08083808188BD88B587BD86E060E04D
:101360009ADF85E060E097DF8BE060E094DF83E068
:1013700060E091CF80916A01882321F481E080931D
:101380006A01D5CF0895CF93DF93EC01F3DFD7FD4A
:1013900002C020E004C0D095C195DF4F21E0CE010E
:1013A000CF3FD10519F014F08FEF90E0222319F010
:1013B00018BC87BD02C088BD17BCDF91CF910895CE
:1013C000CF93DF93EC01D6DFD7FD02C020E004C04D
:1013D000D095C195DF4F21E0CE01CF3FD10519F067
:1013E00014F08FEF90E0222329F01092B400809344
:1013F000B30004C08093B4001092B300DF91CF918A
:1014000008950F931F938B01BEDFC801D9DF1F9191
:101410000F910895F6CF0895282F80916B018823AE
:1014200091F481E080936B0184B18D7C84B985B1A6
:10143000826385B985E090E06F9364E06A95F1F787
:101440006F910197C9F783B18095822308951F9307
:10145000CF93DF93182F80916B01882391F481E063
:1014600080936B0184B18D7C84B985B1826385B929
:1014700085E090E06F9364E06A95F1F76F910197D2
:10148000C9F7C12FD0E083B190E08C239D23892B35
:10149000D1F38AE090E0B6D183B190E08C239D2314
:1014A000892B89F383B18123DF91CF911F91089517
:1014B000CECF08952091C1002F772093C100909343
:1014C00084018093830110927D0160937F0181E00C
:1014D0008093800180917B01882329F48091C10051
:1014E00080688093C100089580917D0108952091C6
:1014F0007B01222311F488E901C088E18093C100B7
:101500008091810190918201892B79F090917C01E9
:1015100080917E01981748F4222339F48091C1000C
:1015200080628093C100789408958091C1008F7D7E
:10153000F8CF80937B0180E0DACFFBCF0895EF9264
:10154000FF920F931F937B018C0180E0D0DF60EA54
:1015500075E286E290E06E197F09800B910B33E013
:10156000660F771F881F991F3A95D1F724E0EE0C7C
:10157000FF1C001F111F2A95D1F7A801970153D70F
:101580003093C5002093C4001F910F91FF90EF90FE
:101590000895D5CF08958091C1008F7D8093C100BB
:1015A000E0918101F0918201309709F45DC0809152
:1015B0007C0190917E01891708F05AC08091C0008B
:1015C00085FF56C080917C01E80FF11D80818093DA
:1015D000C60080917C018F5F80937C0149C080911F
:1015E0007B01882309F040C08091C1008062809314
:1015F000C1008091C1008F778093C100E091830189
:10160000F0918401309731F180917D0190917F01BB
:10161000891700F58091C00087FF1CC02091C6008B
:1016200080917D01891750F480917D01E80FF11DB3
:10163000208380917D018F5F80937D0190917D015A
:1016400080917F01981731F480918001882311F0F7
:1016500010927D0180917B01882379F48091C100F3
:1016600080688093C10008958091C1008F7DBFCFB5
:1016700080917C018917C0F7B2CF08958CCF08956F
:101680001F920F920FB60F9211242F938F939F9357
:10169000EF93FF932091C600E0918301F0918401C4
:1016A000309781F090917D0180917F01981750F4DF
:1016B00080917D01E80FF11D208380917D018F5F76
:1016C00080937D0190917D0180917F01981731F485
:1016D00080918001882311F010927D01FF91EF919C
:1016E0009F918F912F910F900FBE0F901F90189583
:1016F0001F920F920FB60F9211248F939F93EF9327
:10170000FF93E0918101F09182013097F9F080918F
:101710007C0190917E01891738F58091C00085FF8A
:1017200023C080917C01E80FF11D80818093C60069
:1017300080917C018F5F80937C0116C080917B013A
:10174000882321F48091C100806203C08091C10090
:101750008F7D8093C100FF91EF919F918F910F90AA
:101760000FBE0F901F90189580917C01891770F71C
:10177000E5CF2F928F939F932FB680918601909102
:1017800087010196809386019093870190E0809174
:101790008801891F8093880190918E019C5F9093AE
:1017A0008E0180918D0180519742C0F090938E01FF
:1017B00080938D018091890190918A010196809397
:1017C000890190938A0190E080918B01891F809319
:1017D0008B0180918C01891F80938C012FBE9F917A
:1017E0008F912F90189528EE33E009C0F9016F937F
:1017F00064E06A95F1F76F913197C9F70197009707
:10180000A9F7089528EE33E009C0F9016F9364E069
:101810006A95F1F76F913197C9F701970097A9F78A
:101820000895A0E7B0E08C918E7F8C93E0EBF0E020
:10183000808183608083E1EBF0E08081807F808322
:10184000808182608083B89A8C9181608C93789437
:10185000089580918F01882321F481E080938F0186
:10186000E0CF0895F6DFE0E7F0E080818E7F8083AF
:101870001092890110928A0110928B0110928C01B2
:1018800010928E0110928D01808181608083089575
:10189000089580E991E04BC49C01462F80E991E0D6
:1018A000B90120E0B8C3682F80E991E05DC50F93CE
:1018B000DF93CF9300D000D00F92CDB7DEB79C015D
:1018C000962FDE011196E7E4F1E085E001900D929C
:1018D0008150E1F7BE016F5F7F4F992329F080E9C6
:1018E00091E045E00FEF04C080E991E045E003E1BD
:1018F00079D080E991E05ED0B5DF0F900F900F9026
:101900000F900F90CF91DF910F91089560E0CFCFAE
:10191000FC011182108213821282158214821782B6
:101920001682613118F080E1808701C06087208BCA
:10193000483078F481E090E002C0880F991F4A9502
:10194000E2F781878BE290E0938782878AE290E0DA
:1019500029C04E3098F4242F30E02850304081E0E8
:1019600090E002C0880F991F2A95E2F7818785E2EF
:1019700090E09387828784E290E014C04431A8F419
:10198000242F30E02E50304081E090E002C0880FDC
:10199000991F2A95E2F7818788E290E093878287F2
:1019A00087E290E0958784870895158614861386CC
:1019B00012860895DC011C96ED91FC911D973097DD
:1019C00081F0808119969C911997892B80831A96B2
:1019D000ED91FC911B97908119968C9180958923AC
:1019E00080830895A0E0B0E0E7EFFCE05DC5EC0186
:1019F0006B01642F7901402F20E08ADFCE018F5BDD
:101A00009F4FFC011082FE01EE5BFF4F1082DE0152
:101A1000AD5BBF4F1C92FF86EE8630E041E050E0A8
:101A20007F0166E2662E712C8C0123E2822E912CBE
:101A3000BD0199E2A92EB12C58C0A32FB0E0F60148
:101A4000EA0FFB1F80818830C0F4FA0102C0EE0F5C
:101A5000FF1F8A95E2F7CF01FE01EA0FFB1F818B82
:101A6000FB012081282B2083AA0FBB1FAC0FBD1FB9
:101A70009296BC92AE92919737C08E30D0F490E09F
:101A80000897FA0102C0EE0FFF1F8A95E2F7CF0117
:101A9000FE01EA0FFB1F818BF8012081282B208398
:101AA000AA0FBB1FAC0FBD1F92969C928E9291976E
:101AB0001BC08431C8F490E00E97FA0102C0EE0F0B
:101AC000FF1F8A95E2F7CF01FE01EA0FFB1F818B12
:101AD000F7012081282B2083AA0FBB1FAC0FBD1F4D
:101AE00092967C926E9291973F5F8885381708F4A2
:101AF000A4CFCDB7DEB7EEE0F3C4A0E0B0E0E2E8FB
:101B0000FDE0D4C4EC015B01CF5BDF4F4991A991AB
:101B10008880C354D04090E009C0E92FF0E0EE0F78
:101B2000FF1FEA0DFB1D118210829F5F88859817A9
:101B3000A0F384B1CF5BDF4F3991832B84B987B198
:101B40002991822B87B98AB19881C354D040892BBF
:101B50008AB985B1832B85B988B1822B88B98BB1BD
:101B6000892B8BB9EAE0F0E06F9364E06A95F1F7B6
:101B70006F913197C9F784B13095832384B987B1C8
:101B80002095822387B98AB1909589238AB985B136
:101B9000382335B988B1282328B98BB198239BB94C
:101BA0009090B000C090B1008091B00083608093AD
:101BB000B00082E08093B100D090B20060E070E0AD
:101BC0003AC05091B2005D19650F711DE3B0E41683
:101BD00009F04FC0F6B0FA1609F04BC089B188156C
:101BE00009F047C025C0A42FB0E09D01220F331F8C
:101BF0008501020F131FF80180819181892BA1F4C7
:101C00002C0F3D1FF90181A192A1FC01208130E040
:101C1000AC0FBD1F51968C9190E028233923232BC4
:101C200019F4F801718360834F5F88854817D8F2F3
:101C3000D50E4E2DAF2D8E859F856817790708F23A
:101C40009092B000C092B10020E00FC0E22FF0E00F
:101C5000EE0FFF1FEA0DFB1D80819181892B21F47E
:101C60008E859F85918380832F5F8885281770F3E9
:101C700005C0E3B0F6B089B040E0D7CFCDB7DEB74E
:101C8000ECE030C4A0E0B0E0E7E4FEE013C4EC0117
:101C90008B01D0907C00E0907A00C7B0F8B08091C2
:101CA0007A0086FDFCCF90E009C0E92FF0E0EE0F4E
:101CB000FF1FE00FF11F118210829F5F8885981728
:101CC000A0F397B18AA18095982397B998B18923F9
:101CD00088B987E880937A0050E024C0FE01E40FC1
:101CE000F11D818980937C0080917A0080648093CB
:101CF0007A0080917A0086FDFCCFE42FF0E0EE0FB1
:101D0000FF1FE00FF11F2091780030917900808152
:101D10009181820F931F918380834F5F888548173D
:101D2000E8F25F5F89A1581710F040E016C040E06C
:101D3000F5CFE42FF0E0EE0FFF1FE00FF11F69A1D8
:101D4000862F90E09595879520813181820F931F92
:101D500070E055D3718360834F5F8885481748F3DF
:101D6000D0927C00E0927A00F8B8C7B8CDB7DEB761
:101D7000E8E0BCC3A0E2B0E0EFEBFEE09AC38C0168
:101D80007B01D42E842F81508230B0F4D8011C9670
:101D9000ED91FC911D97309779F0808119969C9177
:101DA0001997892B80831A96ED91FC911B9780815E
:101DB00019969C91892B8083F8018089882339F5B5
:101DC000C02EB12EC801B70198DED8011C96ED9146
:101DD000FC911D97309781F0808119969C911997FD
:101DE000892B80831A96ED91FC911B97908119960F
:101DF0008C91809589238083B2E0DB1609F050C076
:101E00008C2D9B2DBE016F5F7F4F77DE25C0C02ECE
:101E1000B12EC801B70136DFD8011C96ED91FC91B7
:101E20001D97309781F0808119969C911997892B85
:101E300080831A96ED91FC911B97908119968C9155
:101E4000809589238083B2E0DB1651F58C2D9B2D84
:101E5000BE016F5F7F4F16DF40E0BE016F5F7F4FB7
:101E60001AC0E42FF0E0EE0FFF1F6701CE0EDF1E59
:101E7000E60FF71FD8011E962D913C911F97808188
:101E80009181281B390BF60180819181820F931F6C
:101E9000918380834F5FD80118968C91481708F37F
:101EA000A096E9E022C3A0E0B0E0E8E5FFE0FFC2D1
:101EB000EC01162F072F942E22E0421711F0442335
:101EC00051F48C819D81892B09F4A1C08E819F8161
:101ED000892B09F49CC0892D8150823050F488816F
:101EE0009981892B09F493C08A819B81892B09F4FC
:101EF0008EC0CE01612F702F492D3CDF812F902F96
:101F00009C015901CC24DD2400E010E07AC081E07E
:101F1000981669F4EA81FB81E00FF11F208131817D
:101F2000E881F981E00FF11F408151813DC0AC8112
:101F3000BD81992059F4EE81FF81E00FF11F2081CE
:101F40003181A00FB11F4D915C912EC0A00FB11F28
:101F50008D919C91E881F981E00FF11F2081318101
:101F6000EE85FF858217930710F4AF0105C0A90124
:101F70004E0F5F1F481B590BEE81FF81E00FF11FD1
:101F800060817181EA81FB81E00FF11F8081918185
:101F9000EE85FF856817790710F49F0105C09C0145
:101FA0002E0F3F1F261B370B7901E41AF50AF1F0BB
:101FB000F5016081718180E090E09A0140E050E09D
:101FC000621B730B840B950B28EE33E040E050E06E
:101FD000EBD1970140E050E048D2C901F3E0293E3F
:101FE0003F0714F088EE93E097FF02C080E090E096
:101FF000F501819391935F010894C11CD11C0E5F80
:102000001F4F888590E0C816D9060CF480CFCDB755
:10201000DEB7EBE068C2A4E0B0E0E0E1F0E140C28E
:102020008C01F62EE72E2A833EDFD8011896BC914C
:10203000B9832F2D3E2DC9018C01552444246624DB
:10204000772443011C821B82AA24BB246501B8EEBD
:102050002B2EB3E03B2E31C0F801E080F180FA81F5
:10206000FF2321F091012E193F09790139ECE31684
:10207000F10414F04424439483E3E816F10494F04B
:10208000B701882777FD8095982FA60195018CD1FF
:10209000660E771E881E991EAB81BC81AE0DBF1DDA
:1020A000BC83AB83539488EE93E0A0E0B0E0A80E2D
:1020B000B91ECA1EDB1E0E5F1F4F9981591660F2B2
:1020C000442021F5692F70E084EF91E0DC016A9FE4
:1020D000C0016B9F900D7A9F900D1124845F9140F9
:1020E0002091D4013091D501281739071CF440E024
:1020F00050E019C088EE93E0689FA001699F500DE1
:10210000789F500D1124485E53400DC0EB81FC8137
:102110009F0140E050E0C401B30185D1A901309393
:10212000D5012093D401CA012496E2E1D5C1CF9311
:10213000DF93EC018A819B81009711F00E9462027B
:102140008E819F81009711F00E946202888199819F
:10215000009711F00E9462028C819D81009711F01E
:102160000E946202DF91CF910895A3E6B0E0EAEB0E
:10217000F0E196C17C015B016A01A2962FAFA297A4
:10218000DA018D919C91892B11F5F701808590E002
:10219000880F991F0E94B801D6018D939C930097D8
:1021A00009F4DEC020E030E00CC0C901880F991F9F
:1021B000D601ED91FC91E80FF91F118210822F5F7B
:1021C0003F4FF701808590E02817390774F3D50158
:1021D0008D919C91892B89F000E010E03E010894DC
:1021E000611C711C41E4242E312C2C0E3D1E31E269
:1021F000432E512C4C0E5D1E28C0F701808590E0C7
:10220000880F991F0E94B801D5018D939C93009768
:1022100009F4A6C020E030E011C0C901880F991F61
:10222000D501ED91FC91E80FF91FD7011E968D9114
:102230009C911F97918380832F5F3F4FF70180858B
:1022400090E0281739074CF3C7CFC701B301A29616
:102250004FADA2978FDDD70118968C91882E9924C7
:10226000A101F301A4965FAE4EAEA49760E070E0CA
:1022700034C00115110559F0A496AEADBFADA497B9
:102280002D913C91808191812817390758F48081E4
:102290009181A496AEADBFADA4978D939C9301158B
:1022A000110541F0DA012D913C91808191818217D5
:1022B000930728F480819181DA018D939C936F5F5D
:1022C0007F4F4E5F5F4F3296A4968EAD9FADA49721
:1022D0000296A4969FAF8EAFA497681579054CF22D
:1022E0000F5F1F4F0A30110509F0AFCF40E050E0FB
:1022F00020E030E08E010F5B1F4FBE016F5D7F4F0E
:1023000028C0F801E20FF31F80809180F601A081C0
:10231000B181A20FB31F8D919C91119788159905DA
:1023200010F48D929C92FB01E20FF31F808091804C
:10233000F501A081B181A20FB31F8D919C911197DE
:102340008816990610F48D929C924F5F5F4F2E5F16
:102350003F4FD70118968C9190E0481759078CF29F
:10236000CD59DF4FE2E1B8C01F93CF93DF93EC016B
:10237000162F862F8150823038F4AE014E5F5F4FAA
:10238000CE01BE0121E0F1DE123011F0112341F443
:10239000AE014A5F5F4FCE012496BE0120E0E5DE2C
:1023A000DF91CF911F910895629FD001739FF0013B
:1023B000829FE00DF11D649FE00DF11D929FF00DD5
:1023C000839FF00D749FF00D659FF00D9927729F0C
:1023D000B00DE11DF91F639FB00DE11DF91FBD0197
:1023E000CF0111240895991B79E004C0991F961715
:1023F00008F0961B881F7A95C9F780950895AA1B47
:10240000BB1B51E107C0AA1FBB1FA617B70710F0DF
:10241000A61BB70B881F991F5A95A9F78095909511
:10242000BC01CD010895A1E21A2EAA1BBB1BFD0120
:102430000DC0AA1FBB1FEE1FFF1FA217B307E407A3
:10244000F50720F0A21BB30BE40BF50B661F771FFB
:10245000881F991F1A9469F76095709580959095DB
:102460009B01AC01BD01CF01089597FB092E052604
:102470000ED057FD04D0D7DF0AD0001C38F4509599
:102480004095309521953F4F4F4F5F4F0895F6F798
:1024900090958095709561957F4F8F4F9F4F0895D0
:1024A0002F923F924F925F926F927F928F929F9264
:1024B000AF92BF92CF92DF92EF92FF920F931F9352
:1024C000CF93DF93CDB7DEB7CA1BDB0B0FB6F89403
:1024D000DEBF0FBECDBF09942A88398848885F8443
:1024E0006E847D848C849B84AA84B984C884DF80B4
:1024F000EE80FD800C811B81AA81B981CE0FD11D98
:102500000FB6F894DEBF0FBECDBFED010895EE0FFC
:10251000FF1F0590F491E02D099410E0C6EAD0E089
:1025200003C0FE01F6DF2296C83AD107D1F7F8942E
:02253000FFCFDB
:102532006D56005072657373204200536C6176656C
:102542000053746F7000466F72776172640042616B
:10255200636B7761726473004572726F7200FF2061
:102562000000010203040506FF8813040400D007DB
:10257200F4010F000208010E0F10111220004A028E
:02258200000057
:00000001FF
