:100000004BC0000065C0000063C0000061C000007C
:100010005FC000005DC000005BC0000059C0000070
:1000200057C000000C94EB0D53C0000051C00000FD
:100030004FC000000C94F70A4BC0000049C00000FC
:1000400047C0000045C000000C94720D0C94AA0D2E
:100050003FC000003DC000003BC0000039C00000B0
:1000600037C0000035C000005A0860086308660801
:1000700069086C086F087208750878087B087E08A4
:100080003E6733323E3E633332004C313620636488
:10009000656772656734000011241FBECFEFD8E09A
:1000A000DEBFCDBF12E0A0E0B1E0E6E8F8E202C0BA
:1000B00005900D92A03BB107D9F713E0A0EBB2E099
:1000C00001C01D92A834B107E1F77ED00C94411411
:1000D00097CF289A209A0E94250E2898209A089552
:1000E000A8E0B0E0E6E7F0E00C94121480E890E0BD
:1000F0000E94E80A60E875E280E090E00E94D70C78
:1001000080EE92E064E60E94710CDE011196EFE54C
:10011000F1E088E001900D928150E1F7CE01019667
:1001200068E040ED57E022E00E946813C3D68823C0
:10013000E9F780E091E067E20E94700D82E00E94A2
:100140006F0C82E00E94370C80E293E00E94250E43
:100150000CEE1FEF0832110528F082E390E06EEC00
:100160007FEF04C08EEC9FEF62E370E00E94040C0E
:1001700081E00E94621384E190E00E94250E0F5FEF
:100180001F4F0C33110531F780E090E060E070E024
:100190000E94040C88E291E00E94F50A8EE291E050
:1001A0006AE20E94700D82E00E946F0C82E00E9461
:1001B000370C8AE890E00E94E80A7CD68823E9F7A9
:1001C0002896E4E00C942E148BDF59D02FEF8F3F4C
:1001D000920791F480E090E060E070E00E94040CEF
:1001E00080E090E060E070E00E94040C89E591E01E
:1001F00065E00E94700D0BC08130910531F08330B5
:10020000910519F08230910501F7FDD0DECFFFCFC7
:100210000F93FC016230710518F48081918108C050
:100220006230710519F48281938102C084819581C5
:100230008130910529F44423C9F42223A1F018C088
:100240008230910529F4222399F4442379F412C0D1
:10025000039729F4002371F4222371F009C02223AB
:1002600039F4442319F4002339F004C08CE405C0A8
:1002700083E503C082E501C082E40F910895A0E107
:10028000B0E0E5E4F1E00C941414CE01019661E0D5
:100290000E943A12AC018F8198858D5B924008F4E0
:1002A0003DC089819A818D5B9240C0F18B819C8198
:1002B0002D813E81820F931F8C5B924078F54F8594
:1002C000588982E04D3B5807C0F08D859E852B856F
:1002D0003C85820F931F8C5B924078F487E691E017
:1002E0006CE00E94700D84E791E00E94F50AE2D56F
:1002F0008823E9F722E030E081C04C52514008F0F9
:100300007BC08AE791E069E00E94700D84E891E08B
:100310000E94F50ACFD58823E9F76EC089859A85B2
:100320008D5B9240E8F08F8598898D5B9240C0F09C
:100330008D859E852B853C85820F931F8C5B92401B
:1003400078F488E891E06AE00E94700D83E991E01A
:100350000E94F50AAFD58823E9F723E030E04EC0CC
:1003600083E0483E580728F480E090E068E770E0BA
:1003700008C027E0403D520748F48AE090E064E678
:1003800070E00E94040C20E030E038C08BE0483B75
:10039000580718F488E290E0F2CF2CE0443E520770
:1003A00018F480E590E0EBCF8EE04437580728F44E
:1003B0008EE690E06EE670E0E4CF2FE0403A520720
:1003C00028F484E690E060E570E0DBCF83E1483814
:1003D000580728F484E690E068E270E0D2CF4057F6
:1003E000574128F484E690E06AE070E0CACF88E7DD
:1003F00090E060E070E0C5CF21E030E0C901609698
:10040000E2E00C943014A8EDB0E0E9E0F2E00C94E6
:100410000A149A8B898B01E010E07E010894E11C9C
:10042000F11C51E0852E912C42E0A42EB12C33E03A
:10043000C32ED12CC70161E00E943A128F819885AA
:100440008D5B924008F44BC089819A818D5B92400C
:1004500008F445C08B819C812D813E81820F931FC2
:100460008C5B924008F03BC04F85588922E04D3BA1
:100470005207E8F08D859E852B853C85820F931F62
:100480008C5B9240A0F487E691E06CE00E94700DD6
:1004900084E791E00E94F50A0DD58823E9F7F80179
:1004A000EE0FFF1FEE0DFF1DB18AA08A3EC04C5219
:1004B000514008F03CC08AE791E069E00E94700D6D
:1004C00084E891E00E94F50AF5D48823E9F7F80161
:1004D000EE0FFF1FEE0DFF1D918A808A26C08985D1
:1004E0009A858D5B924018F18F8598898D5B92403B
:1004F000F0F08D859E852B853C85820F931F8C5B4C
:100500009240A8F488E891E06AE00E94700D83E9C7
:1005100091E00E94F50ACED48823E9F7F801EE0FA6
:10052000FF1FEE0DFF1DD18AC08A0F5F1F4F6B8129
:100530007C812D813E81C901860F971F815B94408C
:1005400008F043C04B855C85ED85FE85CF01840FA7
:10055000951F815B944008F038C08F8198858D5B32
:10056000924040F089859A858D5B924018F086E430
:1005700090E010C02955324018F46955724018F0C7
:1005800088E290E007C089819A818D5B924028F0D3
:1005900080E090E066E470E015C04955524018F4E0
:1005A000E955F24028F086E490E068E270E00AC085
:1005B0008F8598898D5B924008F43CCF86E490E06B
:1005C00060E070E00E94040C35CF88E290E068E2C1
:1005D00070E00E94040C88EC90E00E94250ECE0191
:1005E000019661E00E943A12CE014196B80141E0C5
:1005F00021E001E00DDE6AE570E005D0C852DF4F72
:10060000ECE00C942614A0E0B0E0E9E0F3E00C94F8
:100610000F14D82E82E390E09B01289FB001299F00
:10062000700D389F700D1124882777FD8095982FC5
:10063000F4D020E030E040E151E446D04AD17B01E3
:100640008C013CE4D31639F082E5D81649F022E457
:10065000D216C9F40DC088ED9FEF68E270E004C0C7
:1006600088E290E068ED7FEF0E94040CC70109C0AA
:1006700088E290E068ED7FEF0E94040CC701880FCC
:10068000991F0E94250ECDB7DEB7E7E00C942B141E
:100690000F931F938C018CE46AE570E0B4DFC8010E
:1006A000B8010E94040C1F910F9108950F931F939E
:1006B0008C0182E56AE570E0A6DFC801B8010E94FE
:1006C000040C1F910F910895A8E1B0E0EAE6F3E071
:1006D0000C940C1469837A838B839C832D833E83D3
:1006E0004F835887B9E0EB2EF12CEC0EFD1ECE01A6
:1006F0000196B70165D28E010F5E1F4FCE010596A0
:10070000B8015ED22985223008F47EC039893230A2
:1007100010F4B8017CC08A859A8989278A87243099
:1007200011F0223031F4231709F06EC062EA71E053
:100730006EC0343039F41D861E861F86188A1C86CA
:100740001B8604C0323021F484E08987B7015FC082
:100750002B853C858B899C89281B390B3C872B87F3
:10076000ED84FE840F851889AD88BE88CF88D88C2B
:10077000EA14FB040C051D0540F4EE0CFF1C001FE1
:10078000111F215030403C872B8720E030E040E0B3
:1007900050E080E090E0A0E0B0E460E070E0EA14B7
:1007A000FB040C051D0540F0282B392B4A2B5B2B35
:1007B000EA18FB080C091D09B695A795979587952A
:1007C000EE0CFF1C001F111F6F5F7F4F6F31710513
:1007D00031F7DA01C9018F779070A070B070803462
:1007E0009105A105B10561F427FD0AC0E114F104EA
:1007F0000105110529F0205C3F4F4F4F5F4F2078D6
:100800002D873E874F87588BBE01675F7F4FCB0197
:1008100002D16896EAE00C942814A8E0B0E0E3E185
:10082000F4E00C940D149B01AC0183E08983DA01A0
:10083000C9018827B7FD83959927AA27BB27B82E1A
:10084000211531054105510519F482E0898339C02C
:100850008823A9F0203080E0380780E0480780E84E
:10086000580729F460E070E080E09FEC2EC0EE2491
:10087000FF248701E21AF30A040B150B02C0790169
:100880008A018EE1C82ED12CDC82CB82ED82FE82E1
:100890000F831887C801B7016FD001971816190682
:1008A00084F4082E04C0EE0CFF1C001F111F0A94D4
:1008B000D2F7ED82FE820F831887C81AD90ADC822C
:1008C000CB82BA82CE010196A6D02896E9E00C949C
:1008D0002914ACE0B0E0EFE6F4E00C941414698362
:1008E0007A838B839C83CE010196BE016B5F7F4F21
:1008F00067D18D81823061F1823050F1843021F4F2
:100900008E81882351F12EC02F81388537FD20C07C
:100910006E812F3131051CF06623F9F023C08EE182
:1009200090E0821B930B29853A854B855C8504C03A
:1009300056954795379527958A95D2F76623B1F056
:1009400050954095309521953F4F4F4F5F4F0EC0CA
:1009500020E030E040E050E009C02FEF3FEF4FEFE4
:100960005FE704C020E030E040E050E8B901CA0190
:100970002C96E2E00C943014EF92FF920F931F93A9
:100980007B018C0180E0E81680E0F80681E0080732
:1009900080E0180788F48FEFE816F10401051105CF
:1009A00031F028F088E090E0A0E0B0E017C080E0EF
:1009B00090E0A0E0B0E012C080E0E81680E0F80629
:1009C00080E0080781E0180728F088E190E0A0E0C7
:1009D000B0E004C080E190E0A0E0B0E020E230E0D0
:1009E00040E050E0281B390B4A0B5B0B04C0169506
:1009F0000795F794E7948A95D2F7F701E655FE4FED
:100A00008081281B310941095109C9011F910F91AA
:100A1000FF90EF900895DF92EF92FF920F931F9354
:100A2000FC01E480F58006811781D18080818230CD
:100A300048F480E090E0A0E1B0E0E82AF92A0A2B2F
:100A40001B2BA5C0843009F49FC0823021F4EE2412
:100A5000FF24870105C0E114F1040105110519F413
:100A6000E0E0F0E096C0628173819FEF6238790721
:100A70000CF05BC022E83FEF261B370B2A31310513
:100A80002CF020E030E040E050E02AC0B801A7019F
:100A9000022E04C076956795579547950A94D2F72C
:100AA00081E090E0A0E0B0E004C0880F991FAA1F89
:100AB000BB1F2A95D2F70197A109B1098E219F2169
:100AC000A023B1230097A105B10521F081E090E0BA
:100AD000A0E0B0E09A01AB01282B392B4A2B5B2B0D
:100AE000DA01C9018F779070A070B07080349105E1
:100AF000A105B10539F427FF09C0205C3F4F4F4FD6
:100B00005F4F04C0215C3F4F4F4F5F4FE0E0F0E08C
:100B10002030A0E03A07A0E04A07A0E45A0710F00E
:100B2000E1E0F0E079018A0127C06038710564F5E1
:100B3000FB01E158FF4FD801C7018F779070A0707B
:100B4000B07080349105A105B10539F4E7FE0DC000
:100B500080E490E0A0E0B0E004C08FE390E0A0E08B
:100B6000B0E0E80EF91E0A1F1B1F17FF05C01695FF
:100B70000795F794E794319687E016950795F794D3
:100B8000E7948A95D1F705C0EE24FF248701EFEFA3
:100B9000F0E06E2F679566276795902F9F77D79423
:100BA000DD24D7948E2F8695492F462B582F5D290B
:100BB000B701CA011F910F91FF90EF90DF90089548
:100BC000FC01DB01408151812281622F6F7770E04F
:100BD000221F2227221F9381892F880F822B282FE3
:100BE00030E0991F9927991F11969C931197211511
:100BF0003105A9F5411551056105710511F482E032
:100C000037C082E89FEF13969C938E9312979A01B8
:100C1000AB0167E0220F331F441F551F6A95D1F7C0
:100C200083E08C930DC0220F331F441F551F129673
:100C30008D919C911397019713969C938E93129785
:100C4000203080E0380780E0480780E4580758F3F8
:100C500014962D933D934D935C93179708952F3FD2
:100C6000310579F4411551056105710519F484E0E8
:100C70008C93089564FF03C081E08C9312C01C9292
:100C800010C02F57304013963C932E93129783E059
:100C90008C9387E0440F551F661F771F8A95D1F705
:100CA000706414964D935D936D937C93179708959C
:100CB000CF93DF93BC018230910510F462E070E0C5
:100CC000A0914603B0914703ED01E0E0F0E040E081
:100CD00050E021C0888199818617970769F48A813D
:100CE0009B81309719F09383828304C090934703CC
:100CF00080934603FE0134C06817790738F4411524
:100D0000510519F08417950708F4AC01FE018A819A
:100D10009B819C01E9012097E9F641155105A9F154
:100D2000CA01861B970B049708F4BA01E0E0F0E0D3
:100D30002AC08D919C91119784179507F9F4641737
:100D4000750781F412968D919C911397309719F045
:100D50009383828304C09093470380934603FD01ED
:100D600032964CC0CA01861B970BFD01E80FF91F94
:100D70006193719302978D939C9340C0FD01828192
:100D800093819C01D9011097A1F680914403909121
:100D90004503892B41F48091AC029091AD02909370
:100DA0004503809344034091AE025091AF02411538
:100DB000510541F44DB75EB78091AA029091AB0204
:100DC000481B590B2091440330914503CA01821BF3
:100DD000930B8617970780F0AB014E5F5F4F841728
:100DE000950750F0420F531F50934503409344031F
:100DF000F9016193719302C0E0E0F0E0CF01DF916F
:100E0000CF910895CF93DF93009709F450C0EC0180
:100E100022971B821A82A0914603B0914703109734
:100E200009F140E050E0AC17BD0708F1BB83AA838D
:100E3000FE0121913191E20FF31FAE17BF0779F444
:100E40008D919C911197280F391F2E5F3F4F398349
:100E5000288312968D919C9113979B838A834115C9
:100E6000510571F4D0934703C093460320C01296F6
:100E70008D919C911397AD01009711F0DC01D3CFB8
:100E8000FA01D383C28321913191E20FF31FCE1770
:100E9000DF0769F488819981280F391F2E5F3F4F42
:100EA000FA01318320838A819B8193838283DF913E
:100EB000CF9108958091A101882339F020E080919D
:100EC000C5029091C602892B09F021E0822F089576
:100ED000A0E0B0E0EEE6F7E00C940C14FC015B013E
:100EE000C42E8091C4028823C9F481E08093C40297
:100EF00010926F0083E28093800081E180938100F3
:100F00001092820080E197E290938900809388009C
:100F100010928B0010928A00229A78941092A1016C
:100F2000F7FD03C0DD24D39403C0FF772AE0D22E5F
:100F300080918100082F10E0087F107088ECD89E07
:100F4000C00111248E179F07C0F4EF0187E2E13141
:100F5000F80710F0C0E1D7E2BE017695679580E012
:100F600090E06058794687469F4F9E0140E050E0F0
:100F70000E94C7137901016024C088E2D89E802DA9
:100F80001124C82FD0E0CE17DF0708F4EF01BE010F
:100F9000769567959E0140E050E08AE0D81639F4D6
:100FA00080E090E0605E734481449F4F06C080E023
:100FB00090E060537D4E8C4E9F4F0E94C713790185
:100FC00002608AE0D81639F4CE0105966AE070E036
:100FD0000E94B313EB0183E0C83ED80711F4B501BA
:100FE0000FC0BE0180E090E0950140E050E00E941B
:100FF000881328EE33E040E050E00E94E913B90185
:1010000010926F0000938100F0928900E0928800B6
:10101000E0918800F0918900AC2DA03108F0AFE09C
:1010200080E190E08A1B910902C0F695E7958A95C8
:10103000E2F7F0938B00E0938A007093B50260931F
:10104000B40286B38FEF86BB81E080936F00CDB78B
:10105000DEB7EAE00C942814CF93DF93EB018F3FC7
:1010600011F0442329F488EE93E0BE0140E067C00C
:10107000813110F420E005C0282F2051203608F0DF
:101080002FE5822F6CE00E94A713382F682F70E0A5
:1010900084EF9FEF689FF001699FF00D789FF00D3E
:1010A0001124E20FF11DEC30F10538F4EC5CFF4F38
:1010B0000C943B148CE991E023C080E090E020C0C8
:1010C00085EB91E01DC08FEC91E01AC08AEE91E0B3
:1010D00017C087E092E014C086E292E011C087E476
:1010E00092E00EC089E692E00BC08EE892E008C064
:1010F00085EB92E005C08EED92E002C08AE093E0BD
:10110000373071F002C0880F991F6A95E2F73230CC
:1011100020F005966AE070E00BC0805090480BC04C
:1011200036E0880F991F3A95E1F7029665E070E086
:101130000E94B313CB01403108F04FE0BE01C8DE7E
:10114000DF91CF9108953091B202E091C502F09104
:10115000C602332311F0249101C02081822F8154D3
:101160008A3108F4205E203259F48091C5029091B2
:10117000C60201969093C6028093C502019729F793
:10118000822F0895CF93DF93DEDF282FC0E0D0E0D9
:101190001CC0CE0153E0880F991F5A95E1F7CC0F80
:1011A000DD1FC80FD91F822F992787FD9095C80F83
:1011B000D91FE0978091C5029091C6020196909345
:1011C000C6028093C502BFDF282F822F80538A304A
:1011D00000F3CE01DF91CF910895A0E0B0E0E3EFFE
:1011E000F8E00C940A1480909801B090B002BB20F3
:1011F00021F06091B102662399F4A090B1020091B0
:101200009D0110919E01E0909901F0909A01C0918A
:101210009B01D0919C01C0909F01D090A00103C17F
:101220008FEF70E040E018DF1092B102C0C194E08F
:10123000892EBB2404EF11E084E0E82EF12CC0EDF0
:10124000D7E0B4E09B2EAFE0CA2ED12C7CDF282F54
:101250008091C5029091C60201969093C602809338
:10126000C502263609F498C02736CCF42236A1F1FF
:10127000233674F42E3361F12F3334F42132B9F272
:101280002C3309F006C126C0213609F002C11CC169
:10129000243609F451C025360CF066C035C02F360F
:1012A00009F4BFC0203754F42C3609F4A5C02D36FC
:1012B00009F4A5C0273609F0ECC086C0243709F42C
:1012C000CEC0263709F4E2C0223709F0E2C0ADC033
:1012D0008394BCCF8A94BACFA092B102B092B002EC
:1012E00010939E0100939D01F0929A01E092990162
:1012F000D0939C01C0939B0190929801D092A00141
:10130000C0929F012BE0F7C0A092B102B092B00250
:1013100010939E0100939D01F0929A01E092990131
:10132000D0939C01C0939B0190929801D092A00110
:10133000C0929F0120E0DFC0A092B102B092B00243
:1013400010939E0100939D01F0929A01E092990101
:10135000D0939C01C0939B0190929801D092A001E0
:10136000C0929F0122E0C7C0A092B102B092B00229
:1013700010939E0100939D01F0929A01E0929901D1
:10138000D0939C01C0939B0190929801D092A001B0
:10139000C0929F0124E0AFC0A092B102B092B0020F
:1013A00010939E0100939D01F0929A01E0929901A1
:1013B000D0939C01C0939B0190929801D092A00180
:1013C000C0929F0125E097C0A092B102B092B002F6
:1013D00010939E0100939D01F0929A01E092990171
:1013E000D0939C01C0939B0190929801D092A00150
:1013F000C0929F0127E07FC0C5DE7C0141C0A3DE13
:101400008C3611F4BB2403C0AA24BB24B39480916E
:10141000C5029091C60201969093C6028093C502C0
:1014200015CFB0DE882E982C11CFA092B102B092C9
:10143000B00210939E0100939D01F0929A01E092F8
:101440009901D0939C01C0939B0190929801D092F6
:10145000A001C0929F0120E0FF24F3944DC092DED2
:10146000BC0180EC9DE50E94B313CB01EB01F3E0DE
:10147000CC0FDD1FFA95E1F7880F991FC80FD91F10
:10148000CE01B7010E94B3138B01E0CE7BDE6C016D
:10149000DDCEA092B102B092B00210939E010093F3
:1014A0009D01F0929A01E0929901D0939C01C09322
:1014B0009B0190929801D092A001C0929F0110923E
:1014C000C6021092C50273C0A092B102B092B002DF
:1014D00010939E0100939D01F0929A01E092990170
:1014E000D0939C01C0939B0190929801D092A0014F
:1014F000C0929F0129E0FF248CE0889EC001112446
:10150000E22EE80E0AC08091C5029091C6020196B3
:101510009093C6028093C502E39415DE8B3299F353
:10152000833289F30BC08091C5029091C602019667
:101530009093C6028093C502EA9405DE8D3299F33A
:10154000C0919D01D0919E018153883050F400914B
:101550009B0110919C0116DEBC01C8010E94B313CF
:10156000EB018E010BC08091C5029091C6020196DD
:101570009093C6028093C502C00FD11F16950795A0
:10158000E2DD8E3281F38091B002882339F0CE0102
:10159000969587958093B102C81BD109FF2011F061
:1015A000EE24EA948E2DBE0140919F0155DDCDB70A
:1015B000DEB7ECE00C94261410926F009093C602F4
:1015C0008093C50281E08093B2021092B10205CEF1
:1015D000F3CF089510926F009093C6028093C502D6
:1015E0001092B2021092B102F8CDF4CF08951F927A
:1015F0000F920FB60F9211242F933F934F935F9347
:101600006F937F938F939F93AF93BF93EF93FF93CA
:101610008091B4029091B50201979093B5028093A6
:10162000B402019609F510926F00789480918100C0
:10163000887F81608093810080E197E290938900A8
:101640008093880010928B0010928A0081E0809332
:10165000A1018091C5029091C602892B29F0809149
:10166000B302882309F4B9DDFF91EF91BF91AF91E7
:101670009F918F917F916F915F914F913F912F91AA
:101680000F900FBE0F901F901895282F883068F488
:1016900081E090E002C0880F991F2A95E2F7282F79
:1016A000AAE2B0E0EBE2F0E029C08E3080F430E056
:1016B0002850304081E090E002C0880F991F2A95A1
:1016C000E2F7282FA4E2B0E0E5E2F0E017C08531B0
:1016D00030F020E0A0E0B0E0E0E0F0E00FC030E06B
:1016E0002E50304081E090E002C0880F991F2A956B
:1016F000E2F7282FA7E2B0E0E8E2F0E06F3F19F44C
:101700008081822709C0662319F08081822B04C062
:101710009081822F8095892380838C91822B8C935A
:101720000895E0EBF0E083EF8083808184BDE1EBFE
:10173000F0E082E08083808185BDE4EBF0E0108200
:101740008081E3EBF0E08083808188BD88B587BD30
:1017500086E060E09ADF85E060E097DF8BE060E0A4
:1017600094DF83E060E091CF8091B602882321F47A
:1017700081E08093B602D5CF0895CF93DF93EC013B
:10178000F3DFD7FD02C020E004C0D095C195DF4F44
:1017900021E0CE01CF3FD10519F014F08FEF90E09A
:1017A000222319F018BC87BD02C088BD17BCDF9189
:1017B000CF910895CF93DF93EC01D6DFD7FD02C020
:1017C00020E004C0D095C195DF4F21E0CE01CF3F8E
:1017D000D10519F014F08FEF90E0222329F0109238
:1017E000B4008093B30004C08093B4001092B3009F
:1017F000DF91CF9108950F931F938B01BEDFC80136
:10180000D9DF1F910F910895F6CF08951F93CF93BD
:10181000DF93182F8091B702882391F481E08093A1
:10182000B70284B18D7C84B985B1826385B985E0C6
:1018300090E06F9364E06A95F1F76F910197C9F7B3
:10184000C12FD0E083B190E08C239D23892BD1F36D
:101850008AE090E009D283B190E08C239D23892B0C
:1018600089F383B18123DF91CF911F910895CECF6A
:1018700008951F93CF93DF93182F8091B702882389
:1018800091F481E08093B70284B18D7C84B985B1F5
:10189000826385B985E090E06F9364E06A95F1F723
:1018A0006F910197C9F7C12FD0E083B190E0809587
:1018B00090958C239D23892BC1F38AE090E0D4D1AD
:1018C00083B190E0809590958C239D23892B69F3BB
:1018D00083B180958123DF91CF911F910895C9CF66
:1018E00008952091C1002F772093C1009093D002DA
:1018F0008093CF021092C9026093CB0281E0809363
:10190000CC028091C702882329F48091C1008068AD
:101910008093C10008952091C702222311F488E921
:1019200001C088E18093C1008091CD029091CE02E8
:10193000892B79F09091C8028091CA02981748F4D7
:10194000222339F48091C10080628093C100789491
:1019500008958091C1008F7DF8CFEF92FF920F9391
:101960001F937B018C0180E0D6DF60EA75E286E29E
:1019700090E06E197F09800B910B33E0660F771FA3
:10198000881F991F3A95D1F724E0EE0CFF1C001F29
:10199000111F2A95D1F7A8019701F9D63093C500F8
:1019A0002093C4001F910F91FF90EF900895D5CF21
:1019B00008958091C1008F7D8093C100E091CD0298
:1019C000F091CE02309709F45DC08091C8029091E9
:1019D000CA02891708F05AC08091C00085FF56C01E
:1019E0008091C802E80FF11D80818093C60080912C
:1019F000C8028F5F8093C80249C08091C7028823C4
:101A000009F040C08091C10080628093C100809144
:101A1000C1008F778093C100E091CF02F091D00296
:101A2000309731F18091C9029091CB02891700F56E
:101A30008091C00087FF1CC02091C6008091C90220
:101A4000891750F48091C902E80FF11D208380911D
:101A5000C9028F5F8093C9029091C9028091CB0225
:101A6000981731F48091CC02882311F01092C902AA
:101A70008091C702882379F48091C10080688093A7
:101A8000C10008958091C1008F7DBFCF8091C802B1
:101A90008917C0F7B2CF08959093CE028093CD02FC
:101AA0001092C8026093CA02892BA1F08091C802EB
:101AB000861780F48091C702882361F48091C10069
:101AC00080620BC076DF9091C8028091CA0298179D
:101AD000C9F708958091C1008F7D8093C100F3CF35
:101AE000DBCF08951F920F920FB60F9211242F9300
:101AF0008F939F93EF93FF932091C600E091CF02C5
:101B0000F091D002309781F09091C9028091CB0280
:101B1000981750F48091C902E80FF11D208380913D
:101B2000C9028F5F8093C9029091C9028091CB0254
:101B3000981731F48091CC02882311F01092C902D9
:101B4000FF91EF919F918F912F910F900FBE0F906A
:101B50001F9018951F920F920FB60F9211248F931A
:101B60009F93EF93FF93E091CD02F091CE023097D7
:101B7000F9F08091C8029091CA02891738F58091D6
:101B8000C00085FF23C08091C802E80FF11D80814D
:101B90008093C6008091C8028F5F8093C80216C0F0
:101BA0008091C702882321F48091C100806203C024
:101BB0008091C1008F7D8093C100FF91EF919F9133
:101BC0008F910F900FBE0F901F9018958091C802B3
:101BD000891770F7E5CF2F928F939F932FB680913F
:101BE000D2029091D30201968093D2029093D302B5
:101BF00090E08091D402891F8093D4029091DA0200
:101C00009C5F9093DA028091D90280519742C0F094
:101C10009093DA028093D9028091D5029091D602F6
:101C200001968093D5029093D60290E08091D702DE
:101C3000891F8093D7028091D802891F8093D80290
:101C40002FBE9F918F912F90189528EE33E009C0F9
:101C5000F9016F9364E06A95F1F76F913197C9F7D5
:101C600001970097A9F7089528EE33E009C0F9011C
:101C70006F9364E06A95F1F76F913197C9F7019717
:101C80000097A9F70895FC01118210821382128235
:101C90001582148217821682613118F080E18087E4
:101CA00001C06087208B483078F481E090E002C06A
:101CB000880F991F4A95E2F781878BE290E093871E
:101CC00082878AE290E029C04E3098F4242F30E0D9
:101CD0002850304081E090E002C0880F991F2A957B
:101CE000E2F7818785E290E09387828784E290E043
:101CF00014C04431A8F4242F30E02E50304081E04D
:101D000090E002C0880F991F2A95E2F7818788E248
:101D100090E09387828787E290E095878487089593
:101D200015861486138612860895A0E0B0E0EAE9CD
:101D3000FEE06EC5EC016B01642F7901402F20E0BD
:101D4000A2DFCE018F5B9F4FFC011082FE01EE5B94
:101D5000FF4F1082DE01AD5BBF4F1C92FF86EE8607
:101D600030E041E050E07F0166E2662E712C8C018C
:101D700023E2822E912CBD0199E2A92EB12C58C0EC
:101D8000A32FB0E0F601EA0FFB1F80818830C0F47A
:101D9000FA0102C0EE0FFF1F8A95E2F7CF01FE01A4
:101DA000EA0FFB1F818BFB012081282B2083AA0FC8
:101DB000BB1FAC0FBD1F9296BC92AE92919737C0DD
:101DC0008E30D0F490E00897FA0102C0EE0FFF1FAA
:101DD0008A95E2F7CF01FE01EA0FFB1F818BF80124
:101DE0002081282B2083AA0FBB1FAC0FBD1F92960A
:101DF0009C928E9291971BC08431C8F490E00E970C
:101E0000FA0102C0EE0FFF1F8A95E2F7CF01FE0133
:101E1000EA0FFB1F818BF7012081282B2083AA0F5B
:101E2000BB1FAC0FBD1F92967C926E9291973F5F45
:101E30008885381708F4A4CFCDB7DEB7EEE004C527
:101E4000A0E0B0E0E5E2FFE0E5C4EC015B01CF5BC0
:101E5000DF4F4991A9918880C354D04090E009C0D8
:101E6000E92FF0E0EE0FFF1FEA0DFB1D118210823B
:101E70009F5F88859817A0F384B1CF5BDF4F3991BE
:101E8000832B84B987B12991822B87B98AB1988134
:101E9000C354D040892B8AB985B1832B85B988B1C9
:101EA000822B88B98BB1892B8BB9EAE0F0E06F9374
:101EB00064E06A95F1F76F913197C9F784B1309575
:101EC000832384B987B12095822387B98AB19095FD
:101ED00089238AB985B1382335B988B1282328B92F
:101EE0008BB198239BB99090B000C090B1008091C5
:101EF000B00083608093B00082E08093B100D09006
:101F0000B20060E070E03AC05091B2005D19650F18
:101F1000711DE3B0E41609F04FC0F6B0FA1609F0EF
:101F20004BC089B1881509F047C025C0A42FB0E087
:101F30009D01220F331F8501020F131FF8018081BD
:101F40009181892BA1F42C0F3D1FF90181A192A150
:101F5000FC01208130E0AC0FBD1F51968C9190E0C8
:101F600028233923232B19F4F801718360834F5FF1
:101F700088854817D8F2D50E4E2DAF2D8E859F85BA
:101F80006817790708F29092B000C092B10020E083
:101F90000FC0E22FF0E0EE0FFF1FEA0DFB1D808166
:101FA0009181892B21F48E859F85918380832F5F7A
:101FB0008885281770F305C0E3B0F6B089B040E01B
:101FC000D7CFCDB7DEB7ECE041C4A0E0B0E0EAEE99
:101FD000FFE024C4EC018B01D0907C00E0907A00FB
:101FE000C7B0F8B080917A0086FDFCCF90E009C0C0
:101FF000E92FF0E0EE0FFF1FE00FF11F11821082BA
:102000009F5F88859817A0F397B18AA18095982340
:1020100097B998B1892388B987E880937A0050E00E
:1020200024C0FE01E40FF11D818980937C00809122
:102030007A00806480937A0080917A0086FDFCCFDC
:10204000E42FF0E0EE0FFF1FE00FF11F209178006A
:102050003091790080819181820F931F91838083D9
:102060004F5F88854817E8F25F5F89A1581710F025
:1020700040E016C040E0F5CFE42FF0E0EE0FFF1F88
:10208000E00FF11F69A1862F90E09595879520813B
:102090003181820F931F70E066D3718360834F5F3D
:1020A0008885481748F3D0927C00E0927A00F8B80F
:1020B000C7B8CDB7DEB7E8E0CDC3A0E2B0E0E2E656
:1020C000F0E1ABC38C017B01D42E842F8150823090
:1020D000B0F4D8011C96ED91FC911D97309779F0E2
:1020E000808119969C911997892B80831A96ED917E
:1020F000FC911B97808119969C91892B8083F80114
:102100008089882339F5C02EB12EC801B70198DE29
:10211000D8011C96ED91FC911D97309781F080813C
:1021200019969C911997892B80831A96ED91FC91B1
:102130001B97908119968C91809589238083B2E0BA
:10214000DB1609F050C08C2D9B2DBE016F5F7F4FB9
:1021500077DE25C0C02EB12EC801B70136DFD80109
:102160001C96ED91FC911D97309781F08081199616
:102170009C911997892B80831A96ED91FC911B975E
:10218000908119968C91809589238083B2E0DB162B
:1021900051F58C2D9B2DBE016F5F7F4F16DF40E008
:1021A000BE016F5F7F4F1AC0E42FF0E0EE0FFF1FFC
:1021B0006701CE0EDF1EE60FF71FD8011E962D9188
:1021C0003C911F9780819181281B390BF6018081FA
:1021D0009181820F931F918380834F5FD80118965E
:1021E0008C91481708F3A096E9E033C3A0E0B0E073
:1021F000EBEFF0E110C3EC01162F072F942E22E035
:10220000421711F0442351F48C819D81892B09F4EC
:10221000A1C08E819F81892B09F49CC0892D81509A
:10222000823050F488819981892B09F493C08A8186
:102230009B81892B09F48EC0CE01612F702F492D0F
:102240003CDF812F902F9C015901CC24DD2400E03C
:1022500010E07AC081E0981669F4EA81FB81E00F12
:10226000F11F20813181E881F981E00FF11F408168
:1022700051813DC0AC81BD81992059F4EE81FF812F
:10228000E00FF11F20813181A00FB11F4D915C91B2
:102290002EC0A00FB11F8D919C91E881F981E00FB4
:1022A000F11F20813181EE85FF858217930710F49D
:1022B000AF0105C0A9014E0F5F1F481B590BEE81EE
:1022C000FF81E00FF11F60817181EA81FB81E00FE6
:1022D000F11F80819181EE85FF856817790710F4E1
:1022E0009F0105C09C012E0F3F1F261B370B790154
:1022F000E41AF50AF1F0F5016081718180E090E067
:102300009A0140E050E0621B730B840B950B28EEA2
:1023100033E040E050E0FCD1970140E050E059D27A
:10232000C901F3E0293E3F0714F088EE93E097FFE0
:1023300002C080E090E0F501819391935F010894E1
:10234000C11CD11C0E5F1F4F888590E0C816D906AE
:102350000CF480CFCDB7DEB7EBE079C2A4E0B0E0FB
:10236000E3EBF1E151C28C01F62EE72E2A833EDF2A
:10237000D8011896BC91B9832F2D3E2DC9018C012F
:10238000552444246624772443011C821B82AA24FA
:10239000BB246501B8EE2B2EB3E03B2E31C0F80113
:1023A000E080F180FA81FF2321F091012E193F098D
:1023B000790139ECE316F10414F04424439483E3E7
:1023C000E816F10494F0B701882777FD8095982FDF
:1023D000A60195019DD1660E771E881E991EAB81C0
:1023E000BC81AE0DBF1DBC83AB83539488EE93E0DC
:1023F000A0E0B0E0A80EB91ECA1EDB1E0E5F1F4F84
:102400009981591660F2442021F5692F70E084EF1C
:1024100091E0DC016A9FC0016B9F900D7A9F900D47
:102420001124845F91402091DC023091DD02281755
:1024300039071CF440E050E019C088EE93E0689F33
:10244000A001699F500D789F500D1124485E5340A4
:102450000DC0EB81FC819F0140E050E0C401B3015D
:1024600096D1A9013093DD022093DC02CA012496A3
:10247000E2E1E6C19C01462F8091DE029091DF02ED
:10248000B90120E06BCFA3E6B0E0E8E4F2E1BCC123
:102490007C015B016A01A2962FAFA297DA018D91B0
:1024A0009C91892B11F5F701808590E0880F991F89
:1024B0000E945806D6018D939C93009709F4DEC0C4
:1024C00020E030E00CC0C901880F991FD601ED91C2
:1024D000FC91E80FF91F118210822F5F3F4FF70127
:1024E000808590E02817390774F3D5018D919C9170
:1024F000892B89F000E010E03E010894611C711CFA
:1025000041E4242E312C2C0E3D1E31E2432E512C61
:102510004C0E5D1E28C0F701808590E0880F991F42
:102520000E945806D5018D939C93009709F4A6C08C
:1025300020E030E011C0C901880F991FD501ED914D
:10254000FC91E80FF91FD7011E968D919C911F9762
:10255000918380832F5F3F4FF701808590E028179C
:1025600039074CF3C7CFC701B301A2964FADA2976D
:10257000A4DDD70118968C91882E9924A101F3012E
:10258000A4965FAE4EAEA49760E070E034C0011533
:10259000110559F0A496AEADBFADA4972D913C9115
:1025A000808191812817390758F480819181A49600
:1025B000AEADBFADA4978D939C930115110541F06D
:1025C000DA012D913C91808191818217930728F443
:1025D00080819181DA018D939C936F5F7F4F4E5F75
:1025E0005F4F3296A4968EAD9FADA4970296A496A7
:1025F0009FAF8EAFA497681579054CF20F5F1F4F00
:102600000A30110509F0AFCF40E050E020E030E0A3
:102610008E010F5B1F4FBE016F5D7F4F28C0F80119
:10262000E20FF31F80809180F601A081B181A20F9B
:10263000B31F8D919C9111978815990510F48D9277
:102640009C92FB01E20FF31F80809180F501A08135
:10265000B181A20FB31F8D919C9111978816990695
:1026600010F48D929C924F5F5F4F2E5F3F4FD701CA
:1026700018968C9190E0481759078CF2CD59DF4F8E
:10268000E2E1DEC01F93CF93DF93EC01162F862F7C
:102690008150823038F4AE014E5F5F4FCE01BE01F3
:1026A00021E0F1DE123011F0112341F4AE014A5F56
:1026B0005F4FCE012496BE0120E0E5DEDF91CF9191
:1026C0001F910895682F8091DE029091DF02DACF8A
:1026D000A0E0B0E0EDE6F3E1A1C08C01D62E7A01D6
:1026E000C22E84E490E00E945806EC01009711F499
:1026F00080E00AC0B8014D2D97010C2D16DBD09358
:10270000DF02C093DE0281E0CDB7DEB7E8E0A2C011
:10271000629FD001739FF001829FE00DF11D649FC5
:10272000E00DF11D929FF00D839FF00D749FF00D51
:10273000659FF00D9927729FB00DE11DF91F639FF2
:10274000B00DE11DF91FBD01CF0111240895991BA2
:1027500079E004C0991F961708F0961B881F7A9598
:10276000C9F780950895AA1BBB1B51E107C0AA1F9A
:10277000BB1FA617B70710F0A61BB70B881F991F22
:102780005A95A9F780959095BC01CD010895A1E2D5
:102790001A2EAA1BBB1BFD010DC0AA1FBB1FEE1FDB
:1027A000FF1FA217B307E407F50720F0A21BB30B26
:1027B000E40BF50B661F771F881F991F1A9469F7A2
:1027C00060957095809590959B01AC01BD01CF01FE
:1027D000089597FB092E05260ED057FD04D0D7DFAC
:1027E0000AD0001C38F450954095309521953F4F04
:1027F0004F4F5F4F0895F6F79095809570956195CE
:102800007F4F8F4F9F4F08952F923F924F925F922D
:102810006F927F928F929F92AF92BF92CF92DF92F0
:10282000EF92FF920F931F93CF93DF93CDB7DEB755
:10283000CA1BDB0B0FB6F894DEBF0FBECDBF0994E9
:102840002A88398848885F846E847D848C849B8440
:10285000AA84B984C884DF80EE80FD800C811B814E
:10286000AA81B981CE0FD11D0FB6F894DEBF0FBE7D
:10287000CDBFED010895EE0FFF1F0590F491E02DFF
:062880000994F894FFCF5B
:10288600507265737320427574746F6E20412074A4
:102896006F2073746172742063616C696272617413
:1028A600696E672E2E2E0A003E3E6133320050724C
:1028B60065737320427574746F6E204120746F20A7
:1028C6007374617274206C696E6520666F6C6C6FD0
:1028D60077696E672E2E2E0A0053544F500A000455
:1028E60007131211100F0E74697020666F727761EC
:1028F60072640A003C3C63333200746970206C6574
:1029060066740A00633332007469702072696768FE
:10291600740A003C63333200040400D007F4010F4C
:102926000001000000000000000000010202030395
:10293600030304040404040404040505050505054D
:10294600050505050505050505050606060606062B
:102956000606060606060606060606060606060611
:1029660006060606060606060606070707070707FB
:1029760007070707070707070707070707070707E1
:1029860007070707070707070707070707070707D1
:1029960007070707070707070707070707070707C1
:1029A60007070707070707070707080808080808AB
:1029B6000808080808080808080808080808080891
:1029C6000808080808080808080808080808080881
:1029D6000808080808080808080808080808080871
:1029E6000808080808080808080808080808080861
:1029F6000808080808080808080808080808080851
:102A06000808080808080808080808080808080840
:102A16000808080808080808080808080808080830
:102A260008080808080808080808200048030000E5
:00000001FF
