:100000004BC0000065C0000063C0000061C000007C
:100010005FC000005DC000005BC0000059C0000070
:1000200057C000000C94E70D53C0000051C0000001
:100030004FC000000C94D70A4BC0000049C000001C
:1000400047C0000045C000000C946E0D0C94A60D36
:100050003FC000003DC000003BC0000039C00000B0
:1000600037C0000035C000003A0840084308460881
:1000700049084C084F085208550858085B085E08A4
:100080003E6733323E3E633332004C313620636488
:10009000656772656734000011241FBECFEFD8E09A
:1000A000DEBFCDBF12E0A0E0B1E0EEE7F8E202C0B3
:1000B00005900D92AE33B107D9F712E0AEE3B2E08E
:1000C00001C01D92A63DB107E1F777D00C943D1415
:1000D00097CF289A209A0E94210E2898209A089556
:1000E000A8E0B0E0E6E7F0E00C940E1480E890E0C1
:1000F0000E94C80A60E875E280E090E00E94D30C9C
:100100008EE692E064E60E94510CDE011196E9E56C
:10011000F1E088E001900D928150E1F7CE01019667
:1001200068E040ED57E022E00E946413A3D68823E4
:10013000E9F780E091E067E20E946C0D82E00E94A6
:100140004F0C82E00E94170C80E293E00E94210E87
:100150000CEE1FEF0832110528F082E390E06EEC00
:100160007FEF04C08EEC9FEF62E370E00E94E40B2F
:1001700081E00E945E1384E190E00E94210E0F5FF7
:100180001F4F0C33110531F780E090E060E070E024
:100190000E94E40B88E291E00E94D50A8EE291E091
:1001A0006AE20E946C0D82E00E944F0C82E00E9485
:1001B000170C2896E4E00C942A1492DF48D008D15A
:1001C000FDCF0F93CF93DF93522F6430710590F1E1
:1001D0009C01E901A0E0B0E0E0E0F0E020E030E0E8
:1001E00010C0888199818230910599F08130910504
:1001F00011F4319604C0039711F42F5F3F4F11960D
:100200002296A617B70768F31EC02E173F0720F0E7
:100210000BC0552331F00EC0442371F4552341F037
:1002200009C0442349F40AC0552321F4442321F48E
:10023000002321F483E503C08CE401C082E5DF9153
:10024000CF910F9108952E173F0790F7DECFA0E1D1
:10025000B0E0EDE2F1E00C940E148E010F5F1F4F41
:10026000C80161E00E943612AC018F8198858D5BD8
:10027000924008F43CC089819A818D529140B8F136
:100280008D819E812B813C81820F931F88559240E6
:1002900070F56F85788981E06D327807B0F08D85D3
:1002A0009E852B853C85820F931F8855924068F46C
:1002B00081E691E06CE00E946C0D8EE691E00E9478
:1002C000D50AD8D58823E9F77CC06C52714088F5EF
:1002D00084E791E069E00E946C0D8EE691E00E9457
:1002E000D50AC8D58823E9F721E030E06CC08985BC
:1002F0009A858D5B9240E8F08F8598898D52914068
:10030000C0F08D859E852B853C85820F931F885577
:10031000924078F48EE791E06AE00E946C0D8EE6E0
:1003200091E00E94D50AA6D58823E9F723E030E0C2
:100330004AC083E0483E580728F480E090E06EE62B
:1003400070E03CC027E0403D520718F480E090E0A8
:100350000DC08BE0483B580718F48EE190E006C0D2
:100360002CE0443E520728F486E490E06AE570E011
:1003700025C08EE04437580728F484E690E064E610
:1003800070E01CC02FE0403A520728F48AE590E064
:1003900066E470E013C083E14838580728F48AE522
:1003A00090E06EE170E00AC04057574118F48AE5CA
:1003B00090E002C08EE690E060E070E00E94E40B06
:1003C0004FCF22E030E0C9016096E4E00C942A149B
:1003D000A9EDB0E0EEEEF1E00C9404148C0189E894
:1003E00091E068E10E946C0D1B8B0A8B01E010E02C
:1003F00062E0662E712C6C0E7D1E7E010894E11C5D
:10040000F11C51E0852E912C42E0A42EB12C33E05A
:10041000C32ED12CC30161E00E9436128A819B81D8
:10042000893C910508F449C08E819F812C813D81D2
:10043000820F931F8855924008F03FC04889598920
:10044000493C5105E8F08E859F852C853D85820FBE
:10045000931F88559240A0F482EA91E06FE00E94D9
:100460006C0D8EE691E00E94D50A04D58823E9F749
:10047000F801EE0FFF1FEE0DFF1DB28AA18A3EC0EC
:1004800046395105A0F482EB91E06CE00E946C0DBE
:100490008EE691E00E94D50AEDD48823E9F7F801B1
:1004A000EE0FFF1FEE0DFF1D928A818A27C08FEB92
:1004B00091E066E00E946C0D23C088899989893C8F
:1004C0009105F0F08E859F852C853D85820F931FC9
:1004D00088559240A8F486EC91E06DE00E946C0D86
:1004E0008EE691E00E94D50AC5D48823E9F7F80189
:1004F000EE0FFF1FEE0DFF1DD28AC18A0F5F1F4F47
:100500008C819D818558934050F08E819F818558C4
:10051000934028F08A819B818558934080F42C85F4
:100520003D8543E025383407B8F08E859F85855892
:10053000934090F0888999898558934068F084EDBC
:1005400091E065E00E946B0C8AED91E00E94D50A73
:1005500091D48823E9F726C0888599858F5E9240DB
:1005600028F08A859B858F5E9240A8F48E819F81BA
:10057000893C910518F081E290E00FC0293C3105DB
:1005800028F088E290E061E270E009C08FED91E030
:1005900069E00E946C0D88E290E068E270E00E94E1
:1005A000E40B38CF88E290E068E270E00E94E40B50
:1005B00088EC90E00E94210ECE01029661E00E943C
:1005C0003612CE014296B80141E021E001E0F9DDAA
:1005D0008983CE01019661E00E946C0D89EE91E065
:1005E00061E00E946C0D89816AE570E071D082E360
:1005F00090E062E370E00E94E40B8BEE91E068E132
:100600000E946C0DC752DF4FEEE00C942014A4E65C
:10061000B0E0EDE0F3E00C940E149C018DB79EB7B2
:1006200044970FB6F8949EBF0FBE8DBFEDB7FEB7CF
:1006300031968E010F5F1F4FADB7BEB712961C9358
:100640000E93119784E092E093838283D9018D9178
:100650009C9111979583848312968D919C91139709
:100660009783868314968D919C91159791878087A7
:1006700016968D919C9117979387828718968D91E6
:100680009C911997958784871A968D919C911B97B9
:10069000978786871C968D919C911D97918B808B57
:1006A0001E968D919C911F97938B828B50D18DB705
:1006B0009EB744960FB6F8949EBF0FBE8DBFC8017B
:1006C00068E20E946C0DCC59DF4FE4E00C942A14D0
:1006D0008C3429F0823541F08234D1F40FC084EC9F
:1006E0009FEF6CE370E004C08CE390E064EC7FEF7C
:1006F0000E94E40B8AEE91E00C94210E8DE290E0D2
:1007000063ED7FEF0E94E40B84ED93E00C94210EE7
:1007100008950F931F938C018CE46AE570E0D8DF95
:10072000C801B8010E94E40B1F910F9108950F9327
:100730001F938C0182E56AE570E0CADFC801B80149
:100740000E94E40B1F910F910895CF93DF93BC019A
:100750008230910510F462E070E0A091D402B09173
:10076000D502ED01E0E0F0E040E050E021C08881FA
:1007700099818617970769F48A819B81309719F0D0
:100780009383828304C09093D5028093D402FE01A8
:1007900034C06817790738F44115510519F08417EA
:1007A000950708F4AC01FE018A819B819C01E90157
:1007B0002097E9F641155105A9F1CA01861B970B4F
:1007C000049708F4BA01E0E0F0E02AC08D919C9112
:1007D000119784179507F9F46417750781F4129639
:1007E0008D919C911397309719F09383828304C065
:1007F0009093D5028093D402FD0132964CC0CA0179
:10080000861B970BFD01E80FF91F61937193029707
:100810008D939C9340C0FD01828193819C01D901FD
:100820001097A1F68091D2029091D302892B41F4C6
:100830008091390290913A029093D3028093D20230
:1008400040913B0250913C024115510541F44DB796
:100850005EB78091370290913802481B590B209166
:10086000D2023091D302CA01821B930B86179707DD
:1008700080F0AB014E5F5F4F8417950750F0420F39
:10088000531F5093D3024093D202F90161937193A5
:1008900002C0E0E0F0E0CF01DF91CF910895CF9367
:1008A000DF93009709F450C0EC0122971B821A8253
:1008B000A091D402B091D502109709F140E050E028
:1008C000AC17BD0708F1BB83AA83FE0121913191CA
:1008D000E20FF31FAE17BF0779F48D919C9111972A
:1008E000280F391F2E5F3F4F3983288312968D9131
:1008F0009C9113979B838A834115510571F4D09382
:10090000D502C093D40220C012968D919C9113976A
:10091000AD01009711F0DC01D3CFFA01D383C2837C
:1009200021913191E20FF31FCE17DF0769F488811F
:100930009981280F391F2E5F3F4FFA0131832083A1
:100940008A819B8193838283DF91CF910895AEE06A
:10095000B0E0EDEAF4E00C940E140D891E8986E0F7
:100960008C831A8309838FEF9FE79E838D839E017B
:10097000275E3F4FCE0101966F89788DA9010AD07D
:100980002F813885020F131FF80110822E96E4E0A4
:100990000C942A14ABE0B0E0E0EDF4E00C94001409
:1009A0003C012B015A01FC0117821682838181FDD3
:1009B00003C06FEF7FEFB9C19AE0892E1E01089442
:1009C000211C311CF3012381F20123FD859123FFBA
:1009D00081912F01882309F4A5C1853239F423FDC3
:1009E000859123FF81912F01853221F490E0B3019D
:1009F000B7D1E8CF982FFF24EE249924FFE1FF150B
:100A0000D0F09B3269F09C3228F4903259F0933246
:100A100091F40EC09D3249F0903369F441E024C056
:100A200052E0F52A84E0F82A28C098E0F92A25C087
:100A3000E0E1FE2A22C0F7FC29C0892F80538A30CA
:100A400070F4F6FE05C0989C902C1124980E15C0E9
:100A5000E89CE02C1124E80EF0E2FF2A0EC09E3242
:100A600029F4F6FC5FC140E4F42A07C09C3619F46F
:100A700050E8F52A02C0983649F4F20123FD959119
:100A800023FF91912F01992309F0B8CF892F855425
:100A9000833018F08052833038F444E050E0A40EE4
:100AA000B51E5FE359830FC0933631F0933779F069
:100AB000933509F052C01FC0F5018081898342E05F
:100AC00050E0A40EB51E610101E010E011C0F50177
:100AD000C080D180F6FC03C06FEF7FEF02C0692DAC
:100AE00070E042E050E0A40EB51EC6012ED18C018C
:100AF0005FE7F52213C0F501C080D180F6FC03C08A
:100B00006FEF7FEF02C0692D70E042E050E0A40E6D
:100B1000B51EC6010FD18C0150E8F52AF3FE06C0C0
:100B200018C080E290E0B3011BD1EA948E2D90E0D2
:100B300008171907B0F30DC0F601F7FC8591F7FE11
:100B400081916F0190E0B3010BD1E110EA94015063
:100B500010400115110581F7E2C0943611F0993665
:100B600061F5F7FE08C0F501208131814281538192
:100B700084E090E00AC0F501808191819C014427C6
:100B800037FD4095542F82E090E0A80EB91E9FE6F5
:100B9000F92257FF09C050954095309521953F4F58
:100BA0004F4F5F4FE0E8FE2ACA01B901A1012AE0D8
:100BB00030E002D1D82ED2183FC0953729F41F2D2E
:100BC0001F7E2AE030E01DC01F2D197F9F3661F087
:100BD000903720F4983509F0A5C00FC0903739F050
:100BE000983709F09FC004C028E030E00AC01061C7
:100BF00014FD146020E130E004C014FD166020E113
:100C000032E017FF08C0F501608171818281938114
:100C100044E050E008C0F50180819181BC0180E092
:100C200090E042E050E0A40EB51EA101C5D0D82E40
:100C3000D2188FE7F82EF122F6FE0BC05EEFF522F8
:100C4000D91438F4F4FE07C0F2FC05C08FEEF82288
:100C500002C01D2D01C0192DF4FE0DC0FE01ED0DC9
:100C6000F11D8081803319F499EEF92208C01F5FCD
:100C7000F2FE05C003C08F2D867809F01F5F0F2D8F
:100C8000F3FC13C0F0FE0EC01E1510F09D2C0AC020
:100C90009D2C9E0C911A1E2D05C080E290E0B301A0
:100CA0005FD01F5F1E15C8F304C01E1510F4E11AB3
:100CB00001C0EE2404FF0EC080E390E0B30150D0E9
:100CC00002FF1BC001FD03C088E790E00EC088E56D
:100CD00090E00BC0802F867881F001FF02C08BE28C
:100CE00001C080E2F7FC8DE290E0B30139D005C08D
:100CF00080E390E0B30134D09A94D914C8F3DA9425
:100D0000F101ED0DF11D808190E0B30129D0DD20CE
:100D1000B1F705C080E290E0B30122D0EA94EE2062
:100D2000C9F750CEF30166817781CB012B96E2E1C2
:100D30000C941C14FC010590615070400110D8F710
:100D4000809590958E0F9F1F0895FC016150704013
:100D500001900110D8F7809590958E0F9F1F0895F0
:100D60000F931F93CF93DF938C01EB018B8181FF56
:100D70001BC082FF0DC02E813F818C819D81281771
:100D8000390764F4E881F9810193F983E88306C0A7
:100D9000E885F985802F0995892B31F48E819F8113
:100DA00001969F838E8302C00FEF1FEFC801DF9172
:100DB000CF911F910F910895FA01AA27283051F180
:100DC000203181F1E8946F936E7F6E5F7F4F8F4F7C
:100DD0009F4FAF4FB1E03ED0B4E03CD0670F781FDB
:100DE000891F9A1FA11D680F791F8A1F911DA11DC0
:100DF0006A0F711D811D911DA11D20D009F46894F9
:100E00003F912AE0269F11243019305D3193DEF6A0
:100E1000CF010895462F4770405D4193B3E00FD056
:100E2000C9F7F6CF462F4F70405D4A3318F0495D41
:100E300031FD4052419302D0A9F7EACFB4E0A69524
:100E40009795879577956795BA95C9F70097610546
:100E5000710508959B01AC010A2E0694579547959C
:100E600037952795BA95C9F7620F731F841F951F91
:100E7000A01D089580913602882339F020E08091EA
:100E8000530290915402892B09F021E0822F08959A
:100E9000A0E0B0E0EEE4F7E00C940814FC015B0184
:100EA000C42E809152028823C9F481E080935202BB
:100EB00010926F0083E28093800081E18093810033
:100EC0001092820080E197E29093890080938800DD
:100ED00010928B0010928A00229A78941092360217
:100EE000F7FD03C0DD24D39403C0FF772AE0D22EA0
:100EF00080918100082F10E0087F107088ECD89E48
:100F0000C00111248E179F07C0F4EF0187E2E13181
:100F1000F80710F0C0E1D7E2BE017695679580E052
:100F200090E06058794687469F4F9E0140E050E030
:100F30000E94C3137901016024C088E2D89E802DED
:100F40001124C82FD0E0CE17DF0708F4EF01BE014F
:100F5000769567959E0140E050E08AE0D81639F416
:100F600080E090E0605E734481449F4F06C080E063
:100F700090E060537D4E8C4E9F4F0E94C3137901C9
:100F800002608AE0D81639F4CE0105966AE070E076
:100F90000E94AF13EB0183E0C83ED80711F4B501FE
:100FA0000FC0BE0180E090E0950140E050E00E945B
:100FB000841328EE33E040E050E00E94E513B901CD
:100FC00010926F0000938100F0928900E0928800F7
:100FD000E0918800F0918900AC2DA03108F0AFE0DD
:100FE00080E190E08A1B910902C0F695E7958A9509
:100FF000E2F7F0938B00E0938A00709343026093D2
:10100000420286B38FEF86BB81E080936F00CDB73D
:10101000DEB7EAE00C942414CF93DF93EB018F3F0B
:1010200011F0442329F488EE93E0BE0140E067C04C
:10103000813110F420E005C0282F2051203608F01F
:101040002FE5822F6CE00E94A313382F682F70E0E9
:1010500084EF9FEF689FF001699FF00D789FF00D7E
:101060001124E20FF11DEC30F10538F4EC5CFF4F78
:101070000C9437148CE991E023C080E090E020C00C
:1010800085EB91E01DC08FEC91E01AC08AEE91E0F3
:1010900017C087E092E014C086E292E011C087E4B6
:1010A00092E00EC089E692E00BC08EE892E008C0A4
:1010B00085EB92E005C08EED92E002C08AE093E0FD
:1010C000373071F002C0880F991F6A95E2F732300D
:1010D00020F005966AE070E00BC0805090480BC08D
:1010E00036E0880F991F3A95E1F7029665E070E0C7
:1010F0000E94AF13CB01403108F04FE0BE01C8DEC3
:10110000DF91CF91089530914002E0915302F09128
:101110005402332311F0249101C02081822F815485
:101120008A3108F4205E203259F480915302909164
:10113000540201969093540280935302019729F729
:10114000822F0895CF93DF93DEDF282FC0E0D0E019
:101150001CC0CE0153E0880F991F5A95E1F7CC0FC0
:10116000DD1FC80FD91F822F992787FD9095C80FC3
:10117000D91FE09780915302909154020196909369
:10118000540280935302BFDF282F822F80538A306E
:1011900000F3CE01DF91CF910895A0E0B0E0E3ED40
:1011A000F8E00C94061480902D02B0903E02BB2013
:1011B00021F060913F02662399F4A0903F020091D4
:1011C000320210913302E0902E02F0902F02C09173
:1011D0003002D0913102C0903402D090350203C168
:1011E0008FEF70E040E018DF10923F02C0C194E042
:1011F000892EBB2404EF11E084E0E82EF12CC0ED31
:10120000D7E0B4E09B2EAFE0CA2ED12C7CDF282F94
:1012100080915302909154020196909354028093CE
:101220005302263609F498C02736CCF42236A1F1B1
:10123000233674F42E3361F12F3334F42132B9F2B2
:101240002C3309F006C126C0213609F002C11CC1A9
:10125000243609F451C025360CF066C035C02F364F
:1012600009F4BFC0203754F42C3609F4A5C02D363C
:1012700009F4A5C0273609F0ECC086C0243709F46C
:10128000CEC0263709F4E2C0223709F0E2C0ADC073
:101290008394BCCF8A94BACFA0923F02B0923E0210
:1012A0001093330200933202F0922F02E0922E024A
:1012B000D0933102C093300290922D02D092350229
:1012C000C09234022BE0F7C0A0923F02B0923E02DF
:1012D0001093330200933202F0922F02E0922E021A
:1012E000D0933102C093300290922D02D0923502F9
:1012F000C092340220E0DFC0A0923F02B0923E02D2
:101300001093330200933202F0922F02E0922E02E9
:10131000D0933102C093300290922D02D0923502C8
:10132000C092340222E0C7C0A0923F02B0923E02B7
:101330001093330200933202F0922F02E0922E02B9
:10134000D0933102C093300290922D02D092350298
:10135000C092340224E0AFC0A0923F02B0923E029D
:101360001093330200933202F0922F02E0922E0289
:10137000D0933102C093300290922D02D092350268
:10138000C092340225E097C0A0923F02B0923E0284
:101390001093330200933202F0922F02E0922E0259
:1013A000D0933102C093300290922D02D092350238
:1013B000C092340227E07FC0C5DE7C0141C0A3DEBD
:1013C0008C3611F4BB2403C0AA24BB24B3948091AF
:1013D00053029091540201969093540280935302C9
:1013E00015CFB0DE882E982C11CFA0923F02B0927C
:1013F0003E021093330200933202F0922F02E092E9
:101400002E02D0933102C093300290922D02D092DE
:101410003502C092340220E0FF24F3944DC092DEE6
:10142000BC0180EC9DE50E94AF13CB01EB01F3E022
:10143000CC0FDD1FFA95E1F7880F991FC80FD91F50
:10144000CE01B7010E94AF138B01E0CE7BDE6C01B1
:10145000DDCEA0923F02B0923E0210933302009381
:101460003202F0922F02E0922E02D0933102C0930A
:10147000300290922D02D0923502C0923402109226
:1014800054021092530273C0A0923F02B0923E02E7
:101490001093330200933202F0922F02E0922E0258
:1014A000D0933102C093300290922D02D092350237
:1014B000C092340229E0FF248CE0889EC0011124F0
:1014C000E22EE80E0AC080915302909154020196D8
:1014D0009093540280935302E39415DE8B3299F378
:1014E000833289F30BC0809153029091540201968C
:1014F0009093540280935302EA9405DE8D3299F35F
:10150000C0913202D09133028153883050F400915F
:1015100030021091310216DEBC01C8010E94AF13E7
:10152000EB018E010BC08091530290915402019601
:101530009093540280935302C00FD11F16950795C4
:10154000E2DD8E3281F380913E02882339F0CE01B4
:101550009695879580933F02C81BD109FF2011F013
:10156000EE24EA948E2DBE014091340255DDCDB7B4
:10157000DEB7ECE00C94221410926F0090935402AA
:101580008093530281E08093400210923F0205CE87
:10159000F3CF089510926F009093540280935302FA
:1015A0001092400210923F02F8CDF4CF08951F929E
:1015B0000F920FB60F9211242F933F934F935F9387
:1015C0006F937F938F939F93AF93BF93EF93FF930B
:1015D000809142029091430201979093430280933D
:1015E0004202019609F510926F0078948091810073
:1015F000887F81608093810080E197E290938900E9
:101600008093880010928B0010928A0081E0809372
:1016100036028091530290915402892B29F08091D7
:101620004102882309F4B9DDFF91EF91BF91AF9199
:101630009F918F917F916F915F914F913F912F91EA
:101640000F900FBE0F901F901895282F883068F4C8
:1016500081E090E002C0880F991F2A95E2F7282FB9
:10166000AAE2B0E0EBE2F0E029C08E3080F430E096
:101670002850304081E090E002C0880F991F2A95E1
:10168000E2F7282FA4E2B0E0E5E2F0E017C08531F0
:1016900030F020E0A0E0B0E0E0E0F0E00FC030E0AB
:1016A0002E50304081E090E002C0880F991F2A95AB
:1016B000E2F7282FA7E2B0E0E8E2F0E06F3F19F48C
:1016C0008081822709C0662319F08081822B04C0A3
:1016D0009081822F8095892380838C91822B8C939B
:1016E0000895E0EBF0E083EF8083808184BDE1EB3F
:1016F000F0E082E08083808185BDE4EBF0E0108241
:101700008081E3EBF0E08083808188BD88B587BD70
:1017100086E060E09ADF85E060E097DF8BE060E0E4
:1017200094DF83E060E091CF80914402882321F42C
:1017300081E080934402D5CF0895CF93DF93EC01ED
:10174000F3DFD7FD02C020E004C0D095C195DF4F84
:1017500021E0CE01CF3FD10519F014F08FEF90E0DA
:10176000222319F018BC87BD02C088BD17BCDF91C9
:10177000CF910895CF93DF93EC01D6DFD7FD02C060
:1017800020E004C0D095C195DF4F21E0CE01CF3FCE
:10179000D10519F014F08FEF90E0222329F0109278
:1017A000B4008093B30004C08093B4001092B300DF
:1017B000DF91CF9108950F931F938B01BEDFC80176
:1017C000D9DF1F910F910895F6CF08951F93CF93FE
:1017D000DF93182F80914502882391F481E0809354
:1017E000450284B18D7C84B985B1826385B985E079
:1017F00090E06F9364E06A95F1F76F910197C9F7F4
:10180000C12FD0E083B190E08C239D23892BD1F3AD
:101810008AE090E025D283B190E08C239D23892B30
:1018200089F383B18123DF91CF911F910895CECFAA
:1018300008951F93CF93DF93182F8091450288233B
:1018400091F481E08093450284B18D7C84B985B1A7
:10185000826385B985E090E06F9364E06A95F1F763
:101860006F910197C9F7C12FD0E083B190E08095C7
:1018700090958C239D23892BC1F38AE090E0F0D1D1
:1018800083B190E0809590958C239D23892B69F3FB
:1018900083B180958123DF91CF911F910895C9CFA6
:1018A00008952091C1002F772093C10090935E028C
:1018B00080935D02109257026093590281E08093F9
:1018C0005A0280915502882329F48091C1008068D2
:1018D0008093C100089590935C0280935B02109204
:1018E000560260935802892B61F080915602861748
:1018F00040F480915502882321F48091C1008062D8
:1019000003C08091C1008F7D8093C1000895209114
:101910005502222311F488E901C088E18093C100B7
:1019200080915B0290915C02892B79F09091560234
:1019300080915802981748F4222339F48091C1000D
:1019400080628093C100789408958091C1008F7D5A
:10195000F8CFEF92FF920F931F937B018C0180E0F1
:10196000D6DF60EA75E286E290E06E197F09800BAF
:10197000910B33E0660F771F881F991F3A95D1F7B7
:1019800024E0EE0CFF1C001F111F2A95D1F7A801BF
:101990009701F9D63093C5002093C4001F910F9191
:1019A000FF90EF900895D5CF08958091C1008F7D6D
:1019B0008093C100E0915B02F0915C02309709F4E2
:1019C0005DC08091560290915802891708F05AC064
:1019D0008091C00085FF56C080915602E80FF11D2E
:1019E00080818093C600809156028F5F809356025B
:1019F00049C080915502882309F040C08091C10000
:101A000080628093C1008091C1008F778093C10074
:101A1000E0915D02F0915E02309731F180915702C2
:101A200090915902891700F58091C00087FF1CC072
:101A30002091C60080915702891750F48091570277
:101A4000E80FF11D2083809157028F5F809357022A
:101A50009091570280915902981731F480915A025F
:101A6000882311F01092570280915502882379F44F
:101A70008091C10080688093C10008958091C10069
:101A80008F7DBFCF809156028917C0F7B2CF0895DE
:101A900090935C0280935B0210925602609358020E
:101AA000892BA1F080915602861780F4809155020F
:101AB000882361F48091C10080620BC076DF909131
:101AC0005602809158029817C9F708958091C10075
:101AD0008F7D8093C100F3CFDBCF08951F920F92CB
:101AE0000FB60F9211242F938F939F93EF93FF9331
:101AF0002091C600E0915D02F0915E02309781F086
:101B00009091570280915902981750F48091570292
:101B1000E80FF11D2083809157028F5F8093570259
:101B20009091570280915902981731F480915A028E
:101B3000882311F010925702FF91EF919F918F919E
:101B40002F910F900FBE0F901F9018951F920F921C
:101B50000FB60F9211248F939F93EF93FF93E09111
:101B60005B02F0915C023097F9F0809156029091FF
:101B70005802891738F58091C00085FF23C08091F5
:101B80005602E80FF11D80818093C60080915602B5
:101B90008F5F8093560216C080915502882321F4EE
:101BA0008091C100806203C08091C1008F7D8093CD
:101BB000C100FF91EF919F918F910F900FBE0F90F9
:101BC0001F90189580915602891770F7E5CF2F92D4
:101BD0008F939F932FB6809160029091610201963E
:101BE000809360029093610290E080916202891F6D
:101BF00080936202909168029C5F9093680280914A
:101C0000670280519742C0F0909368028093670208
:101C10008091630290916402019680936302909395
:101C2000640290E080916502891F80936502809133
:101C30006602891F809366022FBE9F918F912F901D
:101C4000189528EE33E009C0F9016F9364E06A95B6
:101C5000F1F76F913197C9F701970097A9F70895A8
:101C600028EE33E009C0F9016F9364E06A95F1F75B
:101C70006F913197C9F701970097A9F70895FC0173
:101C800011821082138212821582148217821682A8
:101C9000613118F080E1808701C06087208B483077
:101CA00078F481E090E002C0880F991F4A95E2F72E
:101CB00081878BE290E0938782878AE290E029C057
:101CC0004E3098F4242F30E02850304081E090E0EE
:101CD00002C0880F991F2A95E2F7818785E290E07C
:101CE0009387828784E290E014C04431A8F4242FC3
:101CF00030E02E50304081E090E002C0880F991F04
:101D00002A95E2F7818788E290E09387828787E2CD
:101D100090E0958784870895158614861386128629
:101D20000895A0E0B0E0E6E9FEE06EC5EC016B01CD
:101D3000642F7901402F20E0A2DFCE018F5B9F4FFF
:101D4000FC011082FE01EE5BFF4F1082DE01AD5BF5
:101D5000BF4F1C92FF86EE8630E041E050E07F01ED
:101D600066E2662E712C8C0123E2822E912CBD013D
:101D700099E2A92EB12C58C0A32FB0E0F601EA0FCA
:101D8000FB1F80818830C0F4FA0102C0EE0FFF1FF4
:101D90008A95E2F7CF01FE01EA0FFB1F818BFB0161
:101DA0002081282B2083AA0FBB1FAC0FBD1F92964A
:101DB000BC92AE92919737C08E30D0F490E00897E5
:101DC000FA0102C0EE0FFF1F8A95E2F7CF01FE0174
:101DD000EA0FFB1F818BF8012081282B2083AA0F9B
:101DE000BB1FAC0FBD1F92969C928E9291971BC009
:101DF0008431C8F490E00E97FA0102C0EE0FFF1F85
:101E00008A95E2F7CF01FE01EA0FFB1F818BF701F4
:101E10002081282B2083AA0FBB1FAC0FBD1F9296D9
:101E20007C926E9291973F5F8885381708F4A4CF13
:101E3000CDB7DEB7EEE004C5A0E0B0E0E1E2FFE040
:101E4000E5C4EC015B01CF5BDF4F4991A99188802C
:101E5000C354D04090E009C0E92FF0E0EE0FFF1F1F
:101E6000EA0DFB1D118210829F5F88859817A0F3F1
:101E700084B1CF5BDF4F3991832B84B987B129912E
:101E8000822B87B98AB19881C354D040892B8AB9F3
:101E900085B1832B85B988B1822B88B98BB1892B09
:101EA0008BB9EAE0F0E06F9364E06A95F1F76F9127
:101EB0003197C9F784B13095832384B987B12095D0
:101EC000822387B98AB1909589238AB985B138234D
:101ED00035B988B1282328B98BB198239BB9909044
:101EE000B000C090B1008091B00083608093B000DA
:101EF00082E08093B100D090B20060E070E03AC020
:101F00005091B2005D19650F711DE3B0E41609F040
:101F10004FC0F6B0FA1609F04BC089B1881509F028
:101F200047C025C0A42FB0E09D01220F331F8501BB
:101F3000020F131FF80180819181892BA1F42C0FCE
:101F40003D1FF90181A192A1FC01208130E0AC0F7D
:101F5000BD1F51968C9190E028233923232B19F42F
:101F6000F801718360834F5F88854817D8F2D50EDA
:101F70004E2DAF2D8E859F856817790708F29092B8
:101F8000B000C092B10020E00FC0E22FF0E0EE0FF1
:101F9000FF1FEA0DFB1D80819181892B21F48E8525
:101FA0009F85918380832F5F8885281770F305C0F4
:101FB000E3B0F6B089B040E0D7CFCDB7DEB7ECE004
:101FC00041C4A0E0B0E0E6EEFFE024C4EC018B01E8
:101FD000D0907C00E0907A00C7B0F8B080917A0091
:101FE00086FDFCCF90E009C0E92FF0E0EE0FFF1F67
:101FF000E00FF11F118210829F5F88859817A0F370
:1020000097B18AA18095982397B998B1892388B907
:1020100087E880937A0050E024C0FE01E40FF11DB0
:10202000818980937C0080917A00806480937A001B
:1020300080917A0086FDFCCFE42FF0E0EE0FFF1FC9
:10204000E00FF11F2091780030917900808191811B
:10205000820F931F918380834F5F88854817E8F232
:102060005F5F89A1581710F040E016C040E0F5CF3F
:10207000E42FF0E0EE0FFF1FE00FF11F69A1862FA4
:1020800090E09595879520813181820F931F70E0B4
:1020900066D3718360834F5F8885481748F3D09279
:1020A0007C00E0927A00F8B8C7B8CDB7DEB7E8E0B8
:1020B000CDC3A0E2B0E0EEE5F0E1ABC38C017B0163
:1020C000D42E842F81508230B0F4D8011C96ED912B
:1020D000FC911D97309779F0808119969C91199702
:1020E000892B80831A96ED91FC911B97808119961C
:1020F0009C91892B8083F8018089882339F5C02E33
:10210000B12EC801B70198DED8011C96ED91FC9163
:102110001D97309781F0808119969C911997892B92
:1021200080831A96ED91FC911B97908119968C9162
:10213000809589238083B2E0DB1609F050C08C2D96
:102140009B2DBE016F5F7F4F77DE25C0C02EB12E65
:10215000C801B70136DFD8011C96ED91FC911D979F
:10216000309781F0808119969C911997892B8083F3
:102170001A96ED91FC911B97908119968C91809500
:1021800089238083B2E0DB1651F58C2D9B2DBE0197
:102190006F5F7F4F16DF40E0BE016F5F7F4F1AC059
:1021A000E42FF0E0EE0FFF1F6701CE0EDF1EE60FFB
:1021B000F71FD8011E962D913C911F978081918128
:1021C000281B390BF60180819181820F931F918327
:1021D00080834F5FD80118968C91481708F3A0961A
:1021E000E9E033C3A0E0B0E0E7EFF0E110C3EC01B9
:1021F000162F072F942E22E0421711F0442351F49A
:102200008C819D81892B09F4A1C08E819F81892BAE
:1022100009F49CC0892D8150823050F488819981C5
:10222000892B09F493C08A819B81892B09F48EC084
:10223000CE01612F702F492D3CDF812F902F9C0103
:102240005901CC24DD2400E010E07AC081E098162A
:1022500069F4EA81FB81E00FF11F20813181E8817F
:10226000F981E00FF11F408151813DC0AC81BD81FA
:10227000992059F4EE81FF81E00FF11F2081318117
:10228000A00FB11F4D915C912EC0A00FB11F8D9179
:102290009C91E881F981E00FF11F20813181EE8569
:1022A000FF858217930710F4AF0105C0A9014E0FF7
:1022B0005F1F481B590BEE81FF81E00FF11F60810A
:1022C0007181EA81FB81E00FF11F80819181EE85B0
:1022D000FF856817790710F49F0105C09C012E0F38
:1022E0003F1F261B370B7901E41AF50AF1F0F501BF
:1022F0006081718180E090E09A0140E050E0621BD3
:10230000730B840B950B28EE33E040E050E0FCD1DA
:10231000970140E050E059D2C901F3E0293E3F0760
:1023200014F088EE93E097FF02C080E090E0F501A2
:10233000819391935F010894C11CD11C0E5F1F4FC4
:10234000888590E0C816D9060CF480CFCDB7DEB7EB
:10235000EBE079C2A4E0B0E0EFEAF1E151C28C0118
:10236000F62EE72E2A833EDFD8011896BC91B9835A
:102370002F2D3E2DC9018C01552444246624772439
:1023800043011C821B82AA24BB246501B8EE2B2EBC
:10239000B3E03B2E31C0F801E080F180FA81FF23E9
:1023A00021F091012E193F09790139ECE316F1046E
:1023B00014F04424439483E3E816F10494F0B70145
:1023C000882777FD8095982FA60195019DD1660EEF
:1023D000771E881E991EAB81BC81AE0DBF1DBC83CC
:1023E000AB83539488EE93E0A0E0B0E0A80EB91E52
:1023F000CA1EDB1E0E5F1F4F9981591660F24420E2
:1024000021F5692F70E084EF91E0DC016A9FC00143
:102410006B9F900D7A9F900D1124845F91402091C5
:102420006A0230916B02281739071CF440E050E033
:1024300019C088EE93E0689FA001699F500D789FB6
:10244000500D1124485E53400DC0EB81FC819F016B
:1024500040E050E0C401B30196D1A90130936B0272
:1024600020936A02CA012496E2E1E6C19C01462F4C
:1024700080916C0290916D02B90120E06BCFA3E6D0
:10248000B0E0E4E4F2E1BCC17C015B016A01A29628
:102490002FAFA297DA018D919C91892B11F5F7014D
:1024A000808590E0880F991F0E94A503D6018D9327
:1024B0009C93009709F4DEC020E030E00CC0C90115
:1024C000880F991FD601ED91FC91E80FF91F118239
:1024D00010822F5F3F4FF701808590E02817390762
:1024E00074F3D5018D919C91892B89F000E010E067
:1024F0003E010894611C711C41E4242E312C2C0EE9
:102500003D1E31E2432E512C4C0E5D1E28C0F701BA
:10251000808590E0880F991F0E94A503D5018D93B7
:102520009C93009709F4A6C020E030E011C0C901D7
:10253000880F991FD501ED91FC91E80FF91FD70184
:102540001E968D919C911F97918380832F5F3F4FA3
:10255000F701808590E0281739074CF3C7CFC701F2
:10256000B301A2964FADA297A4DDD70118968C9126
:10257000882E9924A101F301A4965FAE4EAEA497D4
:1025800060E070E034C00115110559F0A496AEADBD
:10259000BFADA4972D913C91808191812817390777
:1025A00058F480819181A496AEADBFADA4978D9370
:1025B0009C930115110541F0DA012D913C91808128
:1025C00091818217930728F480819181DA018D939C
:1025D0009C936F5F7F4F4E5F5F4F3296A4968EAD98
:1025E0009FADA4970296A4969FAF8EAFA49768154F
:1025F00079054CF20F5F1F4F0A30110509F0AFCF7C
:1026000040E050E020E030E08E010F5B1F4FBE0144
:102610006F5D7F4F28C0F801E20FF31F808091802B
:10262000F601A081B181A20FB31F8D919C911197EA
:102630008815990510F48D929C92FB01E20FF31F0F
:1026400080809180F501A081B181A20FB31F8D918F
:102650009C9111978816990610F48D929C924F5F69
:102660005F4F2E5F3F4FD70118968C9190E048172F
:1026700059078CF2CD59DF4FE2E1DEC01F93CF93B3
:10268000DF93EC01162F862F8150823038F4AE0193
:102690004E5F5F4FCE01BE0121E0F1DE123011F03E
:1026A000112341F4AE014A5F5F4FCE012496BE0173
:1026B00020E0E5DEDF91CF911F910895682F809192
:1026C0006C0290916D02DACFA0E0B0E0E9E6F3E1B0
:1026D000A1C08C01D62E7A01C22E84E490E00E9423
:1026E000A503EC01009711F480E00AC0B8014D2D5C
:1026F00097010C2D16DBD0936D02C0936C0281E024
:10270000CDB7DEB7E8E0A2C0629FD001739FF001B1
:10271000829FE00DF11D649FE00DF11D929FF00D71
:10272000839FF00D749FF00D659FF00D9927729FA8
:10273000B00DE11DF91F639FB00DE11DF91FBD0133
:10274000CF0111240895991B79E004C0991F9617B1
:1027500008F0961B881F7A95C9F780950895AA1BE3
:10276000BB1B51E107C0AA1FBB1FA617B70710F07C
:10277000A61BB70B881F991F5A95A9F780959095AE
:10278000BC01CD010895A1E21A2EAA1BBB1BFD01BD
:102790000DC0AA1FBB1FEE1FFF1FA217B307E40740
:1027A000F50720F0A21BB30BE40BF50B661F771F98
:1027B000881F991F1A9469F7609570958095909578
:1027C0009B01AC01BD01CF01089597FB092E0526A1
:1027D0000ED057FD04D0D7DF0AD0001C38F4509536
:1027E0004095309521953F4F4F4F5F4F0895F6F735
:1027F00090958095709561957F4F8F4F9F4F08956D
:102800002F923F924F925F926F927F928F929F9200
:10281000AF92BF92CF92DF92EF92FF920F931F93EE
:10282000CF93DF93CDB7DEB7CA1BDB0B0FB6F8949F
:10283000DEBF0FBECDBF09942A88398848885F84DF
:102840006E847D848C849B84AA84B984C884DF8050
:10285000EE80FD800C811B81AA81B981CE0FD11D34
:102860000FB6F894DEBF0FBECDBFED010895EE0F99
:0E287000FF1F0590F491E02D0994F894FFCF1E
:10287E00507265737320427574746F6E20412074AC
:10288E006F2073746172742063616C69627261741B
:10289E00696E672E2E2E0A003E3E61333200507254
:1028AE0065737320427574746F6E204120746F20AF
:1028BE007374617274206C696E6520666F6C6C6FD8
:1028CE0077696E672E2E2E0A000407131211100F51
:1028DE000E74697020666F72776172640A003C3CF8
:1028EE0063333200746970206C6566740A00746913
:1028FE00702072696768740A0054696C20696E747E
:10290E00657273656374696F6E202D2D2D2D2D2DBF
:10291E000A002D3E2074697020666F7277617264B2
:10292E000A002D3E20746970206C6566740A006E74
:10293E00616461320A002D3E2074697020726967ED
:10294E0068740A00092D2D2D0A003C6131360044B1
:10295E00454641554C54210A000A00456E642069D3
:10296E006E74657273656374696F6E202D2D2D2DD7
:10297E002D2D0A0025303464202530346420253076
:10298E0034642025303464202530346420253034DE
:10299E0064202530346420253034640A0004040099
:0E29AE00D007F4010F00012000D60200000047
:00000001FF
