:100000004BC0000065C0000063C0000061C000007C
:100010005FC000005DC000005BC0000059C0000070
:1000200057C000000C940C0953C0000051C00000E0
:100030004FC00000E1C500004BC0000049C00000F7
:1000400047C0000045C000000C9493080C94CB08F6
:100050003FC000003DC000003BC0000039C00000B0
:1000600037C0000035C000005F03650368036B0301
:100070006E037103740377037A037D0380038303A4
:100080003E6733323E3E633332004C313620636488
:10009000656772656734000011241FBECFEFD8E09A
:1000A000DEBFCDBF11E0A0E0B1E0EEEEFEE102C0A8
:1000B00005900D92A237B107D9F712E0A2E7B1E09F
:1000C00001C01D92AA30B107E1F76ED00C94750FF4
:1000D00097CF289A209A0E9446092898209A089536
:1000E000A8E0B0E0E6E7F0E00C94460F80E890E08E
:1000F00074D560E875E280E090E07AD782EA91E01A
:1001000064E6F4D6DE011196E9E5F1E088E00190BD
:100110000D928150E1F7CE01019668E040ED57E085
:1001200022E00E94890E80E091E067E2FAD782E047
:10013000DBD682E0A1D680E293E00E9446090CEE75
:100140001FEF0832110528F08CE390E064EC7FEF9C
:1001500004C084EC9FEF6CE370E05BD681E00E940A
:10016000830E84E190E00E9446090F5F1F4F0C331D
:10017000110539F780E090E060E070E04AD688E24F
:1001800091E038D58EE291E06AE2CBD782E0ACD63E
:1001900082E072D68AE890E020D591D18823E9F7F1
:1001A0002896E4E00C94620F9BDF04D088E291E093
:1001B00021D5FBCFA9E1B0E0E0EEF0E00C94380FE0
:1001C000CC24DD24EE24FF2454E0252E312C2C0EEB
:1001D0003D1E46E0442E512C4C0E5D1E38E0632E31
:1001E000712C6C0E7D1E2CE3A22EB12C94EC892E6A
:1001F0009FEF992ECE010A9661E00E945B0D9B83D2
:100200008A838C0106501E401D830C8398012C1993
:100210003D093F832E83220F331FC8016DE270E03A
:100220000E94E80E260F371F3987288724E6E2163A
:10023000F104A8F084E78983CE01019661E070D6CD
:10024000CE01029662E06CD6C10162E069D6C201BD
:1002500062E066D6C30162E063D6EE24FF2488859F
:100260009985CD9714F0B986A88688859985845C90
:100270009F4F14F4998688868885998597FF04C0D6
:10028000CC966CE370E005C0B501681B790B8CE37C
:1002900090E0BFD58A859B858D5B924050F4888D18
:1002A000998D8D5B924028F40894E11CF11C680143
:1002B000A1CF6996E2E10C94540FCF93DF93BC0178
:1002C0008230910510F462E070E0A0910802B091D4
:1002D0000902ED01E0E0F0E040E050E021C088815B
:1002E00099818617970769F48A819B81309719F065
:1002F0009383828304C09093090280930802FE01D5
:1003000034C06817790738F44115510519F084177E
:10031000950708F4AC01FE018A819B819C01E901EB
:100320002097E9F641155105A9F1CA01861B970BE3
:10033000049708F4BA01E0E0F0E02AC08D919C91A6
:10034000119784179507F9F46417750781F41296CD
:100350008D919C911397309719F09383828304C0F9
:100360009093090280930802FD0132964CC0CA01A5
:10037000861B970BFD01E80FF91F6193719302979C
:100380008D939C9340C0FD01828193819C01D90192
:100390001097A1F68091060290910702892B41F4F3
:1003A00080916D0190916E019093070280930602F7
:1003B00040916F01509170014115510541F44DB7C5
:1003C0005EB780916B0190916C01481B590B209195
:1003D000060230910702CA01821B930B861797070A
:1003E00080F0AB014E5F5F4F8417950750F0420FCE
:1003F000531F5093070240930602F90161937193D2
:1004000002C0E0E0F0E0CF01DF91CF910895CF93FB
:10041000DF93009709F450C0EC0122971B821A82E7
:10042000A0910802B0910902109709F140E050E054
:10043000AC17BD0708F1BB83AA83FE01219131915E
:10044000E20FF31FAE17BF0779F48D919C911197BE
:10045000280F391F2E5F3F4F3983288312968D91C5
:100460009C9113979B838A834115510571F4D09316
:100470000902C093080220C012968D919C91139797
:10048000AD01009711F0DC01D3CFFA01D383C28311
:1004900021913191E20FF31FCE17DF0769F48881B4
:1004A0009981280F391F2E5F3F4FFA013183208336
:1004B0008A819B8193838283DF91CF91089580917C
:1004C0006A01882339F020E08091870190918801AA
:1004D000892B09F021E0822F0895A0E0B0E0E3E746
:1004E000F2E00C94400FFC015B01C42E8091860168
:1004F0008823C9F481E08093860110926F0083E223
:100500008093800081E1809381001092820080E1DD
:1005100097E2909389008093880010928B0010924C
:100520008A00229A789410926A01F7FD03C0DD24B4
:10053000D39403C0FF772AE0D22E80918100082F48
:1005400010E0087F107088ECD89EC00111248E172F
:100550009F07C0F4EF0187E2E131F80710F0C0E136
:10056000D7E2BE017695679580E090E060587946C5
:1005700087469F4F9E0140E050E00E94FB0E7901AC
:10058000016024C088E2D89E802D1124C82FD0E0BD
:10059000CE17DF0708F4EF01BE01769567959E013F
:1005A00040E050E08AE0D81639F480E090E0605EE8
:1005B000734481449F4F06C080E090E060537D4EBD
:1005C0008C4E9F4F0E94FB0E790102608AE0D81684
:1005D00039F4CE0105966AE070E00E94D40EEB017A
:1005E00083E0C83ED80711F4B5010FC0BE0180E01A
:1005F00090E0950140E050E00E94A90E28EE33E023
:1006000040E050E00E941D0FB90110926F0000936E
:100610008100F0928900E0928800E0918800F091DA
:100620008900AC2DA03108F0AFE080E190E08A1B9A
:10063000910902C0F695E7958A95E2F7F0938B0051
:10064000E0938A00709377016093760186B38FEF11
:1006500086BB81E080936F00CDB7DEB7EAE00C94F3
:100660005C0FCF93DF93EB018F3F11F0442329F40C
:1006700088EE93E0BE0140E067C0813110F420E0D5
:1006800005C0282F2051203608F02FE5822F6CE07E
:100690000E94C80E382F682F70E084EF9FEF689F8C
:1006A000F001699FF00D789FF00D1124E20FF11D0C
:1006B000EC30F10538F4EC5CFF4F0C946F0F8CE9D3
:1006C00091E023C080E090E020C085EB91E01DC068
:1006D0008FEC91E01AC08AEE91E017C087E092E0BB
:1006E00014C086E292E011C087E492E00EC089E671
:1006F00092E00BC08EE892E008C085EB92E005C066
:100700008EED92E002C08AE093E0373071F002C0D3
:10071000880F991F6A95E2F7323020F005966AE05B
:1007200070E00BC0805090480BC036E0880F991FD6
:100730003A95E1F7029665E070E00E94D40ECB0195
:10074000403108F04FE0BE01C8DEDF91CF9108953F
:1007500030917401E0918701F0918801332311F009
:10076000249101C02081822F81548A3108F4205EB7
:10077000203259F4809187019091880101969093DD
:10078000880180938701019729F7822F0895CF93DD
:10079000DF93DEDF282FC0E0D0E01CC0CE0153E0A5
:1007A000880F991F5A95E1F7CC0FDD1FC80FD91F8D
:1007B000822F992787FD9095C80FD91FE0978091C8
:1007C0008701909188010196909388018093870119
:1007D000BFDF282F822F80538A3000F3CE01DF91B4
:1007E000CF910895A0E0B0E0E8EFF3E00C943E0F65
:1007F00080906101B0907201BB2021F06091730183
:10080000662399F4A090730100916601109167012D
:10081000E0906201F0906301C0916401D0916501A4
:10082000C0906801D090690103C18FEF70E040E093
:1008300018DF10927301C0C194E0892EBB2404EF2D
:1008400011E084E0E82EF12CC0EDD7E0B4E09B2E5F
:10085000AFE0CA2ED12C7CDF282F809187019091A8
:10086000880101969093880180938701263609F4C8
:1008700098C02736CCF42236A1F1233674F42E33F7
:1008800061F12F3334F42132B9F22C3309F006C16F
:1008900026C0213609F002C11CC1243609F451C01A
:1008A00025360CF066C035C02F3609F4BFC020379E
:1008B00054F42C3609F4A5C02D3609F4A5C027360A
:1008C00009F0ECC086C0243709F4CEC0263709F4FD
:1008D000E2C0223709F0E2C0ADC08394BCCF8A9455
:1008E000BACFA0927301B092720110936701009386
:1008F0006601F0926301E0926201D0936501C093BA
:10090000640190926101D0926901C09268012BE06C
:10091000F7C0A0927301B092720110936701009327
:100920006601F0926301E0926201D0936501C09389
:10093000640190926101D0926901C092680120E047
:10094000DFC0A0927301B09272011093670100930F
:100950006601F0926301E0926201D0936501C09359
:10096000640190926101D0926901C092680122E015
:10097000C7C0A0927301B0927201109367010093F7
:100980006601F0926301E0926201D0936501C09329
:10099000640190926101D0926901C092680124E0E3
:1009A000AFC0A0927301B0927201109367010093DF
:1009B0006601F0926301E0926201D0936501C093F9
:1009C000640190926101D0926901C092680125E0B2
:1009D00097C0A0927301B0927201109367010093C7
:1009E0006601F0926301E0926201D0936501C093C9
:1009F000640190926101D0926901C092680127E080
:100A00007FC0C5DE7C0141C0A3DE8C3611F4BB245F
:100A100003C0AA24BB24B3948091870190918801DC
:100A20000196909388018093870115CFB0DE882EC0
:100A3000982C11CFA0927301B092720110936701AC
:100A400000936601F0926301E0926201D093650128
:100A5000C093640190926101D0926901C0926801D3
:100A600020E0FF24F3944DC092DEBC0180EC9DE5B4
:100A70000E94D40ECB01EB01F3E0CC0FDD1FFA9501
:100A8000E1F7880F991FC80FD91FCE01B7010E9447
:100A9000D40E8B01E0CE7BDE6C01DDCEA092730123
:100AA000B09272011093670100936601F0926301A6
:100AB000E0926201D0936501C0936401909261015C
:100AC000D0926901C092680110928801109287014A
:100AD00073C0A0927301B0927201109367010093EA
:100AE0006601F0926301E0926201D0936501C093C8
:100AF000640190926101D0926901C092680129E07D
:100B0000FF248CE0889EC0011124E22EE80E0AC06A
:100B1000809187019091880101969093880180933C
:100B20008701E39415DE8B3299F3833289F30BC08E
:100B3000809187019091880101969093880180931C
:100B40008701EA9405DE8D3299F3C0916601D09158
:100B500067018153883050F4009164011091650160
:100B600016DEBC01C8010E94D40EEB018E010BC041
:100B700080918701909188010196909388018093DC
:100B80008701C00FD11F16950795E2DD8E3281F3E4
:100B900080917201882339F0CE01969587958093D4
:100BA0007301C81BD109FF2011F0EE24EA948E2DA9
:100BB000BE014091680155DDCDB7DEB7ECE00C9485
:100BC0005A0F10926F00909388018093870181E003
:100BD000809374011092730105CEF3CF08951092A3
:100BE0006F00909388018093870110927401109296
:100BF0007301F8CDF4CF08951F920F920FB60F92A4
:100C000011242F933F934F935F936F937F938F9311
:100C10009F93AF93BF93EF93FF9380917601909151
:100C2000770101979093770180937601019609F5FA
:100C300010926F00789480918100887F816080930A
:100C4000810080E197E29093890080938800109260
:100C50008B0010928A0081E080936A018091870165
:100C600090918801892B29F080917501882309F4DE
:100C7000B9DDFF91EF91BF91AF919F918F917F91DE
:100C80006F915F914F913F912F910F900FBE0F90F9
:100C90001F901895282F883068F481E090E002C0FA
:100CA000880F991F2A95E2F7282FAAE2B0E0EBE21D
:100CB000F0E029C08E3080F430E02850304081E0F0
:100CC00090E002C0880F991F2A95E2F7282FA4E22E
:100CD000B0E0E5E2F0E017C0853130F020E0A0E0C0
:100CE000B0E0E0E0F0E00FC030E02E50304081E0B6
:100CF00090E002C0880F991F2A95E2F7282FA7E2FB
:100D0000B0E0E8E2F0E06F3F19F48081822709C08B
:100D1000662319F08081822B04C09081822F8095F8
:100D2000892380838C91822B8C930895E0EBF0E0F3
:100D300083EF8083808184BDE1EBF0E082E08083FB
:100D4000808185BDE4EBF0E010828081E3EBF0E090
:100D50008083808188BD88B587BD86E060E09ADFAA
:100D600085E060E097DF8BE060E094DF83E060E0A7
:100D700091CF80917801882321F481E080937801DC
:100D8000D5CF0895CF93DF93EC01F3DFD7FD02C0F9
:100D900020E004C0D095C195DF4F21E0CE01CF3FC8
:100DA000D10519F014F08FEF90E0222319F018BC50
:100DB00087BD02C088BD17BCDF91CF910895CF9346
:100DC000DF93EC01D6DFD7FD02C020E004C0D09550
:100DD000C195DF4F21E0CE01CF3FD10519F014F0CE
:100DE0008FEF90E0222329F01092B4008093B3009B
:100DF00004C08093B4001092B300DF91CF910895A6
:100E00000F931F938B01BEDFC801D9DF1F910F9194
:100E10000895F6CF08951F93CF93DF93182F8091F5
:100E20007901882391F481E08093790184B18D7CEC
:100E300084B985B1826385B985E090E06F9364E001
:100E40006A95F1F76F910197C9F7C12FD0E083B18F
:100E500090E08C239D23892BD1F38AE090E025D26A
:100E600083B190E08C239D23892B89F383B1812367
:100E7000DF91CF911F910895CECF08951F93CF9307
:100E8000DF93182F80917901882391F481E080937A
:100E9000790184B18D7C84B985B1826385B985E09F
:100EA00090E06F9364E06A95F1F76F910197C9F74D
:100EB000C12FD0E083B190E0809590958C239D2345
:100EC000892BC1F38AE090E0F0D183B190E0809566
:100ED00090958C239D23892B69F383B18095812381
:100EE000DF91CF911F910895C9CF08952091C1003E
:100EF0002F772093C10090939201809391011092DB
:100F00008B0160938D0181E080938E018091890136
:100F1000882329F48091C10080688093C1000895DE
:100F20009093900180938F0110928A0160938C01BD
:100F3000892B61F080918A01861740F480918901A4
:100F4000882321F48091C100806203C08091C10098
:100F50008F7D8093C100089520918901222311F48F
:100F600088E901C088E18093C10080918F01909150
:100F70009001892B79F090918A0180918C019817CA
:100F800048F4222339F48091C10080628093C1002B
:100F9000789408958091C1008F7DF8CFEF92FF92F1
:100FA0000F931F937B018C0180E0D6DF60EA75E22E
:100FB00086E290E06E197F09800B910B33E0660F9B
:100FC000771F881F991F3A95D1F724E0EE0CFF1C7C
:100FD000001F111F2A95D1F7A80197010CD7309354
:100FE000C5002093C4001F910F91FF90EF900895CA
:100FF000D5CF08958091C1008F7D8093C100E0918D
:101000008F01F0919001309709F45DC080918A01C1
:1010100090918C01891708F05AC08091C00085FF1B
:1010200056C080918A01E80FF11D80818093C6002F
:1010300080918A018F5F80938A0149C080918901E4
:10104000882309F040C08091C10080628093C10074
:101050008091C1008F778093C100E0919101F09160
:101060009201309731F180918B0190918D01891718
:1010700000F58091C00087FF1CC02091C6008091C0
:101080008B01891750F480918B01E80FF11D2083AB
:1010900080918B018F5F80938B0190918B01809168
:1010A0008D01981731F480918E01882311F01092F0
:1010B0008B0180918901882379F48091C100806837
:1010C0008093C10008958091C1008F7DBFCF809132
:1010D0008A018917C0F7B2CF089590939001809349
:1010E0008F0110928A0160938C01892BA1F080916D
:1010F0008A01861780F480918901882361F48091A8
:10110000C10080620BC076DF90918A0180918C01D2
:101110009817C9F708958091C1008F7D8093C10011
:10112000F3CFDBCF08951F920F920FB60F921124C9
:101130002F938F939F93EF93FF932091C600E0919D
:101140009101F0919201309781F090918B01809103
:101150008D01981750F480918B01E80FF11D2083C9
:1011600080918B018F5F80938B0190918B01809197
:101170008D01981731F480918E01882311F010921F
:101180008B01FF91EF919F918F912F910F900FBE47
:101190000F901F9018951F920F920FB60F92112467
:1011A0008F939F93EF93FF93E0918F01F0919001C4
:1011B0003097F9F080918A0190918C01891738F568
:1011C0008091C00085FF23C080918A01E80FF11D46
:1011D00080818093C60080918A018F5F80938A010D
:1011E00016C080918901882321F48091C10080621A
:1011F00003C08091C1008F7D8093C100FF91EF916A
:101200009F918F910F900FBE0F901F901895809116
:101210008A01891770F7E5CF2F928F939F932FB68E
:1012200080919401909195010196809394019093FF
:10123000950190E080919601891F8093960190918D
:101240009C019C5F90939C0180919B0180519742EF
:10125000C0F090939C0180939B01809197019091A5
:1012600098010196809397019093980190E0809166
:101270009901891F8093990180919A01891F809318
:101280009A012FBE9F918F912F90189528EE33E0F1
:1012900009C0F9016F9364E06A95F1F76F91319796
:1012A000C9F701970097A9F7089528EE33E009C020
:1012B000F9016F9364E06A95F1F76F913197C9F77F
:1012C00001970097A9F70895FC01118210821382FB
:1012D00012821582148217821682613118F080E121
:1012E000808701C06087208B483078F481E090E0EF
:1012F00002C0880F991F4A95E2F781878BE290E040
:10130000938782878AE290E029C04E3098F4242F98
:1013100030E02850304081E090E002C0880F991FF3
:101320002A95E2F7818785E290E09387828784E2BD
:1013300090E014C04431A8F4242F30E02E50304007
:1013400081E090E002C0880F991F2A95E2F781871B
:1013500088E290E09387828787E290E09587848790
:10136000089515861486138612860895A0E0B0E0CD
:10137000EBEBF9E081C5EC016B01642F7901402FA3
:1013800020E0A2DFCE018F5B9F4FFC011082FE01A7
:10139000EE5BFF4F1082DE01AD5BBF4F1C92FF86FC
:1013A000EE8630E041E050E07F0166E2662E712C6F
:1013B0008C0123E2822E912CBD0199E2A92EB12C41
:1013C00058C0A32FB0E0F601EA0FFB1F80818830E0
:1013D000C0F4FA0102C0EE0FFF1F8A95E2F7CF01B9
:1013E000FE01EA0FFB1F818BFB012081282B20834C
:1013F000AA0FBB1FAC0FBD1F9296BC92AE929197E5
:1014000037C08E30D0F490E00897FA0102C0EE0F9A
:10141000FF1F8A95E2F7CF01FE01EA0FFB1F818BC8
:10142000F8012081282B2083AA0FBB1FAC0FBD1F02
:1014300092969C928E9291971BC08431C8F490E052
:101440000E97FA0102C0EE0FFF1F8A95E2F7CF0157
:10145000FE01EA0FFB1F818BF7012081282B2083DF
:10146000AA0FBB1FAC0FBD1F92967C926E929197F4
:101470003F5F8885381708F4A4CFCDB7DEB7EEE01C
:1014800017C5A0E0B0E0E6E4FAE0F8C4EC015B01C7
:10149000CF5BDF4F4991A9918880C354D04090E041
:1014A00009C0E92FF0E0EE0FFF1FEA0DFB1D1182CE
:1014B00010829F5F88859817A0F384B1CF5BDF4FC0
:1014C0003991832B84B987B12991822B87B98AB14D
:1014D0009881C354D040892B8AB985B1832B85B9B3
:1014E00088B1822B88B98BB1892B8BB9EAE0F0E007
:1014F0006F9364E06A95F1F76F913197C9F784B102
:101500003095832384B987B12095822387B98AB126
:10151000909589238AB985B1382335B988B12823B4
:1015200028B98BB198239BB99090B000C090B100BE
:101530008091B00083608093B00082E08093B1001E
:10154000D090B20060E070E03AC05091B2005D19F6
:10155000650F711DE3B0E41609F04FC0F6B0FA163E
:1015600009F04BC089B1881509F047C025C0A42FE8
:10157000B0E09D01220F331F8501020F131FF801F8
:1015800080819181892BA1F42C0F3D1FF90181A14C
:1015900092A1FC01208130E0AC0FBD1F51968C91CF
:1015A00090E028233923232B19F4F80171836083F9
:1015B0004F5F88854817D8F2D50E4E2DAF2D8E85FA
:1015C0009F856817790708F29092B000C092B10029
:1015D00020E00FC0E22FF0E0EE0FFF1FEA0DFB1D31
:1015E00080819181892B21F48E859F8591838083D1
:1015F0002F5F8885281770F305C0E3B0F6B089B077
:1016000040E0D7CFCDB7DEB7ECE054C4A0E0B0E007
:10161000EBE0FBE037C4EC018B01D0907C00E09064
:101620007A00C7B0F8B080917A0086FDFCCF90E0D8
:1016300009C0E92FF0E0EE0FFF1FE00FF11F11824C
:1016400010829F5F88859817A0F397B18AA1809533
:10165000982397B998B1892388B987E880937A004D
:1016600050E024C0FE01E40FF11D818980937C00CD
:1016700080917A00806480937A0080917A0086FD60
:10168000FCCFE42FF0E0EE0FFF1FE00FF11F2091E1
:1016900078003091790080819181820F931F91832E
:1016A00080834F5F88854817E8F25F5F89A15817EC
:1016B00010F040E016C040E0F5CFE42FF0E0EE0F70
:1016C000FF1FE00FF11F69A1862F90E09595879588
:1016D00020813181820F931F70E066D37183608314
:1016E0004F5F8885481748F3D0927C00E0927A00DB
:1016F000F8B8C7B8CDB7DEB7E8E0E0C3A0E2B0E025
:10170000E3E8FBE0BEC38C017B01D42E842F815023
:101710008230B0F4D8011C96ED91FC911D97309762
:1017200079F0808119969C911997892B80831A965C
:10173000ED91FC911B97808119969C91892B808358
:10174000F8018089882339F5C02EB12EC801B70170
:1017500098DED8011C96ED91FC911D97309781F091
:10176000808119969C911997892B80831A96ED9107
:10177000FC911B97908119968C9180958923808389
:10178000B2E0DB1609F050C08C2D9B2DBE016F5FBF
:101790007F4F77DE25C0C02EB12EC801B70136DFDE
:1017A000D8011C96ED91FC911D97309781F08081B6
:1017B00019969C911997892B80831A96ED91FC912B
:1017C0001B97908119968C91809589238083B2E034
:1017D000DB1651F58C2D9B2DBE016F5F7F4F16DF01
:1017E00040E0BE016F5F7F4F1AC0E42FF0E0EE0FC4
:1017F000FF1F6701CE0EDF1EE60FF71FD8011E96F2
:101800002D913C911F9780819181281B390BF60106
:1018100080819181820F931F918380834F5FD801D4
:1018200018968C91481708F3A096E9E046C3A0E00B
:10183000B0E0ECE1FCE023C3EC01162F072F942E5F
:1018400022E0421711F0442351F48C819D81892BB1
:1018500009F4A1C08E819F81892B09F49CC0892D38
:101860008150823050F488819981892B09F493C08A
:101870008A819B81892B09F48EC0CE01612F702F44
:10188000492D3CDF812F902F9C015901CC24DD2470
:1018900000E010E07AC081E0981669F4EA81FB81EB
:1018A000E00FF11F20813181E881F981E00FF11F04
:1018B000408151813DC0AC81BD81992059F4EE81B8
:1018C000FF81E00FF11F20813181A00FB11F4D91E9
:1018D0005C912EC0A00FB11F8D919C91E881F98180
:1018E000E00FF11F20813181EE85FF85821793077C
:1018F00010F4AF0105C0A9014E0F5F1F481B590B23
:10190000EE81FF81E00FF11F60817181EA81FB812F
:10191000E00FF11F80819181EE85FF8568177907BF
:1019200010F49F0105C09C012E0F3F1F261B370B93
:101930007901E41AF50AF1F0F5016081718180E026
:1019400090E09A0140E050E0621B730B840B950B12
:1019500028EE33E040E050E0FCD1970140E050E059
:101960006CD2C901F3E0293E3F0714F088EE93E002
:1019700097FF02C080E090E0F501819391935F01B1
:101980000894C11CD11C0E5F1F4F888590E0C816BB
:10199000D9060CF480CFCDB7DEB7EBE08CC2A4E063
:1019A000B0E0E4EDFCE064C28C01F62EE72E2A8361
:1019B0003EDFD8011896BC91B9832F2D3E2DC90169
:1019C0008C01552444246624772443011C821B8205
:1019D000AA24BB246501B8EE2B2EB3E03B2E31C008
:1019E000F801E080F180FA81FF2321F091012E19A6
:1019F0003F09790139ECE316F10414F044244394CF
:101A000083E3E816F10494F0B701882777FD809509
:101A1000982FA60195019DD1660E771E881E991EEE
:101A2000AB81BC81AE0DBF1DBC83AB83539488EEEC
:101A300093E0A0E0B0E0A80EB91ECA1EDB1E0E5F48
:101A40001F4F9981591660F2442021F5692F70E0EB
:101A500084EF91E0DC016A9FC0016B9F900D7A9F3B
:101A6000900D1124845F914020919E0130919F013F
:101A7000281739071CF440E050E019C088EE93E0C5
:101A8000689FA001699F500D789F500D1124485EFA
:101A900053400DC0EB81FC819F0140E050E0C40148
:101AA000B301A9D1A90130939F0120939E01CA01DE
:101AB0002496E2E1F9C19C01462F8091A00190910A
:101AC000A101B90120E06BCFA3E6B0E0E9E6FDE0BB
:101AD000CFC17C015B016A01A2962FAFA297DA0108
:101AE0008D919C91892B11F5F701808590E0880FED
:101AF000991F0E945D01D6018D939C93009709F474
:101B0000DEC020E030E00CC0C901880F991FD6016B
:101B1000ED91FC91E80FF91F118210822F5F3F4F6A
:101B2000F701808590E02817390774F3D5018D916E
:101B30009C91892B89F000E010E03E010894611C23
:101B4000711C41E4242E312C2C0E3D1E31E2432E1B
:101B5000512C4C0E5D1E28C0F701808590E0880F47
:101B6000991F0E945D01D5018D939C93009709F404
:101B7000A6C020E030E011C0C901880F991FD5012F
:101B8000ED91FC91E80FF91FD7011E968D919C9164
:101B90001F97918380832F5F3F4FF701808590E0EF
:101BA000281739074CF3C7CFC701B301A2964FAD31
:101BB000A297A4DDD70118968C91882E9924A101B3
:101BC000F301A4965FAE4EAEA49760E070E034C01F
:101BD0000115110559F0A496AEADBFADA4972D9196
:101BE0003C91808191812817390758F48081918137
:101BF000A496AEADBFADA4978D939C93011511052E
:101C000041F0DA012D913C918081918182179307F7
:101C100028F480819181DA018D939C936F5F7F4FCF
:101C20004E5F5F4F3296A4968EAD9FADA4970296FD
:101C3000A4969FAF8EAFA497681579054CF20F5FFD
:101C40001F4F0A30110509F0AFCF40E050E020E00F
:101C500030E08E010F5B1F4FBE016F5D7F4F28C0CC
:101C6000F801E20FF31F80809180F601A081B1811D
:101C7000A20FB31F8D919C9111978815990510F4AF
:101C80008D929C92FB01E20FF31F80809180F50101
:101C9000A081B181A20FB31F8D919C9111978816DD
:101CA000990610F48D929C924F5F5F4F2E5F3F4FCD
:101CB000D70118968C9190E0481759078CF2CD59AE
:101CC000DF4FE2E1F1C01F93CF93DF93EC01162FBA
:101CD000862F8150823038F4AE014E5F5F4FCE01C7
:101CE000BE0121E0F1DE123011F0112341F4AE010A
:101CF0004A5F5F4FCE012496BE0120E0E5DEDF9112
:101D0000CF911F910895682F8091A0019091A1011A
:101D1000DACFA0E0B0E0EEE8FEE0B4C08C01D62E51
:101D20007A01C22E84E490E00E945D01EC010097EC
:101D300011F480E00AC0B8014D2D97010C2D16DB7F
:101D4000D093A101C093A00181E0CDB7DEB7E8E058
:101D5000B5C0629FD001739FF001829FE00DF11D1D
:101D6000649FE00DF11D929FF00D839FF00D749F15
:101D7000F00D659FF00D9927729FB00DE11DF91FC1
:101D8000639FB00DE11DF91FBD01CF01112408951E
:101D9000991B79E004C0991F961708F0961B881FBD
:101DA0007A95C9F780950895AA1BBB1B51E107C01E
:101DB000AA1FBB1FA617B70710F0A61BB70B881FDB
:101DC000991F5A95A9F780959095BC01CD0108956A
:101DD00097FB092E07260AD077FD04D0E5DF06D051
:101DE00000201AF4709561957F4F0895F6F790954D
:101DF00081959F4F0895A1E21A2EAA1BBB1BFD01DE
:101E00000DC0AA1FBB1FEE1FFF1FA217B307E407D9
:101E1000F50720F0A21BB30BE40BF50B661F771F31
:101E2000881F991F1A9469F7609570958095909511
:101E30009B01AC01BD01CF01089597FB092E05263A
:101E40000ED057FD04D0D7DF0AD0001C38F45095CF
:101E50004095309521953F4F4F4F5F4F0895F6F7CE
:101E600090958095709561957F4F8F4F9F4F089506
:101E70002F923F924F925F926F927F928F929F929A
:101E8000AF92BF92CF92DF92EF92FF920F931F9388
:101E9000CF93DF93CDB7DEB7CA1BDB0B0FB6F89439
:101EA000DEBF0FBECDBF09942A88398848885F8479
:101EB0006E847D848C849B84AA84B984C884DF80EA
:101EC000EE80FD800C811B81AA81B981CE0FD11DCE
:101ED0000FB6F894DEBF0FBECDBFED010895EE0F33
:0E1EE000FF1F0590F491E02D0994F894FFCFB8
:101EEE00507265737320427574746F6E2041207446
:101EFE006F2073746172742063616C6962726174B5
:101F0E00696E672E2E2E0A003E3E613332005072ED
:101F1E0065737320427574746F6E204120746F2048
:101F2E007374617274206C696E6520666F6C6C6F71
:101F3E0077696E672E2E2E0A000407131211100FEA
:101F4E000E040400D007F4010F000120000A020065
:021F5E00000081
:00000001FF
