:100000004BC0000065C0000063C0000061C000007C
:100010005FC000005DC000005BC0000059C0000070
:1000200057C000000C94CC0D53C0000051C000001C
:100030004FC000000C94BC0A4BC0000049C0000037
:1000400047C0000045C000000C94530D0C948B0D6C
:100050003FC000003DC000003BC0000039C00000B0
:1000600037C0000035C000001F08250828082B08ED
:100070002E083108340837083A083D08400843087C
:100080003E6733323E3E633332004C313620636488
:10009000656772656734000011241FBECFEFD8E09A
:1000A000DEBFCDBF12E0A0E0B1E0E8E4F8E202C0BC
:1000B00005900D92AC32B107D9F712E0ACE2B2E094
:1000C00001C01D92A43CB107E1F777D00C94221433
:1000D00097CF289A209A0E94060E2898209A089571
:1000E000A8E0B0E0E6E7F0E00C94F31380E890E0DD
:1000F0000E94AD0A60E875E280E090E00E94B80CD2
:100100008CE592E064E60E94360CDE011196E9E58A
:10011000F1E088E001900D928150E1F7CE01019667
:1001200068E040ED57E022E00E94491388D688231A
:10013000E9F780E091E067E20E94510D82E00E94C1
:10014000340C82E00E94FC0B80E293E00E94060ED9
:100150000CEE1FEF0832110528F082E390E06EEC00
:100160007FEF04C08EEC9FEF62E370E00E94C90B4A
:1001700081E00E94431384E190E00E94060E0F5F2D
:100180001F4F0C33110531F780E090E060E070E024
:100190000E94C90B88E291E00E94BA0A8EE291E0C7
:1001A0006AE20E94510D82E00E94340C82E00E94BB
:1001B000FC0B2896E4E00C940F1492DF37D058D152
:1001C000FDCF0F93CF93DF936430710518F1EC01ED
:1001D000A0E0B0E0E0E0F0E020E030E010C0888196
:1001E000998182309105B1F08130910511F43196F9
:1001F00004C0039711F42F5F3F4F11962296A61764
:10020000B70768F30CC02E173F0720F4442311F002
:100210008CE401C083E5DF91CF910F9108952E17F3
:100220003F0788F30023B1F382E5F5CFA0E1B0E00A
:10023000ECE1F1E00C94F3138E010F5F1F4FC80146
:1002400061E00E941B12AC018F8198858D5B92400A
:1002500008F43CC089819A818D529140B8F18D811A
:100260009E812B813C81820F931F8855924070F5AF
:100270006F85788981E06D327807B0F08D859E8535
:100280002B853C85820F931F8855924068F481E648
:1002900091E06CE00E94510D8EE691E00E94BA0A56
:1002A000CED58823E9F77CC06C52714088F584E78D
:1002B00091E069E00E94510D8EE691E00E94BA0A39
:1002C000BED58823E9F721E030E06CC089859A85A6
:1002D0008D5B9240E8F08F8598898D529140C0F0F7
:1002E0008D859E852B853C85820F931F8855924076
:1002F00078F48EE791E06AE00E94510D8EE691E07D
:100300000E94BA0A9CD58823E9F723E030E04AC06E
:1003100083E0483E580728F480E090E06EE670E005
:100320003CC027E0403D520718F480E090E00DC04B
:100330008BE0483B580718F48EE190E006C02CE0B3
:10034000443E520728F486E490E06AE570E025C058
:100350008EE04437580728F484E690E064E670E0C5
:100360001CC02FE0403A520728F48AE590E066E48A
:1003700070E013C083E14838580728F48AE590E01C
:100380006EE170E00AC04057574118F48AE590E0EA
:1003900002C08EE690E060E070E00E94C90B4FCF93
:1003A00022E030E0C9016096E4E00C940F14A4E66A
:1003B000B0E0EDEDF1E00C94F3139C018DB79EB726
:1003C00044970FB6F8949EBF0FBE8DBFEDB7FEB732
:1003D00031968E010F5F1F4FADB7BEB712961C93BB
:1003E0000E93119789E891E093838283D9018D91CF
:1003F0009C9111979583848312968D919C9113976C
:100400009783868314968D919C9115979187808709
:1004100016968D919C9117979387828718968D9148
:100420009C911997958784871A968D919C911B971B
:10043000978786871C968D919C911D97918B808BB9
:100440001E968D919C911F97938B828B65D28DB751
:100450009EB744960FB6F8949EBF0FBE8DBFC801DD
:1004600068E20E94510DCC59DF4FE4E00C940F1468
:10047000A9EDB0E0EEE3F2E00C94E9138C0182EB1D
:1004800091E068E10E94510D1B8B0A8B01E010E0A6
:1004900062E0C62ED12CCC0EDD1E7E010894E11C3C
:1004A000F11C51E0652E712C42E0842E912C33E03A
:1004B000A32EB12CC60161E00E941B128A819B8190
:1004C000893C910508F442C08E819F812C813D8139
:1004D000820F931F88559240C8F548895989493C35
:1004E0005105E8F08E859F852C853D85820F931FF1
:1004F00088559240A0F48BEC91E06FE00E94510D82
:100500008EE691E00E94BA0A9AD48823E9F7F801AE
:10051000EE0FFF1FEE0DFF1D928A818A37C046390C
:100520005105B0F58BED91E06CE00E94510D8EE627
:1005300091E00E94BA0A83D48823E9F7F801EE0F0C
:10054000FF1FEE0DFF1D728A618A20C0888999897C
:10055000893C9105E8F08E859F852C853D85820F2D
:10056000931F88559240A0F488EE91E06DE00E94C0
:10057000510D8EE691E0FED762D48823E9F7F801A9
:10058000EE0FFF1FEE0DFF1DB28AA18A0F5F1F4FF6
:100590008C819D818558934050F08E819F81855834
:1005A000934028F08A819B818558934078F48C850C
:1005B0009D8585589340B0F08E859F8585589340E2
:1005C00088F0888999898558934060F086EF91E09A
:1005D00065E00E94500C8CEF91E0CCD730D488239A
:1005E000E9F726C0C601E3DE8A859B852885398523
:1005F000820F931F81549640A0F48E819F81813594
:10060000910518F081E290E00EC08C859D858135C2
:10061000910528F088E290E061E270E006C0C60132
:10062000C6DE88E290E068E270E00E94C90B42CF2B
:1006300088E290E068E270E00E94C90B88EC90E0EC
:100640000E94060ECE01029661E00E941B12CE01AE
:100650004296B80141E021E001E0B3DD8983CE019B
:10066000019661E00E94510D81E092E061E00E94FC
:10067000510D89816AE570E010D082E390E062E379
:1006800070E00E94C90B83E092E068E10E94510D86
:10069000C752DF4FEEE00C9405148C3429F08235FC
:1006A00041F08234D1F40FC084EC9FEF6CE370E032
:1006B00004C08CE390E064EC7FEF0E94C90B8AEEEB
:1006C00091E00C94060E8DE290E063ED7FEF0E94C6
:1006D000C90B84ED93E00C94060E08950F931F93BD
:1006E0008C018CE46AE570E0D8DFC801B8010E9493
:1006F000C90B1F910F9108950F931F938C0182E5F1
:100700006AE570E0CADFC801B8010E94C90B1F91F9
:100710000F910895CF93DF93BC018230910510F4BF
:1007200062E070E0A091C202B091C302ED01E0E08E
:10073000F0E040E050E021C088819981861797075A
:1007400069F48A819B81309719F09383828304C076
:100750009093C3028093C202FE0134C068177907E8
:1007600038F44115510519F08417950708F4AC01C8
:10077000FE018A819B819C01E9012097E9F64115E0
:100780005105A9F1CA01861B970B049708F4BA0119
:10079000E0E0F0E02AC08D919C91119784179507B5
:1007A000F9F46417750781F412968D919C91139753
:1007B000309719F09383828304C09093C30280938F
:1007C000C202FD0132964CC0CA01861B970BFD0187
:1007D000E80FF91F6193719302978D939C9340C02A
:1007E000FD01828193819C01D9011097A1F680912E
:1007F000C0029091C102892B41F48091280290910E
:1008000029029093C1028093C00240912A02509124
:100810002B024115510541F44DB75EB78091260278
:1008200090912702481B590B2091C0023091C102C0
:10083000CA01821B930B8617970780F0AB014E5FAE
:100840005F4F8417950750F0420F531F5093C1021A
:100850004093C002F9016193719302C0E0E0F0E0BF
:10086000CF01DF91CF910895CF93DF93009709F4E3
:1008700050C0EC0122971B821A82A091C202B09153
:10088000C302109709F140E050E0AC17BD0708F132
:10089000BB83AA83FE0121913191E20FF31FAE17B2
:1008A000BF0779F48D919C911197280F391F2E5F06
:1008B0003F4F3983288312968D919C9113979B8388
:1008C0008A834115510571F4D093C302C093C202CB
:1008D00020C012968D919C911397AD01009711F055
:1008E000DC01D3CFFA01D383C28321913191E20F8E
:1008F000F31FCE17DF0769F488819981280F391F0C
:100900002E5F3F4FFA01318320838A819B8193833D
:100910008283DF91CF910895AEE0B0E0E2E9F4E0A8
:100920000C94F3130D891E8986E08C831A83098346
:100930008FEF9FE79E838D839E01275E3F4FCE0101
:1009400001966F89788DA9010AD02F813885020F11
:10095000131FF80110822E96E4E00C940F14ABE004
:10096000B0E0E5EBF4E00C94E5133C012B015A01F7
:10097000FC0117821682838181FD03C06FEF7FEF38
:10098000B9C19AE0892E1E010894211C311CF30183
:100990002381F20123FD859123FF81912F0188237B
:1009A00009F4A5C1853239F423FD859123FF819196
:1009B0002F01853221F490E0B301B7D1E8CF982F11
:1009C000FF24EE249924FFE1FF15D0F09B3269F05B
:1009D0009C3228F4903259F0933291F40EC09D323B
:1009E00049F0903369F441E024C052E0F52A84E0F4
:1009F000F82A28C098E0F92A25C0E0E1FE2A22C0A2
:100A0000F7FC29C0892F80538A3070F4F6FE05C0A8
:100A1000989C902C1124980E15C0E89CE02C112471
:100A2000E80EF0E2FF2A0EC09E3229F4F6FC5FC108
:100A300040E4F42A07C09C3619F450E8F52A02C0B5
:100A4000983649F4F20123FD959123FF91912F01EE
:100A5000992309F0B8CF892F8554833018F080523C
:100A6000833038F444E050E0A40EB51E5FE35983B0
:100A70000FC0933631F0933779F0933509F052C0B7
:100A80001FC0F5018081898342E050E0A40EB51EAD
:100A9000610101E010E011C0F501C080D180F6FCD9
:100AA00003C06FEF7FEF02C0692D70E042E050E0BD
:100AB000A40EB51EC6012ED18C015FE7F52213C02E
:100AC000F501C080D180F6FC03C06FEF7FEF02C05C
:100AD000692D70E042E050E0A40EB51EC6010FD1B2
:100AE0008C0150E8F52AF3FE06C018C080E290E0C1
:100AF000B3011BD1EA948E2D90E008171907B0F3CB
:100B00000DC0F601F7FC8591F7FE81916F0190E031
:100B1000B3010BD1E110EA94015010400115110509
:100B200081F7E2C0943611F0993661F5F7FE08C0FE
:100B3000F501208131814281538184E090E00AC037
:100B4000F501808191819C01442737FD4095542F08
:100B500082E090E0A80EB91E9FE6F92257FF09C077
:100B600050954095309521953F4F4F4F5F4FE0E8AE
:100B7000FE2ACA01B901A1012AE030E002D1D82E33
:100B8000D2183FC0953729F41F2D1F7E2AE030E090
:100B90001DC01F2D197F9F3661F0903720F49835C6
:100BA00009F0A5C00FC0903739F0983709F09FC001
:100BB00004C028E030E00AC0106114FD146020E198
:100BC00030E004C014FD166020E132E017FF08C0D9
:100BD000F501608171818281938144E050E008C019
:100BE000F50180819181BC0180E090E042E050E01D
:100BF000A40EB51EA101C5D0D82ED2188FE7F82EAD
:100C0000F122F6FE0BC05EEFF522D91438F4F4FEA3
:100C100007C0F2FC05C08FEEF82202C01D2D01C0F6
:100C2000192DF4FE0DC0FE01ED0DF11D8081803304
:100C300019F499EEF92208C01F5FF2FE05C003C047
:100C40008F2D867809F01F5F0F2DF3FC13C0F0FE87
:100C50000EC01E1510F09D2C0AC09D2C9E0C911AE2
:100C60001E2D05C080E290E0B3015FD01F5F1E150E
:100C7000C8F304C01E1510F4E11A01C0EE2404FFED
:100C80000EC080E390E0B30150D002FF1BC001FD15
:100C900003C088E790E00EC088E590E00BC0802F8D
:100CA000867881F001FF02C08BE201C080E2F7FC90
:100CB0008DE290E0B30139D005C080E390E0B3014C
:100CC00034D09A94D914C8F3DA94F101ED0DF11DE2
:100CD000808190E0B30129D0DD20B1F705C080E22A
:100CE00090E0B30122D0EA94EE20C9F750CEF30190
:100CF00066817781CB012B96E2E10C940114FC0113
:100D00000590615070400110D8F7809590958E0F36
:100D10009F1F0895FC016150704001900110D8F7A9
:100D2000809590958E0F9F1F08950F931F93CF93DB
:100D3000DF938C01EB018B8181FF1BC082FF0DC013
:100D40002E813F818C819D812817390764F4E881C9
:100D5000F9810193F983E88306C0E885F985802F3E
:100D60000995892B31F48E819F8101969F838E8313
:100D700002C00FEF1FEFC801DF91CF911F910F91BC
:100D80000895FA01AA27283051F1203181F1E89421
:100D90006F936E7F6E5F7F4F8F4F9F4FAF4FB1E06E
:100DA0003ED0B4E03CD0670F781F891F9A1FA11D69
:100DB000680F791F8A1F911DA11D6A0F711D811D6A
:100DC000911DA11D20D009F468943F912AE0269F2F
:100DD00011243019305D3193DEF6CF010895462F8E
:100DE0004770405D4193B3E00FD0C9F7F6CF462F6F
:100DF0004F70405D4A3318F0495D31FD40524193D8
:100E000002D0A9F7EACFB4E0A69597958795779594
:100E10006795BA95C9F700976105710508959B011B
:100E2000AC010A2E06945795479537952795BA95A4
:100E3000C9F7620F731F841F951FA01D089580912D
:100E40002502882339F020E08091410290914202EE
:100E5000892B09F021E0822F0895A0E0B0E0E3E3C0
:100E6000F7E00C94ED13FC015B01C42E809140026D
:100E70008823C9F481E08093400210926F0083E2DE
:100E80008093800081E1809381001092820080E154
:100E900097E2909389008093880010928B001092C3
:100EA0008A00229A789410922502F7FD03C0DD246F
:100EB000D39403C0FF772AE0D22E80918100082FBF
:100EC00010E0087F107088ECD89EC00111248E17A6
:100ED0009F07C0F4EF0187E2E131F80710F0C0E1AD
:100EE000D7E2BE017695679580E090E0605879463C
:100EF00087469F4F9E0140E050E00E94A813790171
:100F0000016024C088E2D89E802D1124C82FD0E033
:100F1000CE17DF0708F4EF01BE01769567959E01B5
:100F200040E050E08AE0D81639F480E090E0605E5E
:100F3000734481449F4F06C080E090E060537D4E33
:100F40008C4E9F4F0E94A813790102608AE0D81648
:100F500039F4CE0105966AE070E00E949413EB012B
:100F600083E0C83ED80711F4B5010FC0BE0180E090
:100F700090E0950140E050E00E94691328EE33E0D4
:100F800040E050E00E94CA13B90110926F00009334
:100F90008100F0928900E0928800E0918800F09151
:100FA0008900AC2DA03108F0AFE080E190E08A1B11
:100FB000910902C0F695E7958A95E2F7F0938B00C8
:100FC000E0938A00709331026093300286B38FEF12
:100FD00086BB81E080936F00CDB7DEB7EAE00C946A
:100FE0000914CF93DF93EB018F3F11F0442329F4D1
:100FF00088EE93E0BE0140E067C0813110F420E04C
:1010000005C0282F2051203608F02FE5822F6CE0F4
:101010000E948813382F682F70E084EF9FEF689F3D
:10102000F001699FF00D789FF00D1124E20FF11D82
:10103000EC30F10538F4EC5CFF4F0C941C148CE997
:1010400091E023C080E090E020C085EB91E01DC0DE
:101050008FEC91E01AC08AEE91E017C087E092E031
:1010600014C086E292E011C087E492E00EC089E6E7
:1010700092E00BC08EE892E008C085EB92E005C0DC
:101080008EED92E002C08AE093E0373071F002C04A
:10109000880F991F6A95E2F7323020F005966AE0D2
:1010A00070E00BC0805090480BC036E0880F991F4D
:1010B0003A95E1F7029665E070E00E949413CB0147
:1010C000403108F04FE0BE01C8DEDF91CF910895B6
:1010D00030912E02E0914102F0914202332311F04F
:1010E000249101C02081822F81548A3108F4205E2E
:1010F000203259F4809141029091420201969093DE
:10110000420280934102019729F7822F0895CF93DD
:10111000DF93DEDF282FC0E0D0E01CC0CE0153E01B
:10112000880F991F5A95E1F7CC0FDD1FC80FD91F03
:10113000822F992787FD9095C80FD91FE09780913E
:1011400041029091420201969093420280934102A3
:10115000BFDF282F822F80538A3000F3CE01DF912A
:10116000CF910895A0E0B0E0E8EBF8E00C94EB1329
:1011700080901C02B0902C02BB2021F060912D02C7
:10118000662399F4A0902D02009121021091220271
:10119000E0901D02F0901E02C0911F02D09120022B
:1011A000C0902302D090240203C18FEF70E040E092
:1011B00018DF10922D02C0C194E0892EBB2404EFE9
:1011C00011E084E0E82EF12CC0EDD7E0B4E09B2ED6
:1011D000AFE0CA2ED12C7CDF282F80914102909164
:1011E000420201969093420280934102263609F40E
:1011F00098C02736CCF42236A1F1233674F42E336E
:1012000061F12F3334F42132B9F22C3309F006C1E5
:1012100026C0213609F002C11CC1243609F451C090
:1012200025360CF066C035C02F3609F4BFC0203714
:1012300054F42C3609F4A5C02D3609F4A5C0273680
:1012400009F0ECC086C0243709F4CEC0263709F473
:10125000E2C0223709F0E2C0ADC08394BCCF8A94CB
:10126000BACFA0922D02B0922C02109322020093CA
:101270002102F0921E02E0921D02D0932002C09340
:101280001F0290921C02D0922402C09223022BE0F3
:10129000F7C0A0922D02B0922C021093220200936C
:1012A0002102F0921E02E0921D02D0932002C09310
:1012B0001F0290921C02D0922402C092230220E0CE
:1012C000DFC0A0922D02B0922C0210932202009354
:1012D0002102F0921E02E0921D02D0932002C093E0
:1012E0001F0290921C02D0922402C092230222E09C
:1012F000C7C0A0922D02B0922C021093220200933C
:101300002102F0921E02E0921D02D0932002C093AF
:101310001F0290921C02D0922402C092230224E069
:10132000AFC0A0922D02B0922C0210932202009323
:101330002102F0921E02E0921D02D0932002C0937F
:101340001F0290921C02D0922402C092230225E038
:1013500097C0A0922D02B0922C021093220200930B
:101360002102F0921E02E0921D02D0932002C0934F
:101370001F0290921C02D0922402C092230227E006
:101380007FC0C5DE7C0141C0A3DE8C3611F4BB24D6
:1013900003C0AA24BB24B3948091410290914202DD
:1013A0000196909342028093410215CFB0DE882EC1
:1013B000982C11CFA0922D02B0922C0210932202F1
:1013C00000932102F0921E02E0921D02D0932002AF
:1013D000C0931F0290921C02D0922402C09223025A
:1013E00020E0FF24F3944DC092DEBC0180EC9DE52B
:1013F0000E949413CB01EB01F3E0CC0FDD1FFA95B3
:10140000E1F7880F991FC80FD91FCE01B7010E94BD
:1014100094138B01E0CE7BDE6C01DDCEA0922D0219
:10142000B0922C021093220200932102F0921E022D
:10143000E0921D02D0932002C0931F0290921C02E2
:10144000D0922402C09223021092420210924102D2
:1014500073C0A0922D02B0922C021093220200932E
:101460002102F0921E02E0921D02D0932002C0934E
:101470001F0290921C02D0922402C092230229E003
:10148000FF248CE0889EC0011124E22EE80E0AC0E1
:101490008091410290914202019690934202809382
:1014A0004102E39415DE8B3299F3833289F30BC04A
:1014B0008091410290914202019690934202809362
:1014C0004102EA9405DE8D3299F3C0912102D09158
:1014D00022028153883050F400911F0210912002A3
:1014E00016DEBC01C8010E949413EB018E010BC0F3
:1014F0008091410290914202019690934202809322
:101500004102C00FD11F16950795E2DD8E3281F39F
:1015100080912C02882339F0CE019695879580938F
:101520002D02C81BD109FF2011F0EE24EA948E2D64
:10153000BE014091230255DDCDB7DEB7ECE00C943F
:10154000071410926F00909342028093410281E051
:1015500080932E0210922D0205CEF3CF08951092A3
:101560006F00909342028093410210922E021092DB
:101570002D02F8CDF4CF08951F920F920FB60F925F
:1015800011242F933F934F935F936F937F938F9388
:101590009F93AF93BF93EF93FF938091300290910D
:1015A000310201979093310280933002019609F540
:1015B00010926F00789480918100887F8160809381
:1015C000810080E197E290938900809388001092D7
:1015D0008B0010928A0081E0809325028091410265
:1015E00090914202892B29F080912F02882309F4DF
:1015F000B9DDFF91EF91BF91AF919F918F917F9155
:101600006F915F914F913F912F910F900FBE0F906F
:101610001F901895282F883068F481E090E002C070
:10162000880F991F2A95E2F7282FAAE2B0E0EBE293
:10163000F0E029C08E3080F430E02850304081E066
:1016400090E002C0880F991F2A95E2F7282FA4E2A4
:10165000B0E0E5E2F0E017C0853130F020E0A0E036
:10166000B0E0E0E0F0E00FC030E02E50304081E02C
:1016700090E002C0880F991F2A95E2F7282FA7E271
:10168000B0E0E8E2F0E06F3F19F48081822709C002
:10169000662319F08081822B04C09081822F80956F
:1016A000892380838C91822B8C930895E0EBF0E06A
:1016B00083EF8083808184BDE1EBF0E082E0808372
:1016C000808185BDE4EBF0E010828081E3EBF0E007
:1016D0008083808188BD88B587BD86E060E09ADF21
:1016E00085E060E097DF8BE060E094DF83E060E01E
:1016F00091CF80913202882321F481E080933202DD
:10170000D5CF0895CF93DF93EC01F3DFD7FD02C06F
:1017100020E004C0D095C195DF4F21E0CE01CF3F3E
:10172000D10519F014F08FEF90E0222319F018BCC6
:1017300087BD02C088BD17BCDF91CF910895CF93BC
:10174000DF93EC01D6DFD7FD02C020E004C0D095C6
:10175000C195DF4F21E0CE01CF3FD10519F014F044
:101760008FEF90E0222329F01092B4008093B30011
:1017700004C08093B4001092B300DF91CF9108951C
:101780000F931F938B01BEDFC801D9DF1F910F910B
:101790000895F6CF08951F93CF93DF93182F80916C
:1017A0003302882391F481E08093330284B18D7CED
:1017B00084B985B1826385B985E090E06F9364E078
:1017C0006A95F1F76F910197C9F7C12FD0E083B106
:1017D00090E08C239D23892BD1F38AE090E025D2E1
:1017E00083B190E08C239D23892B89F383B18123DE
:1017F000DF91CF911F910895CECF08951F93CF937E
:10180000DF93182F80913302882391F481E0809335
:10181000330284B18D7C84B985B1826385B985E05A
:1018200090E06F9364E06A95F1F76F910197C9F7C3
:10183000C12FD0E083B190E0809590958C239D23BB
:10184000892BC1F38AE090E0F0D183B190E08095DC
:1018500090958C239D23892B69F383B180958123F7
:10186000DF91CF911F910895C9CF08952091C100B4
:101870002F772093C10090934C0280934B021092DB
:1018800045026093470281E08093480280914302C1
:10189000882329F48091C10080688093C100089555
:1018A00090934A0280934902109244026093460248
:1018B000892B61F080914402861740F480914302A5
:1018C000882321F48091C100806203C08091C1000F
:1018D0008F7D8093C100089520914302222311F44B
:1018E00088E901C088E18093C1008091490290910C
:1018F0004A02892B79F09091440280914602981710
:1019000048F4222339F48091C10080628093C100A1
:10191000789408958091C1008F7DF8CFEF92FF9267
:101920000F931F937B018C0180E0D6DF60EA75E2A4
:1019300086E290E06E197F09800B910B33E0660F11
:10194000771F881F991F3A95D1F724E0EE0CFF1CF2
:10195000001F111F2A95D1F7A8019701F9D63093DE
:10196000C5002093C4001F910F91FF90EF90089540
:10197000D5CF08958091C1008F7D8093C100E09103
:101980004902F0914A02309709F45DC08091440207
:1019900090914602891708F05AC08091C00085FFD7
:1019A00056C080914402E80FF11D80818093C600EB
:1019B000809144028F5F8093440249C0809143022A
:1019C000882309F040C08091C10080628093C100EB
:1019D0008091C1008F778093C100E0914B02F0911C
:1019E0004C02309731F1809145029091470289175E
:1019F00000F58091C00087FF1CC02091C600809137
:101A00004502891750F480914502E80FF11D2083AB
:101A1000809145028F5F80934502909145028091AD
:101A20004702981731F480914802882311F01092F0
:101A3000450280914302882379F48091C100806837
:101A40008093C10008958091C1008F7DBFCF8091A8
:101A500044028917C0F7B2CF089590934A02809349
:101A600049021092440260934602892BA1F08091B2
:101A70004402861780F480914302882361F48091A8
:101A8000C10080620BC076DF9091440280914602D3
:101A90009817C9F708958091C1008F7D8093C10088
:101AA000F3CFDBCF08951F920F920FB60F92112440
:101AB0002F938F939F93EF93FF932091C600E09114
:101AC0004B02F0914C02309781F090914502809149
:101AD0004702981750F480914502E80FF11D2083CA
:101AE000809145028F5F80934502909145028091DD
:101AF0004702981731F480914802882311F0109220
:101B00004502FF91EF919F918F912F910F900FBE02
:101B10000F901F9018951F920F920FB60F921124DD
:101B20008F939F93EF93FF93E0914902F0914A02C4
:101B30003097F9F08091440290914602891738F568
:101B40008091C00085FF23C080914402E80FF11D01
:101B500080818093C600809144028F5F809344020D
:101B600016C080914302882321F48091C1008062D5
:101B700003C08091C1008F7D8093C100FF91EF91E0
:101B80009F918F910F900FBE0F901F90189580918D
:101B90004402891770F7E5CF2F928F939F932FB64A
:101BA00080914E0290914F02019680934E02909345
:101BB0004F0290E080915002891F809350029091D3
:101BC00056029C5F90935602809155028051974235
:101BD000C0F09093560280935502809151029091EB
:101BE00052020196809351029093520290E08091AC
:101BF0005302891F8093530280915402891F80935E
:101C000054022FBE9F918F912F90189528EE33E0AC
:101C100009C0F9016F9364E06A95F1F76F9131970C
:101C2000C9F701970097A9F7089528EE33E009C096
:101C3000F9016F9364E06A95F1F76F913197C9F7F5
:101C400001970097A9F70895FC0111821082138271
:101C500012821582148217821682613118F080E197
:101C6000808701C06087208B483078F481E090E065
:101C700002C0880F991F4A95E2F781878BE290E0B6
:101C8000938782878AE290E029C04E3098F4242F0F
:101C900030E02850304081E090E002C0880F991F6A
:101CA0002A95E2F7818785E290E09387828784E234
:101CB00090E014C04431A8F4242F30E02E5030407E
:101CC00081E090E002C0880F991F2A95E2F7818792
:101CD00088E290E09387828787E290E09587848707
:101CE000089515861486138612860895A0E0B0E044
:101CF000EBE7FEE06EC5EC016B01642F7901402F2C
:101D000020E0A2DFCE018F5B9F4FFC011082FE011D
:101D1000EE5BFF4F1082DE01AD5BBF4F1C92FF8672
:101D2000EE8630E041E050E07F0166E2662E712CE5
:101D30008C0123E2822E912CBD0199E2A92EB12CB7
:101D400058C0A32FB0E0F601EA0FFB1F8081883056
:101D5000C0F4FA0102C0EE0FFF1F8A95E2F7CF012F
:101D6000FE01EA0FFB1F818BFB012081282B2083C2
:101D7000AA0FBB1FAC0FBD1F9296BC92AE9291975B
:101D800037C08E30D0F490E00897FA0102C0EE0F11
:101D9000FF1F8A95E2F7CF01FE01EA0FFB1F818B3F
:101DA000F8012081282B2083AA0FBB1FAC0FBD1F79
:101DB00092969C928E9291971BC08431C8F490E0C9
:101DC0000E97FA0102C0EE0FFF1F8A95E2F7CF01CE
:101DD000FE01EA0FFB1F818BF7012081282B208356
:101DE000AA0FBB1FAC0FBD1F92967C926E9291976B
:101DF0003F5F8885381708F4A4CFCDB7DEB7EEE093
:101E000004C5A0E0B0E0E6E0FFE0E5C4EC015B0162
:101E1000CF5BDF4F4991A9918880C354D04090E0B7
:101E200009C0E92FF0E0EE0FFF1FEA0DFB1D118244
:101E300010829F5F88859817A0F384B1CF5BDF4F36
:101E40003991832B84B987B12991822B87B98AB1C3
:101E50009881C354D040892B8AB985B1832B85B929
:101E600088B1822B88B98BB1892B8BB9EAE0F0E07D
:101E70006F9364E06A95F1F76F913197C9F784B178
:101E80003095832384B987B12095822387B98AB19D
:101E9000909589238AB985B1382335B988B128232B
:101EA00028B98BB198239BB99090B000C090B10035
:101EB0008091B00083608093B00082E08093B10095
:101EC000D090B20060E070E03AC05091B2005D196D
:101ED000650F711DE3B0E41609F04FC0F6B0FA16B5
:101EE00009F04BC089B1881509F047C025C0A42F5F
:101EF000B0E09D01220F331F8501020F131FF8016F
:101F000080819181892BA1F42C0F3D1FF90181A1C2
:101F100092A1FC01208130E0AC0FBD1F51968C9145
:101F200090E028233923232B19F4F801718360836F
:101F30004F5F88854817D8F2D50E4E2DAF2D8E8570
:101F40009F856817790708F29092B000C092B1009F
:101F500020E00FC0E22FF0E0EE0FFF1FEA0DFB1DA7
:101F600080819181892B21F48E859F859183808347
:101F70002F5F8885281770F305C0E3B0F6B089B0ED
:101F800040E0D7CFCDB7DEB7ECE041C4A0E0B0E091
:101F9000EBECFFE024C4EC018B01D0907C00E090DE
:101FA0007A00C7B0F8B080917A0086FDFCCF90E04F
:101FB00009C0E92FF0E0EE0FFF1FE00FF11F1182C3
:101FC00010829F5F88859817A0F397B18AA18095AA
:101FD000982397B998B1892388B987E880937A00C4
:101FE00050E024C0FE01E40FF11D818980937C0044
:101FF00080917A00806480937A0080917A0086FDD7
:10200000FCCFE42FF0E0EE0FFF1FE00FF11F209157
:1020100078003091790080819181820F931F9183A4
:1020200080834F5F88854817E8F25F5F89A1581762
:1020300010F040E016C040E0F5CFE42FF0E0EE0FE6
:10204000FF1FE00FF11F69A1862F90E095958795FE
:1020500020813181820F931F70E066D3718360838A
:102060004F5F8885481748F3D0927C00E0927A0051
:10207000F8B8C7B8CDB7DEB7E8E0CDC3A0E2B0E0AE
:10208000E3E4F0E1ABC38C017B01D42E842F8150BB
:102090008230B0F4D8011C96ED91FC911D973097D9
:1020A00079F0808119969C911997892B80831A96D3
:1020B000ED91FC911B97808119969C91892B8083CF
:1020C000F8018089882339F5C02EB12EC801B701E7
:1020D00098DED8011C96ED91FC911D97309781F008
:1020E000808119969C911997892B80831A96ED917E
:1020F000FC911B97908119968C9180958923808300
:10210000B2E0DB1609F050C08C2D9B2DBE016F5F35
:102110007F4F77DE25C0C02EB12EC801B70136DF54
:10212000D8011C96ED91FC911D97309781F080812C
:1021300019969C911997892B80831A96ED91FC91A1
:102140001B97908119968C91809589238083B2E0AA
:10215000DB1651F58C2D9B2DBE016F5F7F4F16DF77
:1021600040E0BE016F5F7F4F1AC0E42FF0E0EE0F3A
:10217000FF1F6701CE0EDF1EE60FF71FD8011E9668
:102180002D913C911F9780819181281B390BF6017D
:1021900080819181820F931F918380834F5FD8014B
:1021A00018968C91481708F3A096E9E033C3A0E095
:1021B000B0E0ECEDF0E110C3EC01162F072F942EE8
:1021C00022E0421711F0442351F48C819D81892B28
:1021D00009F4A1C08E819F81892B09F49CC0892DAF
:1021E0008150823050F488819981892B09F493C001
:1021F0008A819B81892B09F48EC0CE01612F702FBB
:10220000492D3CDF812F902F9C015901CC24DD24E6
:1022100000E010E07AC081E0981669F4EA81FB8161
:10222000E00FF11F20813181E881F981E00FF11F7A
:10223000408151813DC0AC81BD81992059F4EE812E
:10224000FF81E00FF11F20813181A00FB11F4D915F
:102250005C912EC0A00FB11F8D919C91E881F981F6
:10226000E00FF11F20813181EE85FF8582179307F2
:1022700010F4AF0105C0A9014E0F5F1F481B590B99
:10228000EE81FF81E00FF11F60817181EA81FB81A6
:10229000E00FF11F80819181EE85FF856817790736
:1022A00010F49F0105C09C012E0F3F1F261B370B0A
:1022B0007901E41AF50AF1F0F5016081718180E09D
:1022C00090E09A0140E050E0621B730B840B950B89
:1022D00028EE33E040E050E0FCD1970140E050E0D0
:1022E00059D2C901F3E0293E3F0714F088EE93E08C
:1022F00097FF02C080E090E0F501819391935F0128
:102300000894C11CD11C0E5F1F4F888590E0C81631
:10231000D9060CF480CFCDB7DEB7EBE079C2A4E0EC
:10232000B0E0E4E9F1E151C28C01F62EE72E2A83F8
:102330003EDFD8011896BC91B9832F2D3E2DC901DF
:102340008C01552444246624772443011C821B827B
:10235000AA24BB246501B8EE2B2EB3E03B2E31C07E
:10236000F801E080F180FA81FF2321F091012E191C
:102370003F09790139ECE316F10414F04424439445
:1023800083E3E816F10494F0B701882777FD809580
:10239000982FA60195019DD1660E771E881E991E65
:1023A000AB81BC81AE0DBF1DBC83AB83539488EE63
:1023B00093E0A0E0B0E0A80EB91ECA1EDB1E0E5FBF
:1023C0001F4F9981591660F2442021F5692F70E062
:1023D00084EF91E0DC016A9FC0016B9F900D7A9FB2
:1023E000900D1124845F9140209158023091590240
:1023F000281739071CF440E050E019C088EE93E03C
:10240000689FA001699F500D789F500D1124485E70
:1024100053400DC0EB81FC819F0140E050E0C401BE
:10242000B30196D1A9013093590220935802CA01F1
:102430002496E2E1E6C19C01462F80915A029091D8
:102440005B02B90120E06BCFA3E6B0E0E9E2F2E184
:10245000BCC17C015B016A01A2962FAFA297DA0191
:102460008D919C91892B11F5F701808590E0880F63
:10247000991F0E948A03D6018D939C93009709F4BB
:10248000DEC020E030E00CC0C901880F991FD601E2
:10249000ED91FC91E80FF91F118210822F5F3F4FE1
:1024A000F701808590E02817390774F3D5018D91E5
:1024B0009C91892B89F000E010E03E010894611C9A
:1024C000711C41E4242E312C2C0E3D1E31E2432E92
:1024D000512C4C0E5D1E28C0F701808590E0880FBE
:1024E000991F0E948A03D5018D939C93009709F44C
:1024F000A6C020E030E011C0C901880F991FD501A6
:10250000ED91FC91E80FF91FD7011E968D919C91DA
:102510001F97918380832F5F3F4FF701808590E065
:10252000281739074CF3C7CFC701B301A2964FADA7
:10253000A297A4DDD70118968C91882E9924A10129
:10254000F301A4965FAE4EAEA49760E070E034C095
:102550000115110559F0A496AEADBFADA4972D910C
:102560003C91808191812817390758F480819181AD
:10257000A496AEADBFADA4978D939C9301151105A4
:1025800041F0DA012D913C9180819181821793076E
:1025900028F480819181DA018D939C936F5F7F4F46
:1025A0004E5F5F4F3296A4968EAD9FADA497029674
:1025B000A4969FAF8EAFA497681579054CF20F5F74
:1025C0001F4F0A30110509F0AFCF40E050E020E086
:1025D00030E08E010F5B1F4FBE016F5D7F4F28C043
:1025E000F801E20FF31F80809180F601A081B18194
:1025F000A20FB31F8D919C9111978815990510F426
:102600008D929C92FB01E20FF31F80809180F50177
:10261000A081B181A20FB31F8D919C911197881653
:10262000990610F48D929C924F5F5F4F2E5F3F4F43
:10263000D70118968C9190E0481759078CF2CD5924
:10264000DF4FE2E1DEC01F93CF93DF93EC01162F43
:10265000862F8150823038F4AE014E5F5F4FCE013D
:10266000BE0121E0F1DE123011F0112341F4AE0180
:102670004A5F5F4FCE012496BE0120E0E5DEDF9188
:10268000CF911F910895682F80915A0290915B021B
:10269000DACFA0E0B0E0EEE4F3E1A1C08C01D62EE9
:1026A0007A01C22E84E490E00E948A03EC01009734
:1026B00011F480E00AC0B8014D2D97010C2D16DBF6
:1026C000D0935B02C0935A0281E0CDB7DEB7E8E059
:1026D000A2C0629FD001739FF001829FE00DF11DA7
:1026E000649FE00DF11D929FF00D839FF00D749F8C
:1026F000F00D659FF00D9927729FB00DE11DF91F38
:10270000639FB00DE11DF91FBD01CF011124089594
:10271000991B79E004C0991F961708F0961B881F33
:102720007A95C9F780950895AA1BBB1B51E107C094
:10273000AA1FBB1FA617B70710F0A61BB70B881F51
:10274000991F5A95A9F780959095BC01CD010895E0
:10275000A1E21A2EAA1BBB1BFD010DC0AA1FBB1FA5
:10276000EE1FFF1FA217B307E407F50720F0A21B17
:10277000B30BE40BF50B661F771F881F991F1A9484
:1027800069F760957095809590959B01AC01BD01AE
:10279000CF01089597FB092E05260ED057FD04D0D2
:1027A000D7DF0AD0001C38F450954095309521951C
:1027B0003F4F4F4F5F4F0895F6F790958095709576
:1027C00061957F4F8F4F9F4F08952F923F924F9269
:1027D0005F926F927F928F929F92AF92BF92CF92B1
:1027E000DF92EF92FF920F931F93CF93DF93CDB7BA
:1027F000DEB7CA1BDB0B0FB6F894DEBF0FBECDBF32
:1028000009942A88398848885F846E847D848C8402
:102810009B84AA84B984C884DF80EE80FD800C810B
:102820001B81AA81B981CE0FD11D0FB6F894DEBFEE
:102830000FBECDBFED010895EE0FFF1F0590F4917F
:08284000E02D0994F894FFCF8C
:10284800507265737320427574746F6E20412074E2
:102858006F2073746172742063616C696272617451
:10286800696E672E2E2E0A003E3E6133320050728A
:1028780065737320427574746F6E204120746F20E5
:102888007374617274206C696E6520666F6C6C6F0E
:1028980077696E672E2E2E0A000407131211100F87
:1028A8000E74697020666F72776172640A003C3C2E
:1028B80063333200746970206C6566740A00746949
:1028C800702072696768740A0025303464202530E6
:1028D8003464202530346420253034642025303495
:1028E8006420253034642025303464202530346455
:1028F8000A0054696C20696E746572736563746943
:102908006F6E202D2D2D2D2D2D0A002D3E20746942
:102918007020666F72776172640A002D3E207469B8
:1029280070206C6566740A002D3E207469702072F0
:10293800696768740A00092D2D2D0A003C6131363B
:10294800000A00456E6420696E746572736563746D
:10295800696F6E202D2D2D2D2D2D0A00040400D019
:0C29680007F4010F00012000C402000071
:00000001FF
